{
  "_format": "hh-sol-artifact-1",
  "contractName": "HealthCard",
  "sourceName": "contracts/HealthCard.sol",
  "abi": [
    {
      "inputs": [
        {
          "internalType": "address",
          "name": "_owner",
          "type": "address"
        }
      ],
      "stateMutability": "nonpayable",
      "type": "constructor"
    },
    {
      "inputs": [
        {
          "internalType": "address",
          "name": "sender",
          "type": "address"
        },
        {
          "internalType": "uint256",
          "name": "tokenId",
          "type": "uint256"
        },
        {
          "internalType": "address",
          "name": "owner",
          "type": "address"
        }
      ],
      "name": "ERC721IncorrectOwner",
      "type": "error"
    },
    {
      "inputs": [
        {
          "internalType": "address",
          "name": "operator",
          "type": "address"
        },
        {
          "internalType": "uint256",
          "name": "tokenId",
          "type": "uint256"
        }
      ],
      "name": "ERC721InsufficientApproval",
      "type": "error"
    },
    {
      "inputs": [
        {
          "internalType": "address",
          "name": "approver",
          "type": "address"
        }
      ],
      "name": "ERC721InvalidApprover",
      "type": "error"
    },
    {
      "inputs": [
        {
          "internalType": "address",
          "name": "operator",
          "type": "address"
        }
      ],
      "name": "ERC721InvalidOperator",
      "type": "error"
    },
    {
      "inputs": [
        {
          "internalType": "address",
          "name": "owner",
          "type": "address"
        }
      ],
      "name": "ERC721InvalidOwner",
      "type": "error"
    },
    {
      "inputs": [
        {
          "internalType": "address",
          "name": "receiver",
          "type": "address"
        }
      ],
      "name": "ERC721InvalidReceiver",
      "type": "error"
    },
    {
      "inputs": [
        {
          "internalType": "address",
          "name": "sender",
          "type": "address"
        }
      ],
      "name": "ERC721InvalidSender",
      "type": "error"
    },
    {
      "inputs": [
        {
          "internalType": "uint256",
          "name": "tokenId",
          "type": "uint256"
        }
      ],
      "name": "ERC721NonexistentToken",
      "type": "error"
    },
    {
      "anonymous": false,
      "inputs": [
        {
          "indexed": false,
          "internalType": "address",
          "name": "patient",
          "type": "address"
        },
        {
          "indexed": false,
          "internalType": "address",
          "name": "provider",
          "type": "address"
        }
      ],
      "name": "AccessApproved",
      "type": "event"
    },
    {
      "anonymous": false,
      "inputs": [
        {
          "indexed": false,
          "internalType": "address",
          "name": "patient",
          "type": "address"
        },
        {
          "indexed": false,
          "internalType": "address",
          "name": "provider",
          "type": "address"
        }
      ],
      "name": "AccessRejected",
      "type": "event"
    },
    {
      "anonymous": false,
      "inputs": [
        {
          "indexed": false,
          "internalType": "address",
          "name": "patient",
          "type": "address"
        },
        {
          "indexed": false,
          "internalType": "address",
          "name": "provider",
          "type": "address"
        }
      ],
      "name": "AccessRequested",
      "type": "event"
    },
    {
      "anonymous": false,
      "inputs": [
        {
          "indexed": true,
          "internalType": "address",
          "name": "owner",
          "type": "address"
        },
        {
          "indexed": true,
          "internalType": "address",
          "name": "approved",
          "type": "address"
        },
        {
          "indexed": true,
          "internalType": "uint256",
          "name": "tokenId",
          "type": "uint256"
        }
      ],
      "name": "Approval",
      "type": "event"
    },
    {
      "anonymous": false,
      "inputs": [
        {
          "indexed": true,
          "internalType": "address",
          "name": "owner",
          "type": "address"
        },
        {
          "indexed": true,
          "internalType": "address",
          "name": "operator",
          "type": "address"
        },
        {
          "indexed": false,
          "internalType": "bool",
          "name": "approved",
          "type": "bool"
        }
      ],
      "name": "ApprovalForAll",
      "type": "event"
    },
    {
      "anonymous": false,
      "inputs": [
        {
          "indexed": true,
          "internalType": "address",
          "name": "from",
          "type": "address"
        },
        {
          "indexed": true,
          "internalType": "address",
          "name": "to",
          "type": "address"
        },
        {
          "indexed": true,
          "internalType": "uint256",
          "name": "tokenId",
          "type": "uint256"
        }
      ],
      "name": "Transfer",
      "type": "event"
    },
    {
      "inputs": [
        {
          "internalType": "address",
          "name": "",
          "type": "address"
        },
        {
          "internalType": "address",
          "name": "",
          "type": "address"
        }
      ],
      "name": "accessRequests",
      "outputs": [
        {
          "internalType": "address",
          "name": "hpprovider",
          "type": "address"
        },
        {
          "internalType": "address",
          "name": "patient",
          "type": "address"
        },
        {
          "internalType": "enum HealthCard.AccessStatus",
          "name": "status",
          "type": "uint8"
        },
        {
          "internalType": "uint256",
          "name": "expiryTime",
          "type": "uint256"
        }
      ],
      "stateMutability": "view",
      "type": "function"
    },
    {
      "inputs": [
        {
          "internalType": "address",
          "name": "to",
          "type": "address"
        },
        {
          "internalType": "uint256",
          "name": "tokenId",
          "type": "uint256"
        }
      ],
      "name": "approve",
      "outputs": [],
      "stateMutability": "nonpayable",
      "type": "function"
    },
    {
      "inputs": [
        {
          "internalType": "address",
          "name": "hprovider",
          "type": "address"
        },
        {
          "internalType": "uint256",
          "name": "duration",
          "type": "uint256"
        }
      ],
      "name": "approveAccess",
      "outputs": [],
      "stateMutability": "nonpayable",
      "type": "function"
    },
    {
      "inputs": [
        {
          "internalType": "address",
          "name": "owner",
          "type": "address"
        }
      ],
      "name": "balanceOf",
      "outputs": [
        {
          "internalType": "uint256",
          "name": "",
          "type": "uint256"
        }
      ],
      "stateMutability": "view",
      "type": "function"
    },
    {
      "inputs": [
        {
          "internalType": "string",
          "name": "_link",
          "type": "string"
        }
      ],
      "name": "changeStorageLink",
      "outputs": [],
      "stateMutability": "nonpayable",
      "type": "function"
    },
    {
      "inputs": [
        {
          "internalType": "string",
          "name": "_link",
          "type": "string"
        },
        {
          "internalType": "address",
          "name": "patient",
          "type": "address"
        }
      ],
      "name": "changeStorageLinkForHP",
      "outputs": [],
      "stateMutability": "nonpayable",
      "type": "function"
    },
    {
      "inputs": [
        {
          "internalType": "uint256",
          "name": "tokenId",
          "type": "uint256"
        }
      ],
      "name": "getApproved",
      "outputs": [
        {
          "internalType": "address",
          "name": "",
          "type": "address"
        }
      ],
      "stateMutability": "view",
      "type": "function"
    },
    {
      "inputs": [
        {
          "internalType": "string",
          "name": "idNumber",
          "type": "string"
        }
      ],
      "name": "getEmergencyContacts",
      "outputs": [
        {
          "internalType": "address[3]",
          "name": "contacts",
          "type": "address[3]"
        }
      ],
      "stateMutability": "view",
      "type": "function"
    },
    {
      "inputs": [
        {
          "internalType": "string",
          "name": "_id",
          "type": "string"
        },
        {
          "internalType": "address",
          "name": "patient",
          "type": "address"
        }
      ],
      "name": "getStorageLinkForHP",
      "outputs": [
        {
          "internalType": "string",
          "name": "",
          "type": "string"
        }
      ],
      "stateMutability": "view",
      "type": "function"
    },
    {
      "inputs": [
        {
          "internalType": "string",
          "name": "_id",
          "type": "string"
        }
      ],
      "name": "getStorageLinkPatient",
      "outputs": [
        {
          "internalType": "string",
          "name": "",
          "type": "string"
        }
      ],
      "stateMutability": "view",
      "type": "function"
    },
    {
      "inputs": [
        {
          "internalType": "address",
          "name": "owner",
          "type": "address"
        },
        {
          "internalType": "address",
          "name": "operator",
          "type": "address"
        }
      ],
      "name": "isApprovedForAll",
      "outputs": [
        {
          "internalType": "bool",
          "name": "",
          "type": "bool"
        }
      ],
      "stateMutability": "view",
      "type": "function"
    },
    {
      "inputs": [
        {
          "internalType": "address",
          "name": "userAddress",
          "type": "address"
        }
      ],
      "name": "isRegistered",
      "outputs": [
        {
          "internalType": "bool",
          "name": "",
          "type": "bool"
        }
      ],
      "stateMutability": "view",
      "type": "function"
    },
    {
      "inputs": [],
      "name": "length",
      "outputs": [
        {
          "internalType": "uint256",
          "name": "",
          "type": "uint256"
        }
      ],
      "stateMutability": "view",
      "type": "function"
    },
    {
      "inputs": [
        {
          "internalType": "string",
          "name": "_link",
          "type": "string"
        },
        {
          "internalType": "address",
          "name": "_walletAddress",
          "type": "address"
        },
        {
          "internalType": "string",
          "name": "_dateOfBirth",
          "type": "string"
        },
        {
          "internalType": "string",
          "name": "_gender",
          "type": "string"
        },
        {
          "internalType": "string",
          "name": "_bloodType",
          "type": "string"
        },
        {
          "internalType": "string",
          "name": "_IdNumber",
          "type": "string"
        }
      ],
      "name": "mintHealthCard",
      "outputs": [],
      "stateMutability": "nonpayable",
      "type": "function"
    },
    {
      "inputs": [],
      "name": "name",
      "outputs": [
        {
          "internalType": "string",
          "name": "",
          "type": "string"
        }
      ],
      "stateMutability": "view",
      "type": "function"
    },
    {
      "inputs": [
        {
          "internalType": "uint256",
          "name": "tokenId",
          "type": "uint256"
        }
      ],
      "name": "ownerOf",
      "outputs": [
        {
          "internalType": "address",
          "name": "",
          "type": "address"
        }
      ],
      "stateMutability": "view",
      "type": "function"
    },
    {
      "inputs": [
        {
          "internalType": "address",
          "name": "hprovider",
          "type": "address"
        }
      ],
      "name": "rejectAccess",
      "outputs": [],
      "stateMutability": "nonpayable",
      "type": "function"
    },
    {
      "inputs": [
        {
          "internalType": "address",
          "name": "patient",
          "type": "address"
        }
      ],
      "name": "requestAccess",
      "outputs": [],
      "stateMutability": "nonpayable",
      "type": "function"
    },
    {
      "inputs": [
        {
          "internalType": "address",
          "name": "from",
          "type": "address"
        },
        {
          "internalType": "address",
          "name": "to",
          "type": "address"
        },
        {
          "internalType": "uint256",
          "name": "tokenId",
          "type": "uint256"
        }
      ],
      "name": "safeTransferFrom",
      "outputs": [],
      "stateMutability": "nonpayable",
      "type": "function"
    },
    {
      "inputs": [
        {
          "internalType": "address",
          "name": "from",
          "type": "address"
        },
        {
          "internalType": "address",
          "name": "to",
          "type": "address"
        },
        {
          "internalType": "uint256",
          "name": "tokenId",
          "type": "uint256"
        },
        {
          "internalType": "bytes",
          "name": "data",
          "type": "bytes"
        }
      ],
      "name": "safeTransferFrom",
      "outputs": [],
      "stateMutability": "nonpayable",
      "type": "function"
    },
    {
      "inputs": [
        {
          "internalType": "address",
          "name": "operator",
          "type": "address"
        },
        {
          "internalType": "bool",
          "name": "approved",
          "type": "bool"
        }
      ],
      "name": "setApprovalForAll",
      "outputs": [],
      "stateMutability": "nonpayable",
      "type": "function"
    },
    {
      "inputs": [
        {
          "internalType": "address",
          "name": "_address",
          "type": "address"
        },
        {
          "internalType": "address[3]",
          "name": "econtacts",
          "type": "address[3]"
        }
      ],
      "name": "setEmergencyContacts",
      "outputs": [],
      "stateMutability": "nonpayable",
      "type": "function"
    },
    {
      "inputs": [
        {
          "internalType": "bytes4",
          "name": "interfaceId",
          "type": "bytes4"
        }
      ],
      "name": "supportsInterface",
      "outputs": [
        {
          "internalType": "bool",
          "name": "",
          "type": "bool"
        }
      ],
      "stateMutability": "view",
      "type": "function"
    },
    {
      "inputs": [],
      "name": "symbol",
      "outputs": [
        {
          "internalType": "string",
          "name": "",
          "type": "string"
        }
      ],
      "stateMutability": "view",
      "type": "function"
    },
    {
      "inputs": [
        {
          "internalType": "uint256",
          "name": "tokenId",
          "type": "uint256"
        }
      ],
      "name": "tokenURI",
      "outputs": [
        {
          "internalType": "string",
          "name": "",
          "type": "string"
        }
      ],
      "stateMutability": "view",
      "type": "function"
    },
    {
      "inputs": [
        {
          "internalType": "address",
          "name": "from",
          "type": "address"
        },
        {
          "internalType": "address",
          "name": "to",
          "type": "address"
        },
        {
          "internalType": "uint256",
          "name": "tokenId",
          "type": "uint256"
        }
      ],
      "name": "transferFrom",
      "outputs": [],
      "stateMutability": "nonpayable",
      "type": "function"
    }
  ],
  "bytecode": "0x60806040526001600b55604051806101000160405280600081526020016040518060400160405280600581526020017f64756d6d7900000000000000000000000000000000000000000000000000000081525081526020017320cb94e4e6b287b9f9a4af6c1b2356468ba35be373ffffffffffffffffffffffffffffffffffffffff1681526020016040518060400160405280600581526020017f64756d6d7900000000000000000000000000000000000000000000000000000081525081526020016040518060400160405280600581526020017f64756d6d7900000000000000000000000000000000000000000000000000000081525081526020016040518060400160405280600581526020017f64756d6d7900000000000000000000000000000000000000000000000000000081525081526020016040518060400160405280600581526020017f64756d6d7900000000000000000000000000000000000000000000000000000081525081526020016040518060600160405280600073ffffffffffffffffffffffffffffffffffffffff1673ffffffffffffffffffffffffffffffffffffffff168152602001600073ffffffffffffffffffffffffffffffffffffffff1673ffffffffffffffffffffffffffffffffffffffff168152602001600073ffffffffffffffffffffffffffffffffffffffff1673ffffffffffffffffffffffffffffffffffffffff16815250815250600c6000820151816000015560208201518160010190816200023b919062000727565b5060408201518160020160006101000a81548173ffffffffffffffffffffffffffffffffffffffff021916908373ffffffffffffffffffffffffffffffffffffffff16021790555060608201518160030190816200029a919062000727565b506080820151816004019081620002b2919062000727565b5060a0820151816005019081620002ca919062000727565b5060c0820151816006019081620002e2919062000727565b5060e082015181600701906003620002fc9291906200040c565b5050503480156200030c57600080fd5b506040516200569a3803806200569a833981810160405281019062000332919062000878565b6040518060400160405280600b81526020017f454865616c7468436172640000000000000000000000000000000000000000008152506040518060400160405280600381526020017f45484300000000000000000000000000000000000000000000000000000000008152508160009081620003af919062000727565b508060019081620003c1919062000727565b50505080600660006101000a81548173ffffffffffffffffffffffffffffffffffffffff021916908373ffffffffffffffffffffffffffffffffffffffff16021790555050620008aa565b82600381019282156200047b579160200282015b828111156200047a5782518260006101000a81548173ffffffffffffffffffffffffffffffffffffffff021916908373ffffffffffffffffffffffffffffffffffffffff1602179055509160200191906001019062000420565b5b5090506200048a91906200048e565b5090565b5b80821115620004a95760008160009055506001016200048f565b5090565b600081519050919050565b7f4e487b7100000000000000000000000000000000000000000000000000000000600052604160045260246000fd5b7f4e487b7100000000000000000000000000000000000000000000000000000000600052602260045260246000fd5b600060028204905060018216806200052f57607f821691505b602082108103620005455762000544620004e7565b5b50919050565b60008190508160005260206000209050919050565b60006020601f8301049050919050565b600082821b905092915050565b600060088302620005af7fffffffffffffffffffffffffffffffffffffffffffffffffffffffffffffffff8262000570565b620005bb868362000570565b95508019841693508086168417925050509392505050565b6000819050919050565b6000819050919050565b60006200060862000602620005fc84620005d3565b620005dd565b620005d3565b9050919050565b6000819050919050565b6200062483620005e7565b6200063c62000633826200060f565b8484546200057d565b825550505050565b600090565b6200065362000644565b6200066081848462000619565b505050565b5b8181101562000688576200067c60008262000649565b60018101905062000666565b5050565b601f821115620006d757620006a1816200054b565b620006ac8462000560565b81016020851015620006bc578190505b620006d4620006cb8562000560565b83018262000665565b50505b505050565b600082821c905092915050565b6000620006fc60001984600802620006dc565b1980831691505092915050565b6000620007178383620006e9565b9150826002028217905092915050565b6200073282620004ad565b67ffffffffffffffff8111156200074e576200074d620004b8565b5b6200075a825462000516565b620007678282856200068c565b600060209050601f8311600181146200079f57600084156200078a578287015190505b62000796858262000709565b86555062000806565b601f198416620007af866200054b565b60005b82811015620007d957848901518255600182019150602085019450602081019050620007b2565b86831015620007f95784890151620007f5601f891682620006e9565b8355505b6001600288020188555050505b505050505050565b600080fd5b600073ffffffffffffffffffffffffffffffffffffffff82169050919050565b6000620008408262000813565b9050919050565b620008528162000833565b81146200085e57600080fd5b50565b600081519050620008728162000847565b92915050565b6000602082840312156200089157620008906200080e565b5b6000620008a18482850162000861565b91505092915050565b614de080620008ba6000396000f3fe608060405234801561001057600080fd5b506004361061018e5760003560e01c80636352211e116100de578063ab4f232911610097578063c87b56dd11610071578063c87b56dd146104a4578063e985e9c5146104d4578063f033f41014610504578063f324072f146105345761018e565b8063ab4f232914610425578063b88d4fde14610458578063c3c5a547146104745761018e565b80636352211e1461035357806370a08231146103835780637f7190f6146103b357806395d89b41146103cf578063a2236616146103ed578063a22cb465146104095761018e565b80631f7b6d321161014b5780633141172c116101255780633141172c146102cf57806333c95355146102eb57806336bbe85b1461030757806342842e0e146103375761018e565b80631f7b6d321461027957806323b872dd14610297578063267af302146102b35761018e565b806301ffc9a714610193578063022cb271146101c357806306fdde03146101df578063081812fc146101fd578063095ea7b31461022d5780630e00512614610249575b600080fd5b6101ad60048036038101906101a891906137db565b610550565b6040516101ba9190613823565b60405180910390f35b6101dd60048036038101906101d8919061389c565b610632565b005b6101e7610909565b6040516101f49190613959565b60405180910390f35b610217600480360381019061021291906139b1565b61099b565b60405161022491906139ed565b60405180910390f35b61024760048036038101906102429190613a08565b6109b7565b005b610263600480360381019061025e9190613b7d565b6109cd565b6040516102709190613959565b60405180910390f35b610281610aee565b60405161028e9190613bd5565b60405180910390f35b6102b160048036038101906102ac9190613bf0565b610af4565b005b6102cd60048036038101906102c89190613cf9565b610bf6565b005b6102e960048036038101906102e4919061389c565b610d63565b005b61030560048036038101906103009190613d39565b61107b565b005b610321600480360381019061031c9190613b7d565b611493565b60405161032e9190613efd565b60405180910390f35b610351600480360381019061034c9190613bf0565b611600565b005b61036d600480360381019061036891906139b1565b611620565b60405161037a91906139ed565b60405180910390f35b61039d6004803603810190610398919061389c565b611632565b6040516103aa9190613bd5565b60405180910390f35b6103cd60048036038101906103c89190613f18565b6116ec565b005b6103d7611a0a565b6040516103e49190613959565b60405180910390f35b61040760048036038101906104029190613a08565b611a9c565b005b610423600480360381019061041e9190613fa0565b611dd4565b005b61043f600480360381019061043a9190613fe0565b611dea565b60405161044f9493929190614097565b60405180910390f35b610472600480360381019061046d919061417d565b611e74565b005b61048e6004803603810190610489919061389c565b611e91565b60405161049b9190613823565b60405180910390f35b6104be60048036038101906104b991906139b1565b611f3b565b6040516104cb9190613959565b60405180910390f35b6104ee60048036038101906104e99190613fe0565b611fa4565b6040516104fb9190613823565b60405180910390f35b61051e60048036038101906105199190613f18565b612038565b60405161052b9190613959565b60405180910390f35b61054e60048036038101906105499190613b7d565b6122bb565b005b60007f80ac58cd000000000000000000000000000000000000000000000000000000007bffffffffffffffffffffffffffffffffffffffffffffffffffffffff1916827bffffffffffffffffffffffffffffffffffffffffffffffffffffffff1916148061061b57507f5b5e139f000000000000000000000000000000000000000000000000000000007bffffffffffffffffffffffffffffffffffffffffffffffffffffffff1916827bffffffffffffffffffffffffffffffffffffffffffffffffffffffff1916145b8061062b575061062a82612423565b5b9050919050565b6000600381111561064657610645614020565b5b600a60003373ffffffffffffffffffffffffffffffffffffffff1673ffffffffffffffffffffffffffffffffffffffff16815260200190815260200160002060008373ffffffffffffffffffffffffffffffffffffffff1673ffffffffffffffffffffffffffffffffffffffff16815260200190815260200160002060010160149054906101000a900460ff1660038111156106e5576106e4614020565b5b14610725576040517f08c379a000000000000000000000000000000000000000000000000000000000815260040161071c9061424c565b60405180910390fd5b60405180608001604052803373ffffffffffffffffffffffffffffffffffffffff1681526020018273ffffffffffffffffffffffffffffffffffffffff1681526020016001600381111561077c5761077b614020565b5b81526020016000815250600a60003373ffffffffffffffffffffffffffffffffffffffff1673ffffffffffffffffffffffffffffffffffffffff16815260200190815260200160002060008373ffffffffffffffffffffffffffffffffffffffff1673ffffffffffffffffffffffffffffffffffffffff16815260200190815260200160002060008201518160000160006101000a81548173ffffffffffffffffffffffffffffffffffffffff021916908373ffffffffffffffffffffffffffffffffffffffff16021790555060208201518160010160006101000a81548173ffffffffffffffffffffffffffffffffffffffff021916908373ffffffffffffffffffffffffffffffffffffffff16021790555060408201518160010160146101000a81548160ff021916908360038111156108bb576108ba614020565b5b0217905550606082015181600201559050507f40c7749b16fdfb0d550f20273a7767875059d647af94f5a9610c63ad73dcc79f33826040516108fe92919061426c565b60405180910390a150565b606060008054610918906142c4565b80601f0160208091040260200160405190810160405280929190818152602001828054610944906142c4565b80156109915780601f1061096657610100808354040283529160200191610991565b820191906000526020600020905b81548152906001019060200180831161097457829003601f168201915b5050505050905090565b60006109a68261248d565b506109b082612515565b9050919050565b6109c982826109c4612552565b61255a565b5050565b606060006009836040516109e19190614331565b908152602001604051809103902060009054906101000a900473ffffffffffffffffffffffffffffffffffffffff169050600073ffffffffffffffffffffffffffffffffffffffff168173ffffffffffffffffffffffffffffffffffffffff1603610a84576040518060400160405280601681526020017f75736572206973206e6f74207265676973746572656400000000000000000000815250915050610ae9565b8073ffffffffffffffffffffffffffffffffffffffff163373ffffffffffffffffffffffffffffffffffffffff1614610ad857604051806060016040528060268152602001614d8560269139915050610ae9565b610ae18161256c565b602001519150505b919050565b600b5481565b600073ffffffffffffffffffffffffffffffffffffffff168273ffffffffffffffffffffffffffffffffffffffff1603610b665760006040517f64a0ae92000000000000000000000000000000000000000000000000000000008152600401610b5d91906139ed565b60405180910390fd5b6000610b7a8383610b75612552565b612a5a565b90508373ffffffffffffffffffffffffffffffffffffffff168173ffffffffffffffffffffffffffffffffffffffff1614610bf0578382826040517f64283d7b000000000000000000000000000000000000000000000000000000008152600401610be793929190614348565b60405180910390fd5b50505050565b600660009054906101000a900473ffffffffffffffffffffffffffffffffffffffff1673ffffffffffffffffffffffffffffffffffffffff163373ffffffffffffffffffffffffffffffffffffffff1614610c5057600080fd5b6003801115610c94576040517f08c379a0000000000000000000000000000000000000000000000000000000008152600401610c8b906143cb565b60405180910390fd5b60005b6003811015610d5e57818160038110610cb357610cb26143eb565b5b6020020151600860008573ffffffffffffffffffffffffffffffffffffffff1673ffffffffffffffffffffffffffffffffffffffff1681526020019081526020016000206007018260038110610d0c57610d0b6143eb565b5b0160006101000a81548173ffffffffffffffffffffffffffffffffffffffff021916908373ffffffffffffffffffffffffffffffffffffffff1602179055508080610d5690614449565b915050610c97565b505050565b338073ffffffffffffffffffffffffffffffffffffffff163373ffffffffffffffffffffffffffffffffffffffff1614610dd2576040517f08c379a0000000000000000000000000000000000000000000000000000000008152600401610dc990614503565b60405180910390fd5b600073ffffffffffffffffffffffffffffffffffffffff16600860008373ffffffffffffffffffffffffffffffffffffffff1673ffffffffffffffffffffffffffffffffffffffff16815260200190815260200160002060020160009054906101000a900473ffffffffffffffffffffffffffffffffffffffff1673ffffffffffffffffffffffffffffffffffffffff1603610ea3576040517f08c379a0000000000000000000000000000000000000000000000000000000008152600401610e9a90614595565b60405180910390fd5b60016003811115610eb757610eb6614020565b5b600a60008473ffffffffffffffffffffffffffffffffffffffff1673ffffffffffffffffffffffffffffffffffffffff16815260200190815260200160002060003373ffffffffffffffffffffffffffffffffffffffff1673ffffffffffffffffffffffffffffffffffffffff16815260200190815260200160002060010160149054906101000a900460ff166003811115610f5657610f55614020565b5b14610f96576040517f08c379a0000000000000000000000000000000000000000000000000000000008152600401610f8d90614601565b60405180910390fd5b6003600a60008473ffffffffffffffffffffffffffffffffffffffff1673ffffffffffffffffffffffffffffffffffffffff16815260200190815260200160002060003373ffffffffffffffffffffffffffffffffffffffff1673ffffffffffffffffffffffffffffffffffffffff16815260200190815260200160002060010160146101000a81548160ff0219169083600381111561103957611038614020565b5b02179055507f6586985f73a63d005b52bd5a5791732c40ec70b8fc067ab89f5c402185f0c6ea338360405161106f92919061426c565b60405180910390a15050565b600660009054906101000a900473ffffffffffffffffffffffffffffffffffffffff1673ffffffffffffffffffffffffffffffffffffffff163373ffffffffffffffffffffffffffffffffffffffff16146110d557600080fd5b6000604051806101000160405280600b5481526020018881526020018773ffffffffffffffffffffffffffffffffffffffff1681526020018681526020018581526020018481526020018381526020016040518060600160405280600073ffffffffffffffffffffffffffffffffffffffff1673ffffffffffffffffffffffffffffffffffffffff168152602001600073ffffffffffffffffffffffffffffffffffffffff1673ffffffffffffffffffffffffffffffffffffffff168152602001600073ffffffffffffffffffffffffffffffffffffffff1673ffffffffffffffffffffffffffffffffffffffff1681525081525090506000600b549050600b60008154809291906111e690614449565b919050555060078290806001815401808255809150506001900390600052602060002090600a020160009091909190915060008201518160000155602082015181600101908161123691906147cd565b5060408201518160020160006101000a81548173ffffffffffffffffffffffffffffffffffffffff021916908373ffffffffffffffffffffffffffffffffffffffff160217905550606082015181600301908161129391906147cd565b5060808201518160040190816112a991906147cd565b5060a08201518160050190816112bf91906147cd565b5060c08201518160060190816112d591906147cd565b5060e0820151816007019060036112ed929190613652565b50505081600860008973ffffffffffffffffffffffffffffffffffffffff1673ffffffffffffffffffffffffffffffffffffffff16815260200190815260200160002060008201518160000155602082015181600101908161134f91906147cd565b5060408201518160020160006101000a81548173ffffffffffffffffffffffffffffffffffffffff021916908373ffffffffffffffffffffffffffffffffffffffff16021790555060608201518160030190816113ac91906147cd565b5060808201518160040190816113c291906147cd565b5060a08201518160050190816113d891906147cd565b5060c08201518160060190816113ee91906147cd565b5060e082015181600701906003611406929190613652565b509050508660098460405161141b9190614331565b908152602001604051809103902060006101000a81548173ffffffffffffffffffffffffffffffffffffffff021916908373ffffffffffffffffffffffffffffffffffffffff1602179055506114718782612c74565b600b600081548092919061148490614449565b91905055505050505050505050565b61149b6136cf565b60006009836040516114ad9190614331565b908152602001604051809103902060009054906101000a900473ffffffffffffffffffffffffffffffffffffffff16905060006114e98261256c565b90506040516020016114fa906148eb565b6040516020818303038152906040528051906020012081602001516040516020016115259190614331565b60405160208183030381529060405280519060200120036115f15760006040518060600160405280600073ffffffffffffffffffffffffffffffffffffffff1673ffffffffffffffffffffffffffffffffffffffff168152602001600073ffffffffffffffffffffffffffffffffffffffff1673ffffffffffffffffffffffffffffffffffffffff168152602001600073ffffffffffffffffffffffffffffffffffffffff1673ffffffffffffffffffffffffffffffffffffffff1681525090508093505050506115fb565b8060e00151925050505b919050565b61161b83838360405180602001604052806000815250611e74565b505050565b600061162b8261248d565b9050919050565b60008073ffffffffffffffffffffffffffffffffffffffff168273ffffffffffffffffffffffffffffffffffffffff16036116a55760006040517f89c62b6400000000000000000000000000000000000000000000000000000000815260040161169c91906139ed565b60405180910390fd5b600360008373ffffffffffffffffffffffffffffffffffffffff1673ffffffffffffffffffffffffffffffffffffffff168152602001908152602001600020549050919050565b600060078054905011611734576040517f08c379a000000000000000000000000000000000000000000000000000000000815260040161172b9061494c565b60405180910390fd5b60405160200161174390614992565b60405160208183030381529060405280519060200120600860008373ffffffffffffffffffffffffffffffffffffffff1673ffffffffffffffffffffffffffffffffffffffff1681526020019081526020016000206001016040516020016117ab9190614a2a565b6040516020818303038152906040528051906020012003611801576040517f08c379a00000000000000000000000000000000000000000000000000000000081526004016117f890614a8d565b60405180910390fd5b6002600381111561181557611814614020565b5b600a60003373ffffffffffffffffffffffffffffffffffffffff1673ffffffffffffffffffffffffffffffffffffffff16815260200190815260200160002060008373ffffffffffffffffffffffffffffffffffffffff1673ffffffffffffffffffffffffffffffffffffffff16815260200190815260200160002060010160149054906101000a900460ff1660038111156118b4576118b3614020565b5b146118f4576040517f08c379a00000000000000000000000000000000000000000000000000000000081526004016118eb90614af9565b60405180910390fd5b600a60003373ffffffffffffffffffffffffffffffffffffffff1673ffffffffffffffffffffffffffffffffffffffff16815260200190815260200160002060008273ffffffffffffffffffffffffffffffffffffffff1673ffffffffffffffffffffffffffffffffffffffff168152602001908152602001600020600201544211156119b6576040517f08c379a00000000000000000000000000000000000000000000000000000000081526004016119ad90614b65565b60405180910390fd5b81600860008373ffffffffffffffffffffffffffffffffffffffff1673ffffffffffffffffffffffffffffffffffffffff1681526020019081526020016000206001019081611a0591906147cd565b505050565b606060018054611a19906142c4565b80601f0160208091040260200160405190810160405280929190818152602001828054611a45906142c4565b8015611a925780601f10611a6757610100808354040283529160200191611a92565b820191906000526020600020905b815481529060010190602001808311611a7557829003601f168201915b5050505050905090565b60016003811115611ab057611aaf614020565b5b600a60008473ffffffffffffffffffffffffffffffffffffffff1673ffffffffffffffffffffffffffffffffffffffff16815260200190815260200160002060003373ffffffffffffffffffffffffffffffffffffffff1673ffffffffffffffffffffffffffffffffffffffff16815260200190815260200160002060010160149054906101000a900460ff166003811115611b4f57611b4e614020565b5b14611b8f576040517f08c379a0000000000000000000000000000000000000000000000000000000008152600401611b8690614601565b60405180910390fd5b600073ffffffffffffffffffffffffffffffffffffffff16600860003373ffffffffffffffffffffffffffffffffffffffff1673ffffffffffffffffffffffffffffffffffffffff16815260200190815260200160002060020160009054906101000a900473ffffffffffffffffffffffffffffffffffffffff1673ffffffffffffffffffffffffffffffffffffffff1603611c60576040517f08c379a0000000000000000000000000000000000000000000000000000000008152600401611c5790614bd1565b60405180910390fd5b6002600a60008473ffffffffffffffffffffffffffffffffffffffff1673ffffffffffffffffffffffffffffffffffffffff16815260200190815260200160002060003373ffffffffffffffffffffffffffffffffffffffff1673ffffffffffffffffffffffffffffffffffffffff16815260200190815260200160002060010160146101000a81548160ff02191690836003811115611d0357611d02614020565b5b02179055508042611d149190614bf1565b600a60008473ffffffffffffffffffffffffffffffffffffffff1673ffffffffffffffffffffffffffffffffffffffff16815260200190815260200160002060003373ffffffffffffffffffffffffffffffffffffffff1673ffffffffffffffffffffffffffffffffffffffff168152602001908152602001600020600201819055507fe6334627d2d1b816244f24397d90a02beea6f06a64333958f2fca9a73f84266d3383604051611dc892919061426c565b60405180910390a15050565b611de6611ddf612552565b8383612d6d565b5050565b600a602052816000526040600020602052806000526040600020600091509150508060000160009054906101000a900473ffffffffffffffffffffffffffffffffffffffff16908060010160009054906101000a900473ffffffffffffffffffffffffffffffffffffffff16908060010160149054906101000a900460ff16908060020154905084565b611e7f848484610af4565b611e8b84848484612edc565b50505050565b60008073ffffffffffffffffffffffffffffffffffffffff16600860008473ffffffffffffffffffffffffffffffffffffffff1673ffffffffffffffffffffffffffffffffffffffff16815260200190815260200160002060020160009054906101000a900473ffffffffffffffffffffffffffffffffffffffff1673ffffffffffffffffffffffffffffffffffffffff1603611f315760009050611f36565b600190505b919050565b6060611f468261248d565b506000611f51613093565b90506000815111611f715760405180602001604052806000815250611f9c565b80611f7b846130aa565b604051602001611f8c929190614c25565b6040516020818303038152906040525b915050919050565b6000600560008473ffffffffffffffffffffffffffffffffffffffff1673ffffffffffffffffffffffffffffffffffffffff16815260200190815260200160002060008373ffffffffffffffffffffffffffffffffffffffff1673ffffffffffffffffffffffffffffffffffffffff16815260200190815260200160002060009054906101000a900460ff16905092915050565b60606002600381111561204e5761204d614020565b5b600a60003373ffffffffffffffffffffffffffffffffffffffff1673ffffffffffffffffffffffffffffffffffffffff16815260200190815260200160002060008473ffffffffffffffffffffffffffffffffffffffff1673ffffffffffffffffffffffffffffffffffffffff16815260200190815260200160002060010160149054906101000a900460ff1660038111156120ed576120ec614020565b5b1461212d576040517f08c379a000000000000000000000000000000000000000000000000000000000815260040161212490614af9565b60405180910390fd5b600a60003373ffffffffffffffffffffffffffffffffffffffff1673ffffffffffffffffffffffffffffffffffffffff16815260200190815260200160002060008373ffffffffffffffffffffffffffffffffffffffff1673ffffffffffffffffffffffffffffffffffffffff168152602001908152602001600020600201544211156121ef576040517f08c379a00000000000000000000000000000000000000000000000000000000081526004016121e690614b65565b60405180910390fd5b60006009846040516122019190614331565b908152602001604051809103902060009054906101000a900473ffffffffffffffffffffffffffffffffffffffff169050600073ffffffffffffffffffffffffffffffffffffffff168173ffffffffffffffffffffffffffffffffffffffff16036122a4576040518060400160405280601681526020017f75736572206973206e6f742072656769737465726564000000000000000000008152509150506122b5565b6122ad8161256c565b602001519150505b92915050565b600060078054905011612303576040517f08c379a00000000000000000000000000000000000000000000000000000000081526004016122fa9061494c565b60405180910390fd5b60405160200161231290614992565b60405160208183030381529060405280519060200120600860003373ffffffffffffffffffffffffffffffffffffffff1673ffffffffffffffffffffffffffffffffffffffff16815260200190815260200160002060010160405160200161237a9190614a2a565b60405160208183030381529060405280519060200120036123d0576040517f08c379a00000000000000000000000000000000000000000000000000000000081526004016123c790614a8d565b60405180910390fd5b80600860003373ffffffffffffffffffffffffffffffffffffffff1673ffffffffffffffffffffffffffffffffffffffff168152602001908152602001600020600101908161241f91906147cd565b5050565b60007f01ffc9a7000000000000000000000000000000000000000000000000000000007bffffffffffffffffffffffffffffffffffffffffffffffffffffffff1916827bffffffffffffffffffffffffffffffffffffffffffffffffffffffff1916149050919050565b60008061249983613178565b9050600073ffffffffffffffffffffffffffffffffffffffff168173ffffffffffffffffffffffffffffffffffffffff160361250c57826040517f7e2732890000000000000000000000000000000000000000000000000000000081526004016125039190613bd5565b60405180910390fd5b80915050919050565b60006004600083815260200190815260200160002060009054906101000a900473ffffffffffffffffffffffffffffffffffffffff169050919050565b600033905090565b61256783838360016131b5565b505050565b6125746136f1565b60006007805490501161258657600080fd5b60405160200161259590614992565b60405160208183030381529060405280519060200120600860008473ffffffffffffffffffffffffffffffffffffffff1673ffffffffffffffffffffffffffffffffffffffff1681526020019081526020016000206001016040516020016125fd9190614a2a565b6040516020818303038152906040528051906020012003612653576040517f08c379a000000000000000000000000000000000000000000000000000000000815260040161264a90614a8d565b60405180910390fd5b600860008373ffffffffffffffffffffffffffffffffffffffff1673ffffffffffffffffffffffffffffffffffffffff16815260200190815260200160002060405180610100016040529081600082015481526020016001820180546126b8906142c4565b80601f01602080910402602001604051908101604052809291908181526020018280546126e4906142c4565b80156127315780601f1061270657610100808354040283529160200191612731565b820191906000526020600020905b81548152906001019060200180831161271457829003601f168201915b505050505081526020016002820160009054906101000a900473ffffffffffffffffffffffffffffffffffffffff1673ffffffffffffffffffffffffffffffffffffffff1673ffffffffffffffffffffffffffffffffffffffff1681526020016003820180546127a0906142c4565b80601f01602080910402602001604051908101604052809291908181526020018280546127cc906142c4565b80156128195780601f106127ee57610100808354040283529160200191612819565b820191906000526020600020905b8154815290600101906020018083116127fc57829003601f168201915b50505050508152602001600482018054612832906142c4565b80601f016020809104026020016040519081016040528092919081815260200182805461285e906142c4565b80156128ab5780601f10612880576101008083540402835291602001916128ab565b820191906000526020600020905b81548152906001019060200180831161288e57829003601f168201915b505050505081526020016005820180546128c4906142c4565b80601f01602080910402602001604051908101604052809291908181526020018280546128f0906142c4565b801561293d5780601f106129125761010080835404028352916020019161293d565b820191906000526020600020905b81548152906001019060200180831161292057829003601f168201915b50505050508152602001600682018054612956906142c4565b80601f0160208091040260200160405190810160405280929190818152602001828054612982906142c4565b80156129cf5780601f106129a4576101008083540402835291602001916129cf565b820191906000526020600020905b8154815290600101906020018083116129b257829003601f168201915b5050505050815260200160078201600380602002604051908101604052809291908260038015612a4a576020028201915b8160009054906101000a900473ffffffffffffffffffffffffffffffffffffffff1673ffffffffffffffffffffffffffffffffffffffff1681526020019060010190808311612a00575b5050505050815250509050919050565b600080612a6684613178565b9050600073ffffffffffffffffffffffffffffffffffffffff168373ffffffffffffffffffffffffffffffffffffffff1614612aa857612aa781848661337a565b5b600073ffffffffffffffffffffffffffffffffffffffff168173ffffffffffffffffffffffffffffffffffffffff1614612b3957612aea6000856000806131b5565b6001600360008373ffffffffffffffffffffffffffffffffffffffff1673ffffffffffffffffffffffffffffffffffffffff168152602001908152602001600020600082825403925050819055505b600073ffffffffffffffffffffffffffffffffffffffff168573ffffffffffffffffffffffffffffffffffffffff1614612bbc576001600360008773ffffffffffffffffffffffffffffffffffffffff1673ffffffffffffffffffffffffffffffffffffffff168152602001908152602001600020600082825401925050819055505b846002600086815260200190815260200160002060006101000a81548173ffffffffffffffffffffffffffffffffffffffff021916908373ffffffffffffffffffffffffffffffffffffffff160217905550838573ffffffffffffffffffffffffffffffffffffffff168273ffffffffffffffffffffffffffffffffffffffff167fddf252ad1be2c89b69c2b068fc378daa952ba7f163c4a11628f55a4df523b3ef60405160405180910390a4809150509392505050565b600073ffffffffffffffffffffffffffffffffffffffff168273ffffffffffffffffffffffffffffffffffffffff1603612ce65760006040517f64a0ae92000000000000000000000000000000000000000000000000000000008152600401612cdd91906139ed565b60405180910390fd5b6000612cf483836000612a5a565b9050600073ffffffffffffffffffffffffffffffffffffffff168173ffffffffffffffffffffffffffffffffffffffff1614612d685760006040517f73c6ac6e000000000000000000000000000000000000000000000000000000008152600401612d5f91906139ed565b60405180910390fd5b505050565b600073ffffffffffffffffffffffffffffffffffffffff168273ffffffffffffffffffffffffffffffffffffffff1603612dde57816040517f5b08ba18000000000000000000000000000000000000000000000000000000008152600401612dd591906139ed565b60405180910390fd5b80600560008573ffffffffffffffffffffffffffffffffffffffff1673ffffffffffffffffffffffffffffffffffffffff16815260200190815260200160002060008473ffffffffffffffffffffffffffffffffffffffff1673ffffffffffffffffffffffffffffffffffffffff16815260200190815260200160002060006101000a81548160ff0219169083151502179055508173ffffffffffffffffffffffffffffffffffffffff168373ffffffffffffffffffffffffffffffffffffffff167f17307eab39ab6107e8899845ad3d59bd9653f200f220920489ca2b5937696c3183604051612ecf9190613823565b60405180910390a3505050565b60008373ffffffffffffffffffffffffffffffffffffffff163b111561308d578273ffffffffffffffffffffffffffffffffffffffff1663150b7a02612f20612552565b8685856040518563ffffffff1660e01b8152600401612f429493929190614c9e565b6020604051808303816000875af1925050508015612f7e57506040513d601f19601f82011682018060405250810190612f7b9190614cff565b60015b613002573d8060008114612fae576040519150601f19603f3d011682016040523d82523d6000602084013e612fb3565b606091505b506000815103612ffa57836040517f64a0ae92000000000000000000000000000000000000000000000000000000008152600401612ff191906139ed565b60405180910390fd5b805181602001fd5b63150b7a0260e01b7bffffffffffffffffffffffffffffffffffffffffffffffffffffffff1916817bffffffffffffffffffffffffffffffffffffffffffffffffffffffff19161461308b57836040517f64a0ae9200000000000000000000000000000000000000000000000000000000815260040161308291906139ed565b60405180910390fd5b505b50505050565b606060405180602001604052806000815250905090565b6060600060016130b98461343e565b01905060008167ffffffffffffffff8111156130d8576130d7613a52565b5b6040519080825280601f01601f19166020018201604052801561310a5781602001600182028036833780820191505090505b509050600082602001820190505b60011561316d578080600190039150507f3031323334353637383961626364656600000000000000000000000000000000600a86061a8153600a858161316157613160614d2c565b5b04945060008503613118575b819350505050919050565b60006002600083815260200190815260200160002060009054906101000a900473ffffffffffffffffffffffffffffffffffffffff169050919050565b80806131ee5750600073ffffffffffffffffffffffffffffffffffffffff168273ffffffffffffffffffffffffffffffffffffffff1614155b156133225760006131fe8461248d565b9050600073ffffffffffffffffffffffffffffffffffffffff168373ffffffffffffffffffffffffffffffffffffffff161415801561326957508273ffffffffffffffffffffffffffffffffffffffff168173ffffffffffffffffffffffffffffffffffffffff1614155b801561327c575061327a8184611fa4565b155b156132be57826040517fa9fbf51f0000000000000000000000000000000000000000000000000000000081526004016132b591906139ed565b60405180910390fd5b811561332057838573ffffffffffffffffffffffffffffffffffffffff168273ffffffffffffffffffffffffffffffffffffffff167f8c5be1e5ebec7d5bd14f71427d1e84f3dd0314c0f7b2291e5b200ac8c7c3b92560405160405180910390a45b505b836004600085815260200190815260200160002060006101000a81548173ffffffffffffffffffffffffffffffffffffffff021916908373ffffffffffffffffffffffffffffffffffffffff16021790555050505050565b613385838383613591565b61343957600073ffffffffffffffffffffffffffffffffffffffff168373ffffffffffffffffffffffffffffffffffffffff16036133fa57806040517f7e2732890000000000000000000000000000000000000000000000000000000081526004016133f19190613bd5565b60405180910390fd5b81816040517f177e802f000000000000000000000000000000000000000000000000000000008152600401613430929190614d5b565b60405180910390fd5b505050565b600080600090507a184f03e93ff9f4daa797ed6e38ed64bf6a1f010000000000000000831061349c577a184f03e93ff9f4daa797ed6e38ed64bf6a1f010000000000000000838161349257613491614d2c565b5b0492506040810190505b6d04ee2d6d415b85acef810000000083106134d9576d04ee2d6d415b85acef810000000083816134cf576134ce614d2c565b5b0492506020810190505b662386f26fc10000831061350857662386f26fc1000083816134fe576134fd614d2c565b5b0492506010810190505b6305f5e1008310613531576305f5e100838161352757613526614d2c565b5b0492506008810190505b612710831061355657612710838161354c5761354b614d2c565b5b0492506004810190505b60648310613579576064838161356f5761356e614d2c565b5b0492506002810190505b600a8310613588576001810190505b80915050919050565b60008073ffffffffffffffffffffffffffffffffffffffff168373ffffffffffffffffffffffffffffffffffffffff161415801561364957508273ffffffffffffffffffffffffffffffffffffffff168473ffffffffffffffffffffffffffffffffffffffff16148061360a57506136098484611fa4565b5b8061364857508273ffffffffffffffffffffffffffffffffffffffff1661363083612515565b73ffffffffffffffffffffffffffffffffffffffff16145b5b90509392505050565b82600381019282156136be579160200282015b828111156136bd5782518260006101000a81548173ffffffffffffffffffffffffffffffffffffffff021916908373ffffffffffffffffffffffffffffffffffffffff16021790555091602001919060010190613665565b5b5090506136cb9190613752565b5090565b6040518060600160405280600390602082028036833780820191505090505090565b6040518061010001604052806000815260200160608152602001600073ffffffffffffffffffffffffffffffffffffffff1681526020016060815260200160608152602001606081526020016060815260200161374c6136cf565b81525090565b5b8082111561376b576000816000905550600101613753565b5090565b6000604051905090565b600080fd5b600080fd5b60007fffffffff0000000000000000000000000000000000000000000000000000000082169050919050565b6137b881613783565b81146137c357600080fd5b50565b6000813590506137d5816137af565b92915050565b6000602082840312156137f1576137f0613779565b5b60006137ff848285016137c6565b91505092915050565b60008115159050919050565b61381d81613808565b82525050565b60006020820190506138386000830184613814565b92915050565b600073ffffffffffffffffffffffffffffffffffffffff82169050919050565b60006138698261383e565b9050919050565b6138798161385e565b811461388457600080fd5b50565b60008135905061389681613870565b92915050565b6000602082840312156138b2576138b1613779565b5b60006138c084828501613887565b91505092915050565b600081519050919050565b600082825260208201905092915050565b60005b838110156139035780820151818401526020810190506138e8565b60008484015250505050565b6000601f19601f8301169050919050565b600061392b826138c9565b61393581856138d4565b93506139458185602086016138e5565b61394e8161390f565b840191505092915050565b600060208201905081810360008301526139738184613920565b905092915050565b6000819050919050565b61398e8161397b565b811461399957600080fd5b50565b6000813590506139ab81613985565b92915050565b6000602082840312156139c7576139c6613779565b5b60006139d58482850161399c565b91505092915050565b6139e78161385e565b82525050565b6000602082019050613a0260008301846139de565b92915050565b60008060408385031215613a1f57613a1e613779565b5b6000613a2d85828601613887565b9250506020613a3e8582860161399c565b9150509250929050565b600080fd5b600080fd5b7f4e487b7100000000000000000000000000000000000000000000000000000000600052604160045260246000fd5b613a8a8261390f565b810181811067ffffffffffffffff82111715613aa957613aa8613a52565b5b80604052505050565b6000613abc61376f565b9050613ac88282613a81565b919050565b600067ffffffffffffffff821115613ae857613ae7613a52565b5b613af18261390f565b9050602081019050919050565b82818337600083830152505050565b6000613b20613b1b84613acd565b613ab2565b905082815260208101848484011115613b3c57613b3b613a4d565b5b613b47848285613afe565b509392505050565b600082601f830112613b6457613b63613a48565b5b8135613b74848260208601613b0d565b91505092915050565b600060208284031215613b9357613b92613779565b5b600082013567ffffffffffffffff811115613bb157613bb061377e565b5b613bbd84828501613b4f565b91505092915050565b613bcf8161397b565b82525050565b6000602082019050613bea6000830184613bc6565b92915050565b600080600060608486031215613c0957613c08613779565b5b6000613c1786828701613887565b9350506020613c2886828701613887565b9250506040613c398682870161399c565b9150509250925092565b600067ffffffffffffffff821115613c5e57613c5d613a52565b5b602082029050919050565b600080fd5b6000613c81613c7c84613c43565b613ab2565b90508060208402830185811115613c9b57613c9a613c69565b5b835b81811015613cc45780613cb08882613887565b845260208401935050602081019050613c9d565b5050509392505050565b600082601f830112613ce357613ce2613a48565b5b6003613cf0848285613c6e565b91505092915050565b60008060808385031215613d1057613d0f613779565b5b6000613d1e85828601613887565b9250506020613d2f85828601613cce565b9150509250929050565b60008060008060008060c08789031215613d5657613d55613779565b5b600087013567ffffffffffffffff811115613d7457613d7361377e565b5b613d8089828a01613b4f565b9650506020613d9189828a01613887565b955050604087013567ffffffffffffffff811115613db257613db161377e565b5b613dbe89828a01613b4f565b945050606087013567ffffffffffffffff811115613ddf57613dde61377e565b5b613deb89828a01613b4f565b935050608087013567ffffffffffffffff811115613e0c57613e0b61377e565b5b613e1889828a01613b4f565b92505060a087013567ffffffffffffffff811115613e3957613e3861377e565b5b613e4589828a01613b4f565b9150509295509295509295565b600060039050919050565b600081905092915050565b6000819050919050565b613e7b8161385e565b82525050565b6000613e8d8383613e72565b60208301905092915050565b6000602082019050919050565b613eaf81613e52565b613eb98184613e5d565b9250613ec482613e68565b8060005b83811015613ef5578151613edc8782613e81565b9650613ee783613e99565b925050600181019050613ec8565b505050505050565b6000606082019050613f126000830184613ea6565b92915050565b60008060408385031215613f2f57613f2e613779565b5b600083013567ffffffffffffffff811115613f4d57613f4c61377e565b5b613f5985828601613b4f565b9250506020613f6a85828601613887565b9150509250929050565b613f7d81613808565b8114613f8857600080fd5b50565b600081359050613f9a81613f74565b92915050565b60008060408385031215613fb757613fb6613779565b5b6000613fc585828601613887565b9250506020613fd685828601613f8b565b9150509250929050565b60008060408385031215613ff757613ff6613779565b5b600061400585828601613887565b925050602061401685828601613887565b9150509250929050565b7f4e487b7100000000000000000000000000000000000000000000000000000000600052602160045260246000fd5b600481106140605761405f614020565b5b50565b60008190506140718261404f565b919050565b600061408182614063565b9050919050565b61409181614076565b82525050565b60006080820190506140ac60008301876139de565b6140b960208301866139de565b6140c66040830185614088565b6140d36060830184613bc6565b95945050505050565b600067ffffffffffffffff8211156140f7576140f6613a52565b5b6141008261390f565b9050602081019050919050565b600061412061411b846140dc565b613ab2565b90508281526020810184848401111561413c5761413b613a4d565b5b614147848285613afe565b509392505050565b600082601f83011261416457614163613a48565b5b813561417484826020860161410d565b91505092915050565b6000806000806080858703121561419757614196613779565b5b60006141a587828801613887565b94505060206141b687828801613887565b93505060406141c78782880161399c565b925050606085013567ffffffffffffffff8111156141e8576141e761377e565b5b6141f48782880161414f565b91505092959194509250565b7f416363657373207265717565737420616c726561647920657869737473000000600082015250565b6000614236601d836138d4565b915061424182614200565b602082019050919050565b6000602082019050818103600083015261426581614229565b9050919050565b600060408201905061428160008301856139de565b61428e60208301846139de565b9392505050565b7f4e487b7100000000000000000000000000000000000000000000000000000000600052602260045260246000fd5b600060028204905060018216806142dc57607f821691505b6020821081036142ef576142ee614295565b5b50919050565b600081905092915050565b600061430b826138c9565b61431581856142f5565b93506143258185602086016138e5565b80840191505092915050565b600061433d8284614300565b915081905092915050565b600060608201905061435d60008301866139de565b61436a6020830185613bc6565b61437760408301846139de565b949350505050565b7f546f6f206d616e7920656d657267656e637920636f6e74616374730000000000600082015250565b60006143b5601b836138d4565b91506143c08261437f565b602082019050919050565b600060208201905081810360008301526143e4816143a8565b9050919050565b7f4e487b7100000000000000000000000000000000000000000000000000000000600052603260045260246000fd5b7f4e487b7100000000000000000000000000000000000000000000000000000000600052601160045260246000fd5b60006144548261397b565b91507fffffffffffffffffffffffffffffffffffffffffffffffffffffffffffffffff82036144865761448561441a565b5b600182019050919050565b7f4f6e6c79207468652070617469656e742063616e2063616c6c2074686973206660008201527f756e6374696f6e00000000000000000000000000000000000000000000000000602082015250565b60006144ed6027836138d4565b91506144f882614491565b604082019050919050565b6000602082019050818103600083015261451c816144e0565b9050919050565b7f75736572206973206e6f7420612070617469656e74206f7220646f65736e742060008201527f686176652061206d65646963616c206361726400000000000000000000000000602082015250565b600061457f6033836138d4565b915061458a82614523565b604082019050919050565b600060208201905081810360008301526145ae81614572565b9050919050565b7f4e6f2070656e64696e6720616363657373207265717565737400000000000000600082015250565b60006145eb6019836138d4565b91506145f6826145b5565b602082019050919050565b6000602082019050818103600083015261461a816145de565b9050919050565b60008190508160005260206000209050919050565b60006020601f8301049050919050565b600082821b905092915050565b6000600883026146837fffffffffffffffffffffffffffffffffffffffffffffffffffffffffffffffff82614646565b61468d8683614646565b95508019841693508086168417925050509392505050565b6000819050919050565b60006146ca6146c56146c08461397b565b6146a5565b61397b565b9050919050565b6000819050919050565b6146e4836146af565b6146f86146f0826146d1565b848454614653565b825550505050565b600090565b61470d614700565b6147188184846146db565b505050565b5b8181101561473c57614731600082614705565b60018101905061471e565b5050565b601f8211156147815761475281614621565b61475b84614636565b8101602085101561476a578190505b61477e61477685614636565b83018261471d565b50505b505050565b600082821c905092915050565b60006147a460001984600802614786565b1980831691505092915050565b60006147bd8383614793565b9150826002028217905092915050565b6147d6826138c9565b67ffffffffffffffff8111156147ef576147ee613a52565b5b6147f982546142c4565b614804828285614740565b600060209050601f8311600181146148375760008415614825578287015190505b61482f85826147b1565b865550614897565b601f19841661484586614621565b60005b8281101561486d57848901518255600182019150602085019450602081019050614848565b8683101561488a5784890151614886601f891682614793565b8355505b6001600288020188555050505b505050505050565b7f64756d6d79000000000000000000000000000000000000000000000000000000600082015250565b60006148d56005836142f5565b91506148e08261489f565b600582019050919050565b60006148f6826148c8565b9150819050919050565b7f7468657265206973206e6f207265676973746572656420757365727300000000600082015250565b6000614936601c836138d4565b915061494182614900565b602082019050919050565b6000602082019050818103600083015261496581614929565b9050919050565b50565b600061497c6000836142f5565b91506149878261496c565b600082019050919050565b600061499d8261496f565b9150819050919050565b600081546149b4816142c4565b6149be81866142f5565b945060018216600081146149d957600181146149ee57614a21565b60ff1983168652811515820286019350614a21565b6149f785614621565b60005b83811015614a19578154818901526001820191506020810190506149fa565b838801955050505b50505092915050565b6000614a3682846149a7565b915081905092915050565b7f5573657220686173206e6f206865616c74682063617264000000000000000000600082015250565b6000614a776017836138d4565b9150614a8282614a41565b602082019050919050565b60006020820190508181036000830152614aa681614a6a565b9050919050565b7f416363657373206e6f7420617070726f76656400000000000000000000000000600082015250565b6000614ae36013836138d4565b9150614aee82614aad565b602082019050919050565b60006020820190508181036000830152614b1281614ad6565b9050919050565b7f4163636573732068617320657870697265640000000000000000000000000000600082015250565b6000614b4f6012836138d4565b9150614b5a82614b19565b602082019050919050565b60006020820190508181036000830152614b7e81614b42565b9050919050565b7f7573657220686173206e6f206d65646963616c207265636f7264730000000000600082015250565b6000614bbb601b836138d4565b9150614bc682614b85565b602082019050919050565b60006020820190508181036000830152614bea81614bae565b9050919050565b6000614bfc8261397b565b9150614c078361397b565b9250828201905080821115614c1f57614c1e61441a565b5b92915050565b6000614c318285614300565b9150614c3d8284614300565b91508190509392505050565b600081519050919050565b600082825260208201905092915050565b6000614c7082614c49565b614c7a8185614c54565b9350614c8a8185602086016138e5565b614c938161390f565b840191505092915050565b6000608082019050614cb360008301876139de565b614cc060208301866139de565b614ccd6040830185613bc6565b8181036060830152614cdf8184614c65565b905095945050505050565b600081519050614cf9816137af565b92915050565b600060208284031215614d1557614d14613779565b5b6000614d2384828501614cea565b91505092915050565b7f4e487b7100000000000000000000000000000000000000000000000000000000600052601260045260246000fd5b6000604082019050614d7060008301856139de565b614d7d6020830184613bc6565b939250505056fe7265636f726473206f6e6c792061636365737369626c65206279207468652070617469656e74a264697066735822122075c111964889dc77f7580bc8cb97d763b19d9422ce649e0e97ae12d67635b9c764736f6c63430008140033",
  "linkReferences": {},
  "deployedLinkReferences": {}
}