{
  "_format": "hh-sol-artifact-1",
  "contractName": "HealthCard",
  "sourceName": "contracts/HealthCard.sol",
  "abi": [
    {
      "inputs": [
        {
          "internalType": "address",
          "name": "_owner",
          "type": "address"
        }
      ],
      "stateMutability": "nonpayable",
      "type": "constructor"
    },
    {
      "inputs": [
        {
          "internalType": "address",
          "name": "sender",
          "type": "address"
        },
        {
          "internalType": "uint256",
          "name": "tokenId",
          "type": "uint256"
        },
        {
          "internalType": "address",
          "name": "owner",
          "type": "address"
        }
      ],
      "name": "ERC721IncorrectOwner",
      "type": "error"
    },
    {
      "inputs": [
        {
          "internalType": "address",
          "name": "operator",
          "type": "address"
        },
        {
          "internalType": "uint256",
          "name": "tokenId",
          "type": "uint256"
        }
      ],
      "name": "ERC721InsufficientApproval",
      "type": "error"
    },
    {
      "inputs": [
        {
          "internalType": "address",
          "name": "approver",
          "type": "address"
        }
      ],
      "name": "ERC721InvalidApprover",
      "type": "error"
    },
    {
      "inputs": [
        {
          "internalType": "address",
          "name": "operator",
          "type": "address"
        }
      ],
      "name": "ERC721InvalidOperator",
      "type": "error"
    },
    {
      "inputs": [
        {
          "internalType": "address",
          "name": "owner",
          "type": "address"
        }
      ],
      "name": "ERC721InvalidOwner",
      "type": "error"
    },
    {
      "inputs": [
        {
          "internalType": "address",
          "name": "receiver",
          "type": "address"
        }
      ],
      "name": "ERC721InvalidReceiver",
      "type": "error"
    },
    {
      "inputs": [
        {
          "internalType": "address",
          "name": "sender",
          "type": "address"
        }
      ],
      "name": "ERC721InvalidSender",
      "type": "error"
    },
    {
      "inputs": [
        {
          "internalType": "uint256",
          "name": "tokenId",
          "type": "uint256"
        }
      ],
      "name": "ERC721NonexistentToken",
      "type": "error"
    },
    {
      "anonymous": false,
      "inputs": [
        {
          "indexed": false,
          "internalType": "address",
          "name": "patient",
          "type": "address"
        },
        {
          "indexed": false,
          "internalType": "address",
          "name": "provider",
          "type": "address"
        }
      ],
      "name": "AccessApproved",
      "type": "event"
    },
    {
      "anonymous": false,
      "inputs": [
        {
          "indexed": false,
          "internalType": "address",
          "name": "patient",
          "type": "address"
        },
        {
          "indexed": false,
          "internalType": "address",
          "name": "provider",
          "type": "address"
        }
      ],
      "name": "AccessRejected",
      "type": "event"
    },
    {
      "anonymous": false,
      "inputs": [
        {
          "indexed": false,
          "internalType": "address",
          "name": "patient",
          "type": "address"
        },
        {
          "indexed": false,
          "internalType": "address",
          "name": "provider",
          "type": "address"
        }
      ],
      "name": "AccessRequested",
      "type": "event"
    },
    {
      "anonymous": false,
      "inputs": [
        {
          "indexed": true,
          "internalType": "address",
          "name": "owner",
          "type": "address"
        },
        {
          "indexed": true,
          "internalType": "address",
          "name": "approved",
          "type": "address"
        },
        {
          "indexed": true,
          "internalType": "uint256",
          "name": "tokenId",
          "type": "uint256"
        }
      ],
      "name": "Approval",
      "type": "event"
    },
    {
      "anonymous": false,
      "inputs": [
        {
          "indexed": true,
          "internalType": "address",
          "name": "owner",
          "type": "address"
        },
        {
          "indexed": true,
          "internalType": "address",
          "name": "operator",
          "type": "address"
        },
        {
          "indexed": false,
          "internalType": "bool",
          "name": "approved",
          "type": "bool"
        }
      ],
      "name": "ApprovalForAll",
      "type": "event"
    },
    {
      "anonymous": false,
      "inputs": [
        {
          "indexed": true,
          "internalType": "address",
          "name": "from",
          "type": "address"
        },
        {
          "indexed": true,
          "internalType": "address",
          "name": "to",
          "type": "address"
        },
        {
          "indexed": true,
          "internalType": "uint256",
          "name": "tokenId",
          "type": "uint256"
        }
      ],
      "name": "Transfer",
      "type": "event"
    },
    {
      "inputs": [
        {
          "internalType": "address",
          "name": "",
          "type": "address"
        },
        {
          "internalType": "address",
          "name": "",
          "type": "address"
        }
      ],
      "name": "accessRequests",
      "outputs": [
        {
          "internalType": "address",
          "name": "hpprovider",
          "type": "address"
        },
        {
          "internalType": "address",
          "name": "patient",
          "type": "address"
        },
        {
          "internalType": "enum HealthCard.AccessStatus",
          "name": "status",
          "type": "uint8"
        },
        {
          "internalType": "uint256",
          "name": "expiryTime",
          "type": "uint256"
        }
      ],
      "stateMutability": "view",
      "type": "function"
    },
    {
      "inputs": [
        {
          "internalType": "address",
          "name": "to",
          "type": "address"
        },
        {
          "internalType": "uint256",
          "name": "tokenId",
          "type": "uint256"
        }
      ],
      "name": "approve",
      "outputs": [],
      "stateMutability": "nonpayable",
      "type": "function"
    },
    {
      "inputs": [
        {
          "internalType": "address",
          "name": "hprovider",
          "type": "address"
        },
        {
          "internalType": "uint256",
          "name": "duration",
          "type": "uint256"
        }
      ],
      "name": "approveAccess",
      "outputs": [],
      "stateMutability": "nonpayable",
      "type": "function"
    },
    {
      "inputs": [
        {
          "internalType": "address",
          "name": "owner",
          "type": "address"
        }
      ],
      "name": "balanceOf",
      "outputs": [
        {
          "internalType": "uint256",
          "name": "",
          "type": "uint256"
        }
      ],
      "stateMutability": "view",
      "type": "function"
    },
    {
      "inputs": [
        {
          "internalType": "string",
          "name": "_link",
          "type": "string"
        }
      ],
      "name": "changeStorageLink",
      "outputs": [],
      "stateMutability": "nonpayable",
      "type": "function"
    },
    {
      "inputs": [
        {
          "internalType": "string",
          "name": "_link",
          "type": "string"
        },
        {
          "internalType": "address",
          "name": "patient",
          "type": "address"
        }
      ],
      "name": "changeStorageLinkForHP",
      "outputs": [],
      "stateMutability": "nonpayable",
      "type": "function"
    },
    {
      "inputs": [
        {
          "internalType": "address",
          "name": "_patient",
          "type": "address"
        }
      ],
      "name": "getAccessRequests",
      "outputs": [
        {
          "components": [
            {
              "internalType": "address",
              "name": "hpprovider",
              "type": "address"
            },
            {
              "internalType": "address",
              "name": "patient",
              "type": "address"
            },
            {
              "internalType": "enum HealthCard.AccessStatus",
              "name": "status",
              "type": "uint8"
            },
            {
              "internalType": "uint256",
              "name": "expiryTime",
              "type": "uint256"
            }
          ],
          "internalType": "struct HealthCard.AccessRequest[]",
          "name": "",
          "type": "tuple[]"
        }
      ],
      "stateMutability": "view",
      "type": "function"
    },
    {
      "inputs": [
        {
          "internalType": "uint256",
          "name": "tokenId",
          "type": "uint256"
        }
      ],
      "name": "getApproved",
      "outputs": [
        {
          "internalType": "address",
          "name": "",
          "type": "address"
        }
      ],
      "stateMutability": "view",
      "type": "function"
    },
    {
      "inputs": [
        {
          "internalType": "string",
          "name": "idNumber",
          "type": "string"
        }
      ],
      "name": "getEmergencyContacts",
      "outputs": [
        {
          "internalType": "address[3]",
          "name": "contacts",
          "type": "address[3]"
        }
      ],
      "stateMutability": "view",
      "type": "function"
    },
    {
      "inputs": [
        {
          "internalType": "string",
          "name": "_id",
          "type": "string"
        }
      ],
      "name": "getStorageLinkForHP",
      "outputs": [
        {
          "internalType": "string",
          "name": "",
          "type": "string"
        }
      ],
      "stateMutability": "view",
      "type": "function"
    },
    {
      "inputs": [
        {
          "internalType": "string",
          "name": "_id",
          "type": "string"
        }
      ],
      "name": "getStorageLinkPatient",
      "outputs": [
        {
          "internalType": "string",
          "name": "",
          "type": "string"
        }
      ],
      "stateMutability": "view",
      "type": "function"
    },
    {
      "inputs": [
        {
          "internalType": "address",
          "name": "owner",
          "type": "address"
        },
        {
          "internalType": "address",
          "name": "operator",
          "type": "address"
        }
      ],
      "name": "isApprovedForAll",
      "outputs": [
        {
          "internalType": "bool",
          "name": "",
          "type": "bool"
        }
      ],
      "stateMutability": "view",
      "type": "function"
    },
    {
      "inputs": [
        {
          "internalType": "address",
          "name": "userAddress",
          "type": "address"
        }
      ],
      "name": "isRegistered",
      "outputs": [
        {
          "internalType": "bool",
          "name": "",
          "type": "bool"
        }
      ],
      "stateMutability": "view",
      "type": "function"
    },
    {
      "inputs": [],
      "name": "length",
      "outputs": [
        {
          "internalType": "uint256",
          "name": "",
          "type": "uint256"
        }
      ],
      "stateMutability": "view",
      "type": "function"
    },
    {
      "inputs": [
        {
          "internalType": "string",
          "name": "_link",
          "type": "string"
        },
        {
          "internalType": "address",
          "name": "_walletAddress",
          "type": "address"
        },
        {
          "internalType": "string",
          "name": "_dateOfBirth",
          "type": "string"
        },
        {
          "internalType": "string",
          "name": "_gender",
          "type": "string"
        },
        {
          "internalType": "string",
          "name": "_bloodType",
          "type": "string"
        },
        {
          "internalType": "string",
          "name": "_IdNumber",
          "type": "string"
        }
      ],
      "name": "mintHealthCard",
      "outputs": [],
      "stateMutability": "nonpayable",
      "type": "function"
    },
    {
      "inputs": [],
      "name": "name",
      "outputs": [
        {
          "internalType": "string",
          "name": "",
          "type": "string"
        }
      ],
      "stateMutability": "view",
      "type": "function"
    },
    {
      "inputs": [
        {
          "internalType": "uint256",
          "name": "tokenId",
          "type": "uint256"
        }
      ],
      "name": "ownerOf",
      "outputs": [
        {
          "internalType": "address",
          "name": "",
          "type": "address"
        }
      ],
      "stateMutability": "view",
      "type": "function"
    },
    {
      "inputs": [
        {
          "internalType": "address",
          "name": "hprovider",
          "type": "address"
        }
      ],
      "name": "rejectAccess",
      "outputs": [],
      "stateMutability": "nonpayable",
      "type": "function"
    },
    {
      "inputs": [
        {
          "internalType": "string",
          "name": "_id",
          "type": "string"
        }
      ],
      "name": "requestAccess",
      "outputs": [],
      "stateMutability": "nonpayable",
      "type": "function"
    },
    {
      "inputs": [
        {
          "internalType": "address",
          "name": "from",
          "type": "address"
        },
        {
          "internalType": "address",
          "name": "to",
          "type": "address"
        },
        {
          "internalType": "uint256",
          "name": "tokenId",
          "type": "uint256"
        }
      ],
      "name": "safeTransferFrom",
      "outputs": [],
      "stateMutability": "nonpayable",
      "type": "function"
    },
    {
      "inputs": [
        {
          "internalType": "address",
          "name": "from",
          "type": "address"
        },
        {
          "internalType": "address",
          "name": "to",
          "type": "address"
        },
        {
          "internalType": "uint256",
          "name": "tokenId",
          "type": "uint256"
        },
        {
          "internalType": "bytes",
          "name": "data",
          "type": "bytes"
        }
      ],
      "name": "safeTransferFrom",
      "outputs": [],
      "stateMutability": "nonpayable",
      "type": "function"
    },
    {
      "inputs": [
        {
          "internalType": "address",
          "name": "operator",
          "type": "address"
        },
        {
          "internalType": "bool",
          "name": "approved",
          "type": "bool"
        }
      ],
      "name": "setApprovalForAll",
      "outputs": [],
      "stateMutability": "nonpayable",
      "type": "function"
    },
    {
      "inputs": [
        {
          "internalType": "address",
          "name": "_address",
          "type": "address"
        },
        {
          "internalType": "address[3]",
          "name": "econtacts",
          "type": "address[3]"
        }
      ],
      "name": "setEmergencyContacts",
      "outputs": [],
      "stateMutability": "nonpayable",
      "type": "function"
    },
    {
      "inputs": [
        {
          "internalType": "bytes4",
          "name": "interfaceId",
          "type": "bytes4"
        }
      ],
      "name": "supportsInterface",
      "outputs": [
        {
          "internalType": "bool",
          "name": "",
          "type": "bool"
        }
      ],
      "stateMutability": "view",
      "type": "function"
    },
    {
      "inputs": [],
      "name": "symbol",
      "outputs": [
        {
          "internalType": "string",
          "name": "",
          "type": "string"
        }
      ],
      "stateMutability": "view",
      "type": "function"
    },
    {
      "inputs": [
        {
          "internalType": "uint256",
          "name": "tokenId",
          "type": "uint256"
        }
      ],
      "name": "tokenURI",
      "outputs": [
        {
          "internalType": "string",
          "name": "",
          "type": "string"
        }
      ],
      "stateMutability": "view",
      "type": "function"
    },
    {
      "inputs": [
        {
          "internalType": "address",
          "name": "from",
          "type": "address"
        },
        {
          "internalType": "address",
          "name": "to",
          "type": "address"
        },
        {
          "internalType": "uint256",
          "name": "tokenId",
          "type": "uint256"
        }
      ],
      "name": "transferFrom",
      "outputs": [],
      "stateMutability": "nonpayable",
      "type": "function"
    }
  ],
  "bytecode": "0x60806040526001600c55604051806101000160405280600081526020016040518060400160405280600581526020017f64756d6d7900000000000000000000000000000000000000000000000000000081525081526020017320cb94e4e6b287b9f9a4af6c1b2356468ba35be373ffffffffffffffffffffffffffffffffffffffff1681526020016040518060400160405280600581526020017f64756d6d7900000000000000000000000000000000000000000000000000000081525081526020016040518060400160405280600581526020017f64756d6d7900000000000000000000000000000000000000000000000000000081525081526020016040518060400160405280600581526020017f64756d6d7900000000000000000000000000000000000000000000000000000081525081526020016040518060400160405280600581526020017f64756d6d7900000000000000000000000000000000000000000000000000000081525081526020016040518060600160405280600073ffffffffffffffffffffffffffffffffffffffff1673ffffffffffffffffffffffffffffffffffffffff168152602001600073ffffffffffffffffffffffffffffffffffffffff1673ffffffffffffffffffffffffffffffffffffffff168152602001600073ffffffffffffffffffffffffffffffffffffffff1673ffffffffffffffffffffffffffffffffffffffff16815250815250600d6000820151816000015560208201518160010190816200023b919062000727565b5060408201518160020160006101000a81548173ffffffffffffffffffffffffffffffffffffffff021916908373ffffffffffffffffffffffffffffffffffffffff16021790555060608201518160030190816200029a919062000727565b506080820151816004019081620002b2919062000727565b5060a0820151816005019081620002ca919062000727565b5060c0820151816006019081620002e2919062000727565b5060e082015181600701906003620002fc9291906200040c565b5050503480156200030c57600080fd5b5060405162005d2138038062005d21833981810160405281019062000332919062000878565b6040518060400160405280600b81526020017f454865616c7468436172640000000000000000000000000000000000000000008152506040518060400160405280600381526020017f45484300000000000000000000000000000000000000000000000000000000008152508160009081620003af919062000727565b508060019081620003c1919062000727565b50505080600660006101000a81548173ffffffffffffffffffffffffffffffffffffffff021916908373ffffffffffffffffffffffffffffffffffffffff16021790555050620008aa565b82600381019282156200047b579160200282015b828111156200047a5782518260006101000a81548173ffffffffffffffffffffffffffffffffffffffff021916908373ffffffffffffffffffffffffffffffffffffffff1602179055509160200191906001019062000420565b5b5090506200048a91906200048e565b5090565b5b80821115620004a95760008160009055506001016200048f565b5090565b600081519050919050565b7f4e487b7100000000000000000000000000000000000000000000000000000000600052604160045260246000fd5b7f4e487b7100000000000000000000000000000000000000000000000000000000600052602260045260246000fd5b600060028204905060018216806200052f57607f821691505b602082108103620005455762000544620004e7565b5b50919050565b60008190508160005260206000209050919050565b60006020601f8301049050919050565b600082821b905092915050565b600060088302620005af7fffffffffffffffffffffffffffffffffffffffffffffffffffffffffffffffff8262000570565b620005bb868362000570565b95508019841693508086168417925050509392505050565b6000819050919050565b6000819050919050565b60006200060862000602620005fc84620005d3565b620005dd565b620005d3565b9050919050565b6000819050919050565b6200062483620005e7565b6200063c62000633826200060f565b8484546200057d565b825550505050565b600090565b6200065362000644565b6200066081848462000619565b505050565b5b8181101562000688576200067c60008262000649565b60018101905062000666565b5050565b601f821115620006d757620006a1816200054b565b620006ac8462000560565b81016020851015620006bc578190505b620006d4620006cb8562000560565b83018262000665565b50505b505050565b600082821c905092915050565b6000620006fc60001984600802620006dc565b1980831691505092915050565b6000620007178383620006e9565b9150826002028217905092915050565b6200073282620004ad565b67ffffffffffffffff8111156200074e576200074d620004b8565b5b6200075a825462000516565b620007678282856200068c565b600060209050601f8311600181146200079f57600084156200078a578287015190505b62000796858262000709565b86555062000806565b601f198416620007af866200054b565b60005b82811015620007d957848901518255600182019150602085019450602081019050620007b2565b86831015620007f95784890151620007f5601f891682620006e9565b8355505b6001600288020188555050505b505050505050565b600080fd5b600073ffffffffffffffffffffffffffffffffffffffff82169050919050565b6000620008408262000813565b9050919050565b620008528162000833565b81146200085e57600080fd5b50565b600081519050620008728162000847565b92915050565b6000602082840312156200089157620008906200080e565b5b6000620008a18482850162000861565b91505092915050565b61546780620008ba6000396000f3fe608060405234801561001057600080fd5b50600436106101a95760003560e01c80636352211e116100f9578063ab4f232911610097578063c87b56dd11610071578063c87b56dd146104ef578063cf3743341461051f578063e985e9c51461054f578063f324072f1461057f576101a9565b8063ab4f232914610470578063b88d4fde146104a3578063c3c5a547146104bf576101a9565b806395d89b41116100d357806395d89b41146103ea57806399636fd014610408578063a223661614610438578063a22cb46514610454576101a9565b80636352211e1461036e57806370a082311461039e5780637f7190f6146103ce576101a9565b80631f7b6d32116101665780633141172c116101405780633141172c146102ea57806333c953551461030657806336bbe85b1461032257806342842e0e14610352576101a9565b80631f7b6d321461029457806323b872dd146102b2578063267af302146102ce576101a9565b806301ffc9a7146101ae57806306fdde03146101de578063081812fc146101fc578063095ea7b31461022c5780630e0051261461024857806310ee1b2214610278575b600080fd5b6101c860048036038101906101c39190613d1e565b61059b565b6040516101d59190613d66565b60405180910390f35b6101e661067d565b6040516101f39190613e11565b60405180910390f35b61021660048036038101906102119190613e69565b61070f565b6040516102239190613ed7565b60405180910390f35b61024660048036038101906102419190613f1e565b61072b565b005b610262600480360381019061025d9190614093565b610741565b60405161026f9190613e11565b60405180910390f35b610292600480360381019061028d9190614093565b610862565b005b61029c610cd3565b6040516102a991906140eb565b60405180910390f35b6102cc60048036038101906102c79190614106565b610cd9565b005b6102e860048036038101906102e3919061420f565b610ddb565b005b61030460048036038101906102ff919061424f565b610f48565b005b610320600480360381019061031b919061427c565b611260565b005b61033c60048036038101906103379190614093565b611678565b6040516103499190614440565b60405180910390f35b61036c60048036038101906103679190614106565b6117e5565b005b61038860048036038101906103839190613e69565b611805565b6040516103959190613ed7565b60405180910390f35b6103b860048036038101906103b3919061424f565b611817565b6040516103c591906140eb565b60405180910390f35b6103e860048036038101906103e3919061445b565b6118d1565b005b6103f2611bef565b6040516103ff9190613e11565b60405180910390f35b610422600480360381019061041d9190614093565b611c81565b60405161042f9190613e11565b60405180910390f35b610452600480360381019061044d9190613f1e565b611f48565b005b61046e600480360381019061046991906144e3565b612280565b005b61048a60048036038101906104859190614523565b612296565b60405161049a94939291906145da565b60405180910390f35b6104bd60048036038101906104b891906146c0565b612320565b005b6104d960048036038101906104d4919061424f565b61233d565b6040516104e69190613d66565b60405180910390f35b61050960048036038101906105049190613e69565b6123e7565b6040516105169190613e11565b60405180910390f35b6105396004803603810190610534919061424f565b612450565b6040516105469190614865565b60405180910390f35b61056960048036038101906105649190614523565b612704565b6040516105769190613d66565b60405180910390f35b61059960048036038101906105949190614093565b612798565b005b60007f80ac58cd000000000000000000000000000000000000000000000000000000007bffffffffffffffffffffffffffffffffffffffffffffffffffffffff1916827bffffffffffffffffffffffffffffffffffffffffffffffffffffffff1916148061066657507f5b5e139f000000000000000000000000000000000000000000000000000000007bffffffffffffffffffffffffffffffffffffffffffffffffffffffff1916827bffffffffffffffffffffffffffffffffffffffffffffffffffffffff1916145b80610676575061067582612900565b5b9050919050565b60606000805461068c906148b6565b80601f01602080910402602001604051908101604052809291908181526020018280546106b8906148b6565b80156107055780601f106106da57610100808354040283529160200191610705565b820191906000526020600020905b8154815290600101906020018083116106e857829003601f168201915b5050505050905090565b600061071a8261296a565b50610724826129f2565b9050919050565b61073d8282610738612a2f565b612a37565b5050565b60606000600a836040516107559190614923565b908152602001604051809103902060009054906101000a900473ffffffffffffffffffffffffffffffffffffffff169050600073ffffffffffffffffffffffffffffffffffffffff168173ffffffffffffffffffffffffffffffffffffffff16036107f8576040518060400160405280601681526020017f75736572206973206e6f7420726567697374657265640000000000000000000081525091505061085d565b8073ffffffffffffffffffffffffffffffffffffffff163373ffffffffffffffffffffffffffffffffffffffff161461084c5760405180606001604052806026815260200161540c6026913991505061085d565b61085581612a49565b602001519150505b919050565b6000600a826040516108749190614923565b908152602001604051809103902060009054906101000a900473ffffffffffffffffffffffffffffffffffffffff169050600060038111156108b9576108b8614563565b5b600b60003373ffffffffffffffffffffffffffffffffffffffff1673ffffffffffffffffffffffffffffffffffffffff16815260200190815260200160002060008373ffffffffffffffffffffffffffffffffffffffff1673ffffffffffffffffffffffffffffffffffffffff16815260200190815260200160002060010160149054906101000a900460ff16600381111561095857610957614563565b5b14610998576040517f08c379a000000000000000000000000000000000000000000000000000000000815260040161098f90614986565b60405180910390fd5b60405180608001604052803373ffffffffffffffffffffffffffffffffffffffff1681526020018273ffffffffffffffffffffffffffffffffffffffff168152602001600160038111156109ef576109ee614563565b5b81526020016000815250600b60003373ffffffffffffffffffffffffffffffffffffffff1673ffffffffffffffffffffffffffffffffffffffff16815260200190815260200160002060008373ffffffffffffffffffffffffffffffffffffffff1673ffffffffffffffffffffffffffffffffffffffff16815260200190815260200160002060008201518160000160006101000a81548173ffffffffffffffffffffffffffffffffffffffff021916908373ffffffffffffffffffffffffffffffffffffffff16021790555060208201518160010160006101000a81548173ffffffffffffffffffffffffffffffffffffffff021916908373ffffffffffffffffffffffffffffffffffffffff16021790555060408201518160010160146101000a81548160ff02191690836003811115610b2e57610b2d614563565b5b021790555060608201518160020155905050600860405180608001604052803373ffffffffffffffffffffffffffffffffffffffff1681526020018373ffffffffffffffffffffffffffffffffffffffff16815260200160016003811115610b9957610b98614563565b5b81526020016000815250908060018154018082558091505060019003906000526020600020906003020160009091909190915060008201518160000160006101000a81548173ffffffffffffffffffffffffffffffffffffffff021916908373ffffffffffffffffffffffffffffffffffffffff16021790555060208201518160010160006101000a81548173ffffffffffffffffffffffffffffffffffffffff021916908373ffffffffffffffffffffffffffffffffffffffff16021790555060408201518160010160146101000a81548160ff02191690836003811115610c8557610c84614563565b5b02179055506060820151816002015550507f40c7749b16fdfb0d550f20273a7767875059d647af94f5a9610c63ad73dcc79f3382604051610cc79291906149a6565b60405180910390a15050565b600c5481565b600073ffffffffffffffffffffffffffffffffffffffff168273ffffffffffffffffffffffffffffffffffffffff1603610d4b5760006040517f64a0ae92000000000000000000000000000000000000000000000000000000008152600401610d429190613ed7565b60405180910390fd5b6000610d5f8383610d5a612a2f565b612f37565b90508373ffffffffffffffffffffffffffffffffffffffff168173ffffffffffffffffffffffffffffffffffffffff1614610dd5578382826040517f64283d7b000000000000000000000000000000000000000000000000000000008152600401610dcc939291906149cf565b60405180910390fd5b50505050565b600660009054906101000a900473ffffffffffffffffffffffffffffffffffffffff1673ffffffffffffffffffffffffffffffffffffffff163373ffffffffffffffffffffffffffffffffffffffff1614610e3557600080fd5b6003801115610e79576040517f08c379a0000000000000000000000000000000000000000000000000000000008152600401610e7090614a52565b60405180910390fd5b60005b6003811015610f4357818160038110610e9857610e97614a72565b5b6020020151600960008573ffffffffffffffffffffffffffffffffffffffff1673ffffffffffffffffffffffffffffffffffffffff1681526020019081526020016000206007018260038110610ef157610ef0614a72565b5b0160006101000a81548173ffffffffffffffffffffffffffffffffffffffff021916908373ffffffffffffffffffffffffffffffffffffffff1602179055508080610f3b90614ad0565b915050610e7c565b505050565b338073ffffffffffffffffffffffffffffffffffffffff163373ffffffffffffffffffffffffffffffffffffffff1614610fb7576040517f08c379a0000000000000000000000000000000000000000000000000000000008152600401610fae90614b8a565b60405180910390fd5b600073ffffffffffffffffffffffffffffffffffffffff16600960008373ffffffffffffffffffffffffffffffffffffffff1673ffffffffffffffffffffffffffffffffffffffff16815260200190815260200160002060020160009054906101000a900473ffffffffffffffffffffffffffffffffffffffff1673ffffffffffffffffffffffffffffffffffffffff1603611088576040517f08c379a000000000000000000000000000000000000000000000000000000000815260040161107f90614c1c565b60405180910390fd5b6001600381111561109c5761109b614563565b5b600b60008473ffffffffffffffffffffffffffffffffffffffff1673ffffffffffffffffffffffffffffffffffffffff16815260200190815260200160002060003373ffffffffffffffffffffffffffffffffffffffff1673ffffffffffffffffffffffffffffffffffffffff16815260200190815260200160002060010160149054906101000a900460ff16600381111561113b5761113a614563565b5b1461117b576040517f08c379a000000000000000000000000000000000000000000000000000000000815260040161117290614c88565b60405180910390fd5b6003600b60008473ffffffffffffffffffffffffffffffffffffffff1673ffffffffffffffffffffffffffffffffffffffff16815260200190815260200160002060003373ffffffffffffffffffffffffffffffffffffffff1673ffffffffffffffffffffffffffffffffffffffff16815260200190815260200160002060010160146101000a81548160ff0219169083600381111561121e5761121d614563565b5b02179055507f6586985f73a63d005b52bd5a5791732c40ec70b8fc067ab89f5c402185f0c6ea33836040516112549291906149a6565b60405180910390a15050565b600660009054906101000a900473ffffffffffffffffffffffffffffffffffffffff1673ffffffffffffffffffffffffffffffffffffffff163373ffffffffffffffffffffffffffffffffffffffff16146112ba57600080fd5b6000604051806101000160405280600c5481526020018881526020018773ffffffffffffffffffffffffffffffffffffffff1681526020018681526020018581526020018481526020018381526020016040518060600160405280600073ffffffffffffffffffffffffffffffffffffffff1673ffffffffffffffffffffffffffffffffffffffff168152602001600073ffffffffffffffffffffffffffffffffffffffff1673ffffffffffffffffffffffffffffffffffffffff168152602001600073ffffffffffffffffffffffffffffffffffffffff1673ffffffffffffffffffffffffffffffffffffffff1681525081525090506000600c549050600c60008154809291906113cb90614ad0565b919050555060078290806001815401808255809150506001900390600052602060002090600a020160009091909190915060008201518160000155602082015181600101908161141b9190614e54565b5060408201518160020160006101000a81548173ffffffffffffffffffffffffffffffffffffffff021916908373ffffffffffffffffffffffffffffffffffffffff16021790555060608201518160030190816114789190614e54565b50608082015181600401908161148e9190614e54565b5060a08201518160050190816114a49190614e54565b5060c08201518160060190816114ba9190614e54565b5060e0820151816007019060036114d2929190613b2f565b50505081600960008973ffffffffffffffffffffffffffffffffffffffff1673ffffffffffffffffffffffffffffffffffffffff1681526020019081526020016000206000820151816000015560208201518160010190816115349190614e54565b5060408201518160020160006101000a81548173ffffffffffffffffffffffffffffffffffffffff021916908373ffffffffffffffffffffffffffffffffffffffff16021790555060608201518160030190816115919190614e54565b5060808201518160040190816115a79190614e54565b5060a08201518160050190816115bd9190614e54565b5060c08201518160060190816115d39190614e54565b5060e0820151816007019060036115eb929190613b2f565b5090505086600a846040516116009190614923565b908152602001604051809103902060006101000a81548173ffffffffffffffffffffffffffffffffffffffff021916908373ffffffffffffffffffffffffffffffffffffffff1602179055506116568782613151565b600c600081548092919061166990614ad0565b91905055505050505050505050565b611680613bac565b6000600a836040516116929190614923565b908152602001604051809103902060009054906101000a900473ffffffffffffffffffffffffffffffffffffffff16905060006116ce82612a49565b90506040516020016116df90614f72565b60405160208183030381529060405280519060200120816020015160405160200161170a9190614923565b60405160208183030381529060405280519060200120036117d65760006040518060600160405280600073ffffffffffffffffffffffffffffffffffffffff1673ffffffffffffffffffffffffffffffffffffffff168152602001600073ffffffffffffffffffffffffffffffffffffffff1673ffffffffffffffffffffffffffffffffffffffff168152602001600073ffffffffffffffffffffffffffffffffffffffff1673ffffffffffffffffffffffffffffffffffffffff1681525090508093505050506117e0565b8060e00151925050505b919050565b61180083838360405180602001604052806000815250612320565b505050565b60006118108261296a565b9050919050565b60008073ffffffffffffffffffffffffffffffffffffffff168273ffffffffffffffffffffffffffffffffffffffff160361188a5760006040517f89c62b640000000000000000000000000000000000000000000000000000000081526004016118819190613ed7565b60405180910390fd5b600360008373ffffffffffffffffffffffffffffffffffffffff1673ffffffffffffffffffffffffffffffffffffffff168152602001908152602001600020549050919050565b600060078054905011611919576040517f08c379a000000000000000000000000000000000000000000000000000000000815260040161191090614fd3565b60405180910390fd5b60405160200161192890615019565b60405160208183030381529060405280519060200120600960008373ffffffffffffffffffffffffffffffffffffffff1673ffffffffffffffffffffffffffffffffffffffff16815260200190815260200160002060010160405160200161199091906150b1565b60405160208183030381529060405280519060200120036119e6576040517f08c379a00000000000000000000000000000000000000000000000000000000081526004016119dd90615114565b60405180910390fd5b600260038111156119fa576119f9614563565b5b600b60003373ffffffffffffffffffffffffffffffffffffffff1673ffffffffffffffffffffffffffffffffffffffff16815260200190815260200160002060008373ffffffffffffffffffffffffffffffffffffffff1673ffffffffffffffffffffffffffffffffffffffff16815260200190815260200160002060010160149054906101000a900460ff166003811115611a9957611a98614563565b5b14611ad9576040517f08c379a0000000000000000000000000000000000000000000000000000000008152600401611ad090615180565b60405180910390fd5b600b60003373ffffffffffffffffffffffffffffffffffffffff1673ffffffffffffffffffffffffffffffffffffffff16815260200190815260200160002060008273ffffffffffffffffffffffffffffffffffffffff1673ffffffffffffffffffffffffffffffffffffffff16815260200190815260200160002060020154421115611b9b576040517f08c379a0000000000000000000000000000000000000000000000000000000008152600401611b92906151ec565b60405180910390fd5b81600960008373ffffffffffffffffffffffffffffffffffffffff1673ffffffffffffffffffffffffffffffffffffffff1681526020019081526020016000206001019081611bea9190614e54565b505050565b606060018054611bfe906148b6565b80601f0160208091040260200160405190810160405280929190818152602001828054611c2a906148b6565b8015611c775780601f10611c4c57610100808354040283529160200191611c77565b820191906000526020600020905b815481529060010190602001808311611c5a57829003601f168201915b5050505050905090565b60606000600a83604051611c959190614923565b908152602001604051809103902060009054906101000a900473ffffffffffffffffffffffffffffffffffffffff16905060026003811115611cda57611cd9614563565b5b600b60003373ffffffffffffffffffffffffffffffffffffffff1673ffffffffffffffffffffffffffffffffffffffff16815260200190815260200160002060008373ffffffffffffffffffffffffffffffffffffffff1673ffffffffffffffffffffffffffffffffffffffff16815260200190815260200160002060010160149054906101000a900460ff166003811115611d7957611d78614563565b5b14611db9576040517f08c379a0000000000000000000000000000000000000000000000000000000008152600401611db090615180565b60405180910390fd5b600b60003373ffffffffffffffffffffffffffffffffffffffff1673ffffffffffffffffffffffffffffffffffffffff16815260200190815260200160002060008273ffffffffffffffffffffffffffffffffffffffff1673ffffffffffffffffffffffffffffffffffffffff16815260200190815260200160002060020154421115611e7b576040517f08c379a0000000000000000000000000000000000000000000000000000000008152600401611e72906151ec565b60405180910390fd5b6000600a84604051611e8d9190614923565b908152602001604051809103902060009054906101000a900473ffffffffffffffffffffffffffffffffffffffff169050600073ffffffffffffffffffffffffffffffffffffffff168173ffffffffffffffffffffffffffffffffffffffff1603611f31576040518060400160405280601681526020017f75736572206973206e6f7420726567697374657265640000000000000000000081525092505050611f43565b611f3a81612a49565b60200151925050505b919050565b60016003811115611f5c57611f5b614563565b5b600b60008473ffffffffffffffffffffffffffffffffffffffff1673ffffffffffffffffffffffffffffffffffffffff16815260200190815260200160002060003373ffffffffffffffffffffffffffffffffffffffff1673ffffffffffffffffffffffffffffffffffffffff16815260200190815260200160002060010160149054906101000a900460ff166003811115611ffb57611ffa614563565b5b1461203b576040517f08c379a000000000000000000000000000000000000000000000000000000000815260040161203290614c88565b60405180910390fd5b600073ffffffffffffffffffffffffffffffffffffffff16600960003373ffffffffffffffffffffffffffffffffffffffff1673ffffffffffffffffffffffffffffffffffffffff16815260200190815260200160002060020160009054906101000a900473ffffffffffffffffffffffffffffffffffffffff1673ffffffffffffffffffffffffffffffffffffffff160361210c576040517f08c379a000000000000000000000000000000000000000000000000000000000815260040161210390615258565b60405180910390fd5b6002600b60008473ffffffffffffffffffffffffffffffffffffffff1673ffffffffffffffffffffffffffffffffffffffff16815260200190815260200160002060003373ffffffffffffffffffffffffffffffffffffffff1673ffffffffffffffffffffffffffffffffffffffff16815260200190815260200160002060010160146101000a81548160ff021916908360038111156121af576121ae614563565b5b021790555080426121c09190615278565b600b60008473ffffffffffffffffffffffffffffffffffffffff1673ffffffffffffffffffffffffffffffffffffffff16815260200190815260200160002060003373ffffffffffffffffffffffffffffffffffffffff1673ffffffffffffffffffffffffffffffffffffffff168152602001908152602001600020600201819055507fe6334627d2d1b816244f24397d90a02beea6f06a64333958f2fca9a73f84266d33836040516122749291906149a6565b60405180910390a15050565b61229261228b612a2f565b838361324a565b5050565b600b602052816000526040600020602052806000526040600020600091509150508060000160009054906101000a900473ffffffffffffffffffffffffffffffffffffffff16908060010160009054906101000a900473ffffffffffffffffffffffffffffffffffffffff16908060010160149054906101000a900460ff16908060020154905084565b61232b848484610cd9565b612337848484846133b9565b50505050565b60008073ffffffffffffffffffffffffffffffffffffffff16600960008473ffffffffffffffffffffffffffffffffffffffff1673ffffffffffffffffffffffffffffffffffffffff16815260200190815260200160002060020160009054906101000a900473ffffffffffffffffffffffffffffffffffffffff1673ffffffffffffffffffffffffffffffffffffffff16036123dd57600090506123e2565b600190505b919050565b60606123f28261296a565b5060006123fd613570565b9050600081511161241d5760405180602001604052806000815250612448565b8061242784613587565b6040516020016124389291906152ac565b6040516020818303038152906040525b915050919050565b6060600060088054905067ffffffffffffffff81111561247357612472613f68565b5b6040519080825280602002602001820160405280156124ac57816020015b612499613bce565b8152602001906001900390816124915790505b5090506000805b6008805490508110156126f9578473ffffffffffffffffffffffffffffffffffffffff16600882815481106124eb576124ea614a72565b5b906000526020600020906003020160010160009054906101000a900473ffffffffffffffffffffffffffffffffffffffff1673ffffffffffffffffffffffffffffffffffffffff1614801561259657506001600381111561254f5761254e614563565b5b6008828154811061256357612562614a72565b5b906000526020600020906003020160010160149054906101000a900460ff16600381111561259457612593614563565b5b145b156126e657600881815481106125af576125ae614a72565b5b90600052602060002090600302016040518060800160405290816000820160009054906101000a900473ffffffffffffffffffffffffffffffffffffffff1673ffffffffffffffffffffffffffffffffffffffff1673ffffffffffffffffffffffffffffffffffffffff1681526020016001820160009054906101000a900473ffffffffffffffffffffffffffffffffffffffff1673ffffffffffffffffffffffffffffffffffffffff1673ffffffffffffffffffffffffffffffffffffffff1681526020016001820160149054906101000a900460ff16600381111561269957612698614563565b5b60038111156126ab576126aa614563565b5b81526020016002820154815250508383815181106126cc576126cb614a72565b5b602002602001018190525081806126e290614ad0565b9250505b80806126f190614ad0565b9150506124b3565b508192505050919050565b6000600560008473ffffffffffffffffffffffffffffffffffffffff1673ffffffffffffffffffffffffffffffffffffffff16815260200190815260200160002060008373ffffffffffffffffffffffffffffffffffffffff1673ffffffffffffffffffffffffffffffffffffffff16815260200190815260200160002060009054906101000a900460ff16905092915050565b6000600780549050116127e0576040517f08c379a00000000000000000000000000000000000000000000000000000000081526004016127d790614fd3565b60405180910390fd5b6040516020016127ef90615019565b60405160208183030381529060405280519060200120600960003373ffffffffffffffffffffffffffffffffffffffff1673ffffffffffffffffffffffffffffffffffffffff16815260200190815260200160002060010160405160200161285791906150b1565b60405160208183030381529060405280519060200120036128ad576040517f08c379a00000000000000000000000000000000000000000000000000000000081526004016128a490615114565b60405180910390fd5b80600960003373ffffffffffffffffffffffffffffffffffffffff1673ffffffffffffffffffffffffffffffffffffffff16815260200190815260200160002060010190816128fc9190614e54565b5050565b60007f01ffc9a7000000000000000000000000000000000000000000000000000000007bffffffffffffffffffffffffffffffffffffffffffffffffffffffff1916827bffffffffffffffffffffffffffffffffffffffffffffffffffffffff1916149050919050565b60008061297683613655565b9050600073ffffffffffffffffffffffffffffffffffffffff168173ffffffffffffffffffffffffffffffffffffffff16036129e957826040517f7e2732890000000000000000000000000000000000000000000000000000000081526004016129e091906140eb565b60405180910390fd5b80915050919050565b60006004600083815260200190815260200160002060009054906101000a900473ffffffffffffffffffffffffffffffffffffffff169050919050565b600033905090565b612a448383836001613692565b505050565b612a51613c34565b600060078054905011612a6357600080fd5b604051602001612a7290615019565b60405160208183030381529060405280519060200120600960008473ffffffffffffffffffffffffffffffffffffffff1673ffffffffffffffffffffffffffffffffffffffff168152602001908152602001600020600101604051602001612ada91906150b1565b6040516020818303038152906040528051906020012003612b30576040517f08c379a0000000000000000000000000000000000000000000000000000000008152600401612b2790615114565b60405180910390fd5b600960008373ffffffffffffffffffffffffffffffffffffffff1673ffffffffffffffffffffffffffffffffffffffff1681526020019081526020016000206040518061010001604052908160008201548152602001600182018054612b95906148b6565b80601f0160208091040260200160405190810160405280929190818152602001828054612bc1906148b6565b8015612c0e5780601f10612be357610100808354040283529160200191612c0e565b820191906000526020600020905b815481529060010190602001808311612bf157829003601f168201915b505050505081526020016002820160009054906101000a900473ffffffffffffffffffffffffffffffffffffffff1673ffffffffffffffffffffffffffffffffffffffff1673ffffffffffffffffffffffffffffffffffffffff168152602001600382018054612c7d906148b6565b80601f0160208091040260200160405190810160405280929190818152602001828054612ca9906148b6565b8015612cf65780601f10612ccb57610100808354040283529160200191612cf6565b820191906000526020600020905b815481529060010190602001808311612cd957829003601f168201915b50505050508152602001600482018054612d0f906148b6565b80601f0160208091040260200160405190810160405280929190818152602001828054612d3b906148b6565b8015612d885780601f10612d5d57610100808354040283529160200191612d88565b820191906000526020600020905b815481529060010190602001808311612d6b57829003601f168201915b50505050508152602001600582018054612da1906148b6565b80601f0160208091040260200160405190810160405280929190818152602001828054612dcd906148b6565b8015612e1a5780601f10612def57610100808354040283529160200191612e1a565b820191906000526020600020905b815481529060010190602001808311612dfd57829003601f168201915b50505050508152602001600682018054612e33906148b6565b80601f0160208091040260200160405190810160405280929190818152602001828054612e5f906148b6565b8015612eac5780601f10612e8157610100808354040283529160200191612eac565b820191906000526020600020905b815481529060010190602001808311612e8f57829003601f168201915b5050505050815260200160078201600380602002604051908101604052809291908260038015612f27576020028201915b8160009054906101000a900473ffffffffffffffffffffffffffffffffffffffff1673ffffffffffffffffffffffffffffffffffffffff1681526020019060010190808311612edd575b5050505050815250509050919050565b600080612f4384613655565b9050600073ffffffffffffffffffffffffffffffffffffffff168373ffffffffffffffffffffffffffffffffffffffff1614612f8557612f84818486613857565b5b600073ffffffffffffffffffffffffffffffffffffffff168173ffffffffffffffffffffffffffffffffffffffff161461301657612fc7600085600080613692565b6001600360008373ffffffffffffffffffffffffffffffffffffffff1673ffffffffffffffffffffffffffffffffffffffff168152602001908152602001600020600082825403925050819055505b600073ffffffffffffffffffffffffffffffffffffffff168573ffffffffffffffffffffffffffffffffffffffff1614613099576001600360008773ffffffffffffffffffffffffffffffffffffffff1673ffffffffffffffffffffffffffffffffffffffff168152602001908152602001600020600082825401925050819055505b846002600086815260200190815260200160002060006101000a81548173ffffffffffffffffffffffffffffffffffffffff021916908373ffffffffffffffffffffffffffffffffffffffff160217905550838573ffffffffffffffffffffffffffffffffffffffff168273ffffffffffffffffffffffffffffffffffffffff167fddf252ad1be2c89b69c2b068fc378daa952ba7f163c4a11628f55a4df523b3ef60405160405180910390a4809150509392505050565b600073ffffffffffffffffffffffffffffffffffffffff168273ffffffffffffffffffffffffffffffffffffffff16036131c35760006040517f64a0ae920000000000000000000000000000000000000000000000000000000081526004016131ba9190613ed7565b60405180910390fd5b60006131d183836000612f37565b9050600073ffffffffffffffffffffffffffffffffffffffff168173ffffffffffffffffffffffffffffffffffffffff16146132455760006040517f73c6ac6e00000000000000000000000000000000000000000000000000000000815260040161323c9190613ed7565b60405180910390fd5b505050565b600073ffffffffffffffffffffffffffffffffffffffff168273ffffffffffffffffffffffffffffffffffffffff16036132bb57816040517f5b08ba180000000000000000000000000000000000000000000000000000000081526004016132b29190613ed7565b60405180910390fd5b80600560008573ffffffffffffffffffffffffffffffffffffffff1673ffffffffffffffffffffffffffffffffffffffff16815260200190815260200160002060008473ffffffffffffffffffffffffffffffffffffffff1673ffffffffffffffffffffffffffffffffffffffff16815260200190815260200160002060006101000a81548160ff0219169083151502179055508173ffffffffffffffffffffffffffffffffffffffff168373ffffffffffffffffffffffffffffffffffffffff167f17307eab39ab6107e8899845ad3d59bd9653f200f220920489ca2b5937696c31836040516133ac9190613d66565b60405180910390a3505050565b60008373ffffffffffffffffffffffffffffffffffffffff163b111561356a578273ffffffffffffffffffffffffffffffffffffffff1663150b7a026133fd612a2f565b8685856040518563ffffffff1660e01b815260040161341f9493929190615325565b6020604051808303816000875af192505050801561345b57506040513d601f19601f820116820180604052508101906134589190615386565b60015b6134df573d806000811461348b576040519150601f19603f3d011682016040523d82523d6000602084013e613490565b606091505b5060008151036134d757836040517f64a0ae920000000000000000000000000000000000000000000000000000000081526004016134ce9190613ed7565b60405180910390fd5b805181602001fd5b63150b7a0260e01b7bffffffffffffffffffffffffffffffffffffffffffffffffffffffff1916817bffffffffffffffffffffffffffffffffffffffffffffffffffffffff19161461356857836040517f64a0ae9200000000000000000000000000000000000000000000000000000000815260040161355f9190613ed7565b60405180910390fd5b505b50505050565b606060405180602001604052806000815250905090565b6060600060016135968461391b565b01905060008167ffffffffffffffff8111156135b5576135b4613f68565b5b6040519080825280601f01601f1916602001820160405280156135e75781602001600182028036833780820191505090505b509050600082602001820190505b60011561364a578080600190039150507f3031323334353637383961626364656600000000000000000000000000000000600a86061a8153600a858161363e5761363d6153b3565b5b049450600085036135f5575b819350505050919050565b60006002600083815260200190815260200160002060009054906101000a900473ffffffffffffffffffffffffffffffffffffffff169050919050565b80806136cb5750600073ffffffffffffffffffffffffffffffffffffffff168273ffffffffffffffffffffffffffffffffffffffff1614155b156137ff5760006136db8461296a565b9050600073ffffffffffffffffffffffffffffffffffffffff168373ffffffffffffffffffffffffffffffffffffffff161415801561374657508273ffffffffffffffffffffffffffffffffffffffff168173ffffffffffffffffffffffffffffffffffffffff1614155b801561375957506137578184612704565b155b1561379b57826040517fa9fbf51f0000000000000000000000000000000000000000000000000000000081526004016137929190613ed7565b60405180910390fd5b81156137fd57838573ffffffffffffffffffffffffffffffffffffffff168273ffffffffffffffffffffffffffffffffffffffff167f8c5be1e5ebec7d5bd14f71427d1e84f3dd0314c0f7b2291e5b200ac8c7c3b92560405160405180910390a45b505b836004600085815260200190815260200160002060006101000a81548173ffffffffffffffffffffffffffffffffffffffff021916908373ffffffffffffffffffffffffffffffffffffffff16021790555050505050565b613862838383613a6e565b61391657600073ffffffffffffffffffffffffffffffffffffffff168373ffffffffffffffffffffffffffffffffffffffff16036138d757806040517f7e2732890000000000000000000000000000000000000000000000000000000081526004016138ce91906140eb565b60405180910390fd5b81816040517f177e802f00000000000000000000000000000000000000000000000000000000815260040161390d9291906153e2565b60405180910390fd5b505050565b600080600090507a184f03e93ff9f4daa797ed6e38ed64bf6a1f0100000000000000008310613979577a184f03e93ff9f4daa797ed6e38ed64bf6a1f010000000000000000838161396f5761396e6153b3565b5b0492506040810190505b6d04ee2d6d415b85acef810000000083106139b6576d04ee2d6d415b85acef810000000083816139ac576139ab6153b3565b5b0492506020810190505b662386f26fc1000083106139e557662386f26fc1000083816139db576139da6153b3565b5b0492506010810190505b6305f5e1008310613a0e576305f5e1008381613a0457613a036153b3565b5b0492506008810190505b6127108310613a33576127108381613a2957613a286153b3565b5b0492506004810190505b60648310613a565760648381613a4c57613a4b6153b3565b5b0492506002810190505b600a8310613a65576001810190505b80915050919050565b60008073ffffffffffffffffffffffffffffffffffffffff168373ffffffffffffffffffffffffffffffffffffffff1614158015613b2657508273ffffffffffffffffffffffffffffffffffffffff168473ffffffffffffffffffffffffffffffffffffffff161480613ae75750613ae68484612704565b5b80613b2557508273ffffffffffffffffffffffffffffffffffffffff16613b0d836129f2565b73ffffffffffffffffffffffffffffffffffffffff16145b5b90509392505050565b8260038101928215613b9b579160200282015b82811115613b9a5782518260006101000a81548173ffffffffffffffffffffffffffffffffffffffff021916908373ffffffffffffffffffffffffffffffffffffffff16021790555091602001919060010190613b42565b5b509050613ba89190613c95565b5090565b6040518060600160405280600390602082028036833780820191505090505090565b6040518060800160405280600073ffffffffffffffffffffffffffffffffffffffff168152602001600073ffffffffffffffffffffffffffffffffffffffff16815260200160006003811115613c2757613c26614563565b5b8152602001600081525090565b6040518061010001604052806000815260200160608152602001600073ffffffffffffffffffffffffffffffffffffffff16815260200160608152602001606081526020016060815260200160608152602001613c8f613bac565b81525090565b5b80821115613cae576000816000905550600101613c96565b5090565b6000604051905090565b600080fd5b600080fd5b60007fffffffff0000000000000000000000000000000000000000000000000000000082169050919050565b613cfb81613cc6565b8114613d0657600080fd5b50565b600081359050613d1881613cf2565b92915050565b600060208284031215613d3457613d33613cbc565b5b6000613d4284828501613d09565b91505092915050565b60008115159050919050565b613d6081613d4b565b82525050565b6000602082019050613d7b6000830184613d57565b92915050565b600081519050919050565b600082825260208201905092915050565b60005b83811015613dbb578082015181840152602081019050613da0565b60008484015250505050565b6000601f19601f8301169050919050565b6000613de382613d81565b613ded8185613d8c565b9350613dfd818560208601613d9d565b613e0681613dc7565b840191505092915050565b60006020820190508181036000830152613e2b8184613dd8565b905092915050565b6000819050919050565b613e4681613e33565b8114613e5157600080fd5b50565b600081359050613e6381613e3d565b92915050565b600060208284031215613e7f57613e7e613cbc565b5b6000613e8d84828501613e54565b91505092915050565b600073ffffffffffffffffffffffffffffffffffffffff82169050919050565b6000613ec182613e96565b9050919050565b613ed181613eb6565b82525050565b6000602082019050613eec6000830184613ec8565b92915050565b613efb81613eb6565b8114613f0657600080fd5b50565b600081359050613f1881613ef2565b92915050565b60008060408385031215613f3557613f34613cbc565b5b6000613f4385828601613f09565b9250506020613f5485828601613e54565b9150509250929050565b600080fd5b600080fd5b7f4e487b7100000000000000000000000000000000000000000000000000000000600052604160045260246000fd5b613fa082613dc7565b810181811067ffffffffffffffff82111715613fbf57613fbe613f68565b5b80604052505050565b6000613fd2613cb2565b9050613fde8282613f97565b919050565b600067ffffffffffffffff821115613ffe57613ffd613f68565b5b61400782613dc7565b9050602081019050919050565b82818337600083830152505050565b600061403661403184613fe3565b613fc8565b90508281526020810184848401111561405257614051613f63565b5b61405d848285614014565b509392505050565b600082601f83011261407a57614079613f5e565b5b813561408a848260208601614023565b91505092915050565b6000602082840312156140a9576140a8613cbc565b5b600082013567ffffffffffffffff8111156140c7576140c6613cc1565b5b6140d384828501614065565b91505092915050565b6140e581613e33565b82525050565b600060208201905061410060008301846140dc565b92915050565b60008060006060848603121561411f5761411e613cbc565b5b600061412d86828701613f09565b935050602061413e86828701613f09565b925050604061414f86828701613e54565b9150509250925092565b600067ffffffffffffffff82111561417457614173613f68565b5b602082029050919050565b600080fd5b600061419761419284614159565b613fc8565b905080602084028301858111156141b1576141b061417f565b5b835b818110156141da57806141c68882613f09565b8452602084019350506020810190506141b3565b5050509392505050565b600082601f8301126141f9576141f8613f5e565b5b6003614206848285614184565b91505092915050565b6000806080838503121561422657614225613cbc565b5b600061423485828601613f09565b9250506020614245858286016141e4565b9150509250929050565b60006020828403121561426557614264613cbc565b5b600061427384828501613f09565b91505092915050565b60008060008060008060c0878903121561429957614298613cbc565b5b600087013567ffffffffffffffff8111156142b7576142b6613cc1565b5b6142c389828a01614065565b96505060206142d489828a01613f09565b955050604087013567ffffffffffffffff8111156142f5576142f4613cc1565b5b61430189828a01614065565b945050606087013567ffffffffffffffff81111561432257614321613cc1565b5b61432e89828a01614065565b935050608087013567ffffffffffffffff81111561434f5761434e613cc1565b5b61435b89828a01614065565b92505060a087013567ffffffffffffffff81111561437c5761437b613cc1565b5b61438889828a01614065565b9150509295509295509295565b600060039050919050565b600081905092915050565b6000819050919050565b6143be81613eb6565b82525050565b60006143d083836143b5565b60208301905092915050565b6000602082019050919050565b6143f281614395565b6143fc81846143a0565b9250614407826143ab565b8060005b8381101561443857815161441f87826143c4565b965061442a836143dc565b92505060018101905061440b565b505050505050565b600060608201905061445560008301846143e9565b92915050565b6000806040838503121561447257614471613cbc565b5b600083013567ffffffffffffffff8111156144905761448f613cc1565b5b61449c85828601614065565b92505060206144ad85828601613f09565b9150509250929050565b6144c081613d4b565b81146144cb57600080fd5b50565b6000813590506144dd816144b7565b92915050565b600080604083850312156144fa576144f9613cbc565b5b600061450885828601613f09565b9250506020614519858286016144ce565b9150509250929050565b6000806040838503121561453a57614539613cbc565b5b600061454885828601613f09565b925050602061455985828601613f09565b9150509250929050565b7f4e487b7100000000000000000000000000000000000000000000000000000000600052602160045260246000fd5b600481106145a3576145a2614563565b5b50565b60008190506145b482614592565b919050565b60006145c4826145a6565b9050919050565b6145d4816145b9565b82525050565b60006080820190506145ef6000830187613ec8565b6145fc6020830186613ec8565b61460960408301856145cb565b61461660608301846140dc565b95945050505050565b600067ffffffffffffffff82111561463a57614639613f68565b5b61464382613dc7565b9050602081019050919050565b600061466361465e8461461f565b613fc8565b90508281526020810184848401111561467f5761467e613f63565b5b61468a848285614014565b509392505050565b600082601f8301126146a7576146a6613f5e565b5b81356146b7848260208601614650565b91505092915050565b600080600080608085870312156146da576146d9613cbc565b5b60006146e887828801613f09565b94505060206146f987828801613f09565b935050604061470a87828801613e54565b925050606085013567ffffffffffffffff81111561472b5761472a613cc1565b5b61473787828801614692565b91505092959194509250565b600081519050919050565b600082825260208201905092915050565b6000819050602082019050919050565b614778816145b9565b82525050565b61478781613e33565b82525050565b6080820160008201516147a360008501826143b5565b5060208201516147b660208501826143b5565b5060408201516147c9604085018261476f565b5060608201516147dc606085018261477e565b50505050565b60006147ee838361478d565b60808301905092915050565b6000602082019050919050565b600061481282614743565b61481c818561474e565b93506148278361475f565b8060005b8381101561485857815161483f88826147e2565b975061484a836147fa565b92505060018101905061482b565b5085935050505092915050565b6000602082019050818103600083015261487f8184614807565b905092915050565b7f4e487b7100000000000000000000000000000000000000000000000000000000600052602260045260246000fd5b600060028204905060018216806148ce57607f821691505b6020821081036148e1576148e0614887565b5b50919050565b600081905092915050565b60006148fd82613d81565b61490781856148e7565b9350614917818560208601613d9d565b80840191505092915050565b600061492f82846148f2565b915081905092915050565b7f416363657373207265717565737420616c726561647920657869737473000000600082015250565b6000614970601d83613d8c565b915061497b8261493a565b602082019050919050565b6000602082019050818103600083015261499f81614963565b9050919050565b60006040820190506149bb6000830185613ec8565b6149c86020830184613ec8565b9392505050565b60006060820190506149e46000830186613ec8565b6149f160208301856140dc565b6149fe6040830184613ec8565b949350505050565b7f546f6f206d616e7920656d657267656e637920636f6e74616374730000000000600082015250565b6000614a3c601b83613d8c565b9150614a4782614a06565b602082019050919050565b60006020820190508181036000830152614a6b81614a2f565b9050919050565b7f4e487b7100000000000000000000000000000000000000000000000000000000600052603260045260246000fd5b7f4e487b7100000000000000000000000000000000000000000000000000000000600052601160045260246000fd5b6000614adb82613e33565b91507fffffffffffffffffffffffffffffffffffffffffffffffffffffffffffffffff8203614b0d57614b0c614aa1565b5b600182019050919050565b7f4f6e6c79207468652070617469656e742063616e2063616c6c2074686973206660008201527f756e6374696f6e00000000000000000000000000000000000000000000000000602082015250565b6000614b74602783613d8c565b9150614b7f82614b18565b604082019050919050565b60006020820190508181036000830152614ba381614b67565b9050919050565b7f75736572206973206e6f7420612070617469656e74206f7220646f65736e742060008201527f686176652061206d65646963616c206361726400000000000000000000000000602082015250565b6000614c06603383613d8c565b9150614c1182614baa565b604082019050919050565b60006020820190508181036000830152614c3581614bf9565b9050919050565b7f4e6f2070656e64696e6720616363657373207265717565737400000000000000600082015250565b6000614c72601983613d8c565b9150614c7d82614c3c565b602082019050919050565b60006020820190508181036000830152614ca181614c65565b9050919050565b60008190508160005260206000209050919050565b60006020601f8301049050919050565b600082821b905092915050565b600060088302614d0a7fffffffffffffffffffffffffffffffffffffffffffffffffffffffffffffffff82614ccd565b614d148683614ccd565b95508019841693508086168417925050509392505050565b6000819050919050565b6000614d51614d4c614d4784613e33565b614d2c565b613e33565b9050919050565b6000819050919050565b614d6b83614d36565b614d7f614d7782614d58565b848454614cda565b825550505050565b600090565b614d94614d87565b614d9f818484614d62565b505050565b5b81811015614dc357614db8600082614d8c565b600181019050614da5565b5050565b601f821115614e0857614dd981614ca8565b614de284614cbd565b81016020851015614df1578190505b614e05614dfd85614cbd565b830182614da4565b50505b505050565b600082821c905092915050565b6000614e2b60001984600802614e0d565b1980831691505092915050565b6000614e448383614e1a565b9150826002028217905092915050565b614e5d82613d81565b67ffffffffffffffff811115614e7657614e75613f68565b5b614e8082546148b6565b614e8b828285614dc7565b600060209050601f831160018114614ebe5760008415614eac578287015190505b614eb68582614e38565b865550614f1e565b601f198416614ecc86614ca8565b60005b82811015614ef457848901518255600182019150602085019450602081019050614ecf565b86831015614f115784890151614f0d601f891682614e1a565b8355505b6001600288020188555050505b505050505050565b7f64756d6d79000000000000000000000000000000000000000000000000000000600082015250565b6000614f5c6005836148e7565b9150614f6782614f26565b600582019050919050565b6000614f7d82614f4f565b9150819050919050565b7f7468657265206973206e6f207265676973746572656420757365727300000000600082015250565b6000614fbd601c83613d8c565b9150614fc882614f87565b602082019050919050565b60006020820190508181036000830152614fec81614fb0565b9050919050565b50565b60006150036000836148e7565b915061500e82614ff3565b600082019050919050565b600061502482614ff6565b9150819050919050565b6000815461503b816148b6565b61504581866148e7565b945060018216600081146150605760018114615075576150a8565b60ff19831686528115158202860193506150a8565b61507e85614ca8565b60005b838110156150a057815481890152600182019150602081019050615081565b838801955050505b50505092915050565b60006150bd828461502e565b915081905092915050565b7f5573657220686173206e6f206865616c74682063617264000000000000000000600082015250565b60006150fe601783613d8c565b9150615109826150c8565b602082019050919050565b6000602082019050818103600083015261512d816150f1565b9050919050565b7f416363657373206e6f7420617070726f76656400000000000000000000000000600082015250565b600061516a601383613d8c565b915061517582615134565b602082019050919050565b600060208201905081810360008301526151998161515d565b9050919050565b7f4163636573732068617320657870697265640000000000000000000000000000600082015250565b60006151d6601283613d8c565b91506151e1826151a0565b602082019050919050565b60006020820190508181036000830152615205816151c9565b9050919050565b7f7573657220686173206e6f206d65646963616c207265636f7264730000000000600082015250565b6000615242601b83613d8c565b915061524d8261520c565b602082019050919050565b6000602082019050818103600083015261527181615235565b9050919050565b600061528382613e33565b915061528e83613e33565b92508282019050808211156152a6576152a5614aa1565b5b92915050565b60006152b882856148f2565b91506152c482846148f2565b91508190509392505050565b600081519050919050565b600082825260208201905092915050565b60006152f7826152d0565b61530181856152db565b9350615311818560208601613d9d565b61531a81613dc7565b840191505092915050565b600060808201905061533a6000830187613ec8565b6153476020830186613ec8565b61535460408301856140dc565b818103606083015261536681846152ec565b905095945050505050565b60008151905061538081613cf2565b92915050565b60006020828403121561539c5761539b613cbc565b5b60006153aa84828501615371565b91505092915050565b7f4e487b7100000000000000000000000000000000000000000000000000000000600052601260045260246000fd5b60006040820190506153f76000830185613ec8565b61540460208301846140dc565b939250505056fe7265636f726473206f6e6c792061636365737369626c65206279207468652070617469656e74a26469706673582212203471154f1dd87ccd1e6da651fb104c8d623d4cb259337a93ba268248e22b93a864736f6c63430008140033",
  "linkReferences": {},
  "deployedLinkReferences": {}
}