{
  "_format": "hh-sol-artifact-1",
  "contractName": "HealthCard",
  "sourceName": "contracts/EHealthCard.sol",
  "abi": [
    {
      "inputs": [
        {
          "internalType": "address",
          "name": "_owner",
          "type": "address"
        }
      ],
      "stateMutability": "nonpayable",
      "type": "constructor"
    },
    {
      "inputs": [
        {
          "internalType": "address",
          "name": "sender",
          "type": "address"
        },
        {
          "internalType": "uint256",
          "name": "tokenId",
          "type": "uint256"
        },
        {
          "internalType": "address",
          "name": "owner",
          "type": "address"
        }
      ],
      "name": "ERC721IncorrectOwner",
      "type": "error"
    },
    {
      "inputs": [
        {
          "internalType": "address",
          "name": "operator",
          "type": "address"
        },
        {
          "internalType": "uint256",
          "name": "tokenId",
          "type": "uint256"
        }
      ],
      "name": "ERC721InsufficientApproval",
      "type": "error"
    },
    {
      "inputs": [
        {
          "internalType": "address",
          "name": "approver",
          "type": "address"
        }
      ],
      "name": "ERC721InvalidApprover",
      "type": "error"
    },
    {
      "inputs": [
        {
          "internalType": "address",
          "name": "operator",
          "type": "address"
        }
      ],
      "name": "ERC721InvalidOperator",
      "type": "error"
    },
    {
      "inputs": [
        {
          "internalType": "address",
          "name": "owner",
          "type": "address"
        }
      ],
      "name": "ERC721InvalidOwner",
      "type": "error"
    },
    {
      "inputs": [
        {
          "internalType": "address",
          "name": "receiver",
          "type": "address"
        }
      ],
      "name": "ERC721InvalidReceiver",
      "type": "error"
    },
    {
      "inputs": [
        {
          "internalType": "address",
          "name": "sender",
          "type": "address"
        }
      ],
      "name": "ERC721InvalidSender",
      "type": "error"
    },
    {
      "inputs": [
        {
          "internalType": "uint256",
          "name": "tokenId",
          "type": "uint256"
        }
      ],
      "name": "ERC721NonexistentToken",
      "type": "error"
    },
    {
      "anonymous": false,
      "inputs": [
        {
          "indexed": false,
          "internalType": "address",
          "name": "patient",
          "type": "address"
        },
        {
          "indexed": false,
          "internalType": "address",
          "name": "provider",
          "type": "address"
        }
      ],
      "name": "AccessApproved",
      "type": "event"
    },
    {
      "anonymous": false,
      "inputs": [
        {
          "indexed": false,
          "internalType": "address",
          "name": "patient",
          "type": "address"
        },
        {
          "indexed": false,
          "internalType": "address",
          "name": "provider",
          "type": "address"
        }
      ],
      "name": "AccessRejected",
      "type": "event"
    },
    {
      "anonymous": false,
      "inputs": [
        {
          "indexed": false,
          "internalType": "address",
          "name": "patient",
          "type": "address"
        },
        {
          "indexed": false,
          "internalType": "address",
          "name": "provider",
          "type": "address"
        }
      ],
      "name": "AccessRequested",
      "type": "event"
    },
    {
      "anonymous": false,
      "inputs": [
        {
          "indexed": true,
          "internalType": "address",
          "name": "owner",
          "type": "address"
        },
        {
          "indexed": true,
          "internalType": "address",
          "name": "approved",
          "type": "address"
        },
        {
          "indexed": true,
          "internalType": "uint256",
          "name": "tokenId",
          "type": "uint256"
        }
      ],
      "name": "Approval",
      "type": "event"
    },
    {
      "anonymous": false,
      "inputs": [
        {
          "indexed": true,
          "internalType": "address",
          "name": "owner",
          "type": "address"
        },
        {
          "indexed": true,
          "internalType": "address",
          "name": "operator",
          "type": "address"
        },
        {
          "indexed": false,
          "internalType": "bool",
          "name": "approved",
          "type": "bool"
        }
      ],
      "name": "ApprovalForAll",
      "type": "event"
    },
    {
      "anonymous": false,
      "inputs": [
        {
          "indexed": true,
          "internalType": "address",
          "name": "from",
          "type": "address"
        },
        {
          "indexed": true,
          "internalType": "address",
          "name": "to",
          "type": "address"
        },
        {
          "indexed": true,
          "internalType": "uint256",
          "name": "tokenId",
          "type": "uint256"
        }
      ],
      "name": "Transfer",
      "type": "event"
    },
    {
      "inputs": [
        {
          "internalType": "address",
          "name": "",
          "type": "address"
        },
        {
          "internalType": "address",
          "name": "",
          "type": "address"
        }
      ],
      "name": "accessRequests",
      "outputs": [
        {
          "internalType": "address",
          "name": "hpprovider",
          "type": "address"
        },
        {
          "internalType": "address",
          "name": "patient",
          "type": "address"
        },
        {
          "internalType": "enum HealthCard.AccessStatus",
          "name": "status",
          "type": "uint8"
        },
        {
          "internalType": "uint256",
          "name": "expiryTime",
          "type": "uint256"
        }
      ],
      "stateMutability": "view",
      "type": "function"
    },
    {
      "inputs": [
        {
          "internalType": "address",
          "name": "to",
          "type": "address"
        },
        {
          "internalType": "uint256",
          "name": "tokenId",
          "type": "uint256"
        }
      ],
      "name": "approve",
      "outputs": [],
      "stateMutability": "nonpayable",
      "type": "function"
    },
    {
      "inputs": [
        {
          "internalType": "address",
          "name": "hprovider",
          "type": "address"
        },
        {
          "internalType": "uint256",
          "name": "duration",
          "type": "uint256"
        }
      ],
      "name": "approveAccess",
      "outputs": [],
      "stateMutability": "nonpayable",
      "type": "function"
    },
    {
      "inputs": [
        {
          "internalType": "address",
          "name": "owner",
          "type": "address"
        }
      ],
      "name": "balanceOf",
      "outputs": [
        {
          "internalType": "uint256",
          "name": "",
          "type": "uint256"
        }
      ],
      "stateMutability": "view",
      "type": "function"
    },
    {
      "inputs": [
        {
          "internalType": "string",
          "name": "_link",
          "type": "string"
        }
      ],
      "name": "changeStorageLink",
      "outputs": [],
      "stateMutability": "nonpayable",
      "type": "function"
    },
    {
      "inputs": [
        {
          "internalType": "string",
          "name": "_link",
          "type": "string"
        },
        {
          "internalType": "address",
          "name": "patient",
          "type": "address"
        }
      ],
      "name": "changeStorageLinkForHP",
      "outputs": [],
      "stateMutability": "nonpayable",
      "type": "function"
    },
    {
      "inputs": [
        {
          "internalType": "uint256",
          "name": "tokenId",
          "type": "uint256"
        }
      ],
      "name": "getApproved",
      "outputs": [
        {
          "internalType": "address",
          "name": "",
          "type": "address"
        }
      ],
      "stateMutability": "view",
      "type": "function"
    },
    {
      "inputs": [
        {
          "internalType": "string",
          "name": "idNumber",
          "type": "string"
        }
      ],
      "name": "getEmergencyContacts",
      "outputs": [
        {
          "internalType": "address[3]",
          "name": "contacts",
          "type": "address[3]"
        }
      ],
      "stateMutability": "view",
      "type": "function"
    },
    {
      "inputs": [
        {
          "internalType": "string",
          "name": "_id",
          "type": "string"
        },
        {
          "internalType": "address",
          "name": "patient",
          "type": "address"
        }
      ],
      "name": "getStorageLinkForHP",
      "outputs": [
        {
          "internalType": "string",
          "name": "",
          "type": "string"
        }
      ],
      "stateMutability": "view",
      "type": "function"
    },
    {
      "inputs": [
        {
          "internalType": "string",
          "name": "_id",
          "type": "string"
        }
      ],
      "name": "getStorageLinkPatient",
      "outputs": [
        {
          "internalType": "string",
          "name": "",
          "type": "string"
        }
      ],
      "stateMutability": "view",
      "type": "function"
    },
    {
      "inputs": [
        {
          "internalType": "address",
          "name": "owner",
          "type": "address"
        },
        {
          "internalType": "address",
          "name": "operator",
          "type": "address"
        }
      ],
      "name": "isApprovedForAll",
      "outputs": [
        {
          "internalType": "bool",
          "name": "",
          "type": "bool"
        }
      ],
      "stateMutability": "view",
      "type": "function"
    },
    {
      "inputs": [
        {
          "internalType": "address",
          "name": "userAddress",
          "type": "address"
        }
      ],
      "name": "isRegistered",
      "outputs": [
        {
          "internalType": "bool",
          "name": "",
          "type": "bool"
        }
      ],
      "stateMutability": "view",
      "type": "function"
    },
    {
      "inputs": [],
      "name": "length",
      "outputs": [
        {
          "internalType": "uint256",
          "name": "",
          "type": "uint256"
        }
      ],
      "stateMutability": "view",
      "type": "function"
    },
    {
      "inputs": [
        {
          "internalType": "string",
          "name": "_id",
          "type": "string"
        },
        {
          "internalType": "string",
          "name": "_link",
          "type": "string"
        },
        {
          "internalType": "address",
          "name": "_walletAddress",
          "type": "address"
        },
        {
          "internalType": "string",
          "name": "_dateOfBirth",
          "type": "string"
        },
        {
          "internalType": "string",
          "name": "_gender",
          "type": "string"
        },
        {
          "internalType": "string",
          "name": "_bloodType",
          "type": "string"
        },
        {
          "internalType": "string",
          "name": "_IdNumber",
          "type": "string"
        }
      ],
      "name": "mintHealthCard",
      "outputs": [],
      "stateMutability": "nonpayable",
      "type": "function"
    },
    {
      "inputs": [],
      "name": "name",
      "outputs": [
        {
          "internalType": "string",
          "name": "",
          "type": "string"
        }
      ],
      "stateMutability": "view",
      "type": "function"
    },
    {
      "inputs": [
        {
          "internalType": "uint256",
          "name": "tokenId",
          "type": "uint256"
        }
      ],
      "name": "ownerOf",
      "outputs": [
        {
          "internalType": "address",
          "name": "",
          "type": "address"
        }
      ],
      "stateMutability": "view",
      "type": "function"
    },
    {
      "inputs": [
        {
          "internalType": "address",
          "name": "hprovider",
          "type": "address"
        }
      ],
      "name": "rejectAccess",
      "outputs": [],
      "stateMutability": "nonpayable",
      "type": "function"
    },
    {
      "inputs": [
        {
          "internalType": "address",
          "name": "patient",
          "type": "address"
        }
      ],
      "name": "requestAccess",
      "outputs": [],
      "stateMutability": "nonpayable",
      "type": "function"
    },
    {
      "inputs": [
        {
          "internalType": "address",
          "name": "from",
          "type": "address"
        },
        {
          "internalType": "address",
          "name": "to",
          "type": "address"
        },
        {
          "internalType": "uint256",
          "name": "tokenId",
          "type": "uint256"
        }
      ],
      "name": "safeTransferFrom",
      "outputs": [],
      "stateMutability": "nonpayable",
      "type": "function"
    },
    {
      "inputs": [
        {
          "internalType": "address",
          "name": "from",
          "type": "address"
        },
        {
          "internalType": "address",
          "name": "to",
          "type": "address"
        },
        {
          "internalType": "uint256",
          "name": "tokenId",
          "type": "uint256"
        },
        {
          "internalType": "bytes",
          "name": "data",
          "type": "bytes"
        }
      ],
      "name": "safeTransferFrom",
      "outputs": [],
      "stateMutability": "nonpayable",
      "type": "function"
    },
    {
      "inputs": [
        {
          "internalType": "address",
          "name": "operator",
          "type": "address"
        },
        {
          "internalType": "bool",
          "name": "approved",
          "type": "bool"
        }
      ],
      "name": "setApprovalForAll",
      "outputs": [],
      "stateMutability": "nonpayable",
      "type": "function"
    },
    {
      "inputs": [
        {
          "internalType": "address",
          "name": "_address",
          "type": "address"
        },
        {
          "internalType": "address[3]",
          "name": "econtacts",
          "type": "address[3]"
        }
      ],
      "name": "setEmergencyContacts",
      "outputs": [],
      "stateMutability": "nonpayable",
      "type": "function"
    },
    {
      "inputs": [
        {
          "internalType": "bytes4",
          "name": "interfaceId",
          "type": "bytes4"
        }
      ],
      "name": "supportsInterface",
      "outputs": [
        {
          "internalType": "bool",
          "name": "",
          "type": "bool"
        }
      ],
      "stateMutability": "view",
      "type": "function"
    },
    {
      "inputs": [],
      "name": "symbol",
      "outputs": [
        {
          "internalType": "string",
          "name": "",
          "type": "string"
        }
      ],
      "stateMutability": "view",
      "type": "function"
    },
    {
      "inputs": [
        {
          "internalType": "uint256",
          "name": "tokenId",
          "type": "uint256"
        }
      ],
      "name": "tokenURI",
      "outputs": [
        {
          "internalType": "string",
          "name": "",
          "type": "string"
        }
      ],
      "stateMutability": "view",
      "type": "function"
    },
    {
      "inputs": [
        {
          "internalType": "address",
          "name": "from",
          "type": "address"
        },
        {
          "internalType": "address",
          "name": "to",
          "type": "address"
        },
        {
          "internalType": "uint256",
          "name": "tokenId",
          "type": "uint256"
        }
      ],
      "name": "transferFrom",
      "outputs": [],
      "stateMutability": "nonpayable",
      "type": "function"
    }
  ],
  "bytecode": "0x60806040526000600b556040518061010001604052806040518060400160405280600581526020017f64756d6d7900000000000000000000000000000000000000000000000000000081525081526020016040518060400160405280600581526020017f64756d6d7900000000000000000000000000000000000000000000000000000081525081526020017320cb94e4e6b287b9f9a4af6c1b2356468ba35be373ffffffffffffffffffffffffffffffffffffffff1681526020016040518060400160405280600581526020017f64756d6d7900000000000000000000000000000000000000000000000000000081525081526020016040518060400160405280600581526020017f64756d6d7900000000000000000000000000000000000000000000000000000081525081526020016040518060400160405280600581526020017f64756d6d7900000000000000000000000000000000000000000000000000000081525081526020016040518060400160405280600581526020017f64756d6d7900000000000000000000000000000000000000000000000000000081525081526020016040518060600160405280600073ffffffffffffffffffffffffffffffffffffffff1673ffffffffffffffffffffffffffffffffffffffff168152602001600073ffffffffffffffffffffffffffffffffffffffff1673ffffffffffffffffffffffffffffffffffffffff168152602001600073ffffffffffffffffffffffffffffffffffffffff1673ffffffffffffffffffffffffffffffffffffffff16815250815250600c600082015181600001908162000265919062000769565b5060208201518160010190816200027d919062000769565b5060408201518160020160006101000a81548173ffffffffffffffffffffffffffffffffffffffff021916908373ffffffffffffffffffffffffffffffffffffffff1602179055506060820151816003019081620002dc919062000769565b506080820151816004019081620002f4919062000769565b5060a08201518160050190816200030c919062000769565b5060c082015181600601908162000324919062000769565b5060e0820151816007019060036200033e9291906200044e565b5050503480156200034e57600080fd5b5060405162005794380380620057948339818101604052810190620003749190620008ba565b6040518060400160405280600b81526020017f454865616c7468436172640000000000000000000000000000000000000000008152506040518060400160405280600381526020017f45484300000000000000000000000000000000000000000000000000000000008152508160009081620003f1919062000769565b50806001908162000403919062000769565b50505080600660006101000a81548173ffffffffffffffffffffffffffffffffffffffff021916908373ffffffffffffffffffffffffffffffffffffffff16021790555050620008ec565b8260038101928215620004bd579160200282015b82811115620004bc5782518260006101000a81548173ffffffffffffffffffffffffffffffffffffffff021916908373ffffffffffffffffffffffffffffffffffffffff1602179055509160200191906001019062000462565b5b509050620004cc9190620004d0565b5090565b5b80821115620004eb576000816000905550600101620004d1565b5090565b600081519050919050565b7f4e487b7100000000000000000000000000000000000000000000000000000000600052604160045260246000fd5b7f4e487b7100000000000000000000000000000000000000000000000000000000600052602260045260246000fd5b600060028204905060018216806200057157607f821691505b60208210810362000587576200058662000529565b5b50919050565b60008190508160005260206000209050919050565b60006020601f8301049050919050565b600082821b905092915050565b600060088302620005f17fffffffffffffffffffffffffffffffffffffffffffffffffffffffffffffffff82620005b2565b620005fd8683620005b2565b95508019841693508086168417925050509392505050565b6000819050919050565b6000819050919050565b60006200064a620006446200063e8462000615565b6200061f565b62000615565b9050919050565b6000819050919050565b620006668362000629565b6200067e620006758262000651565b848454620005bf565b825550505050565b600090565b6200069562000686565b620006a28184846200065b565b505050565b5b81811015620006ca57620006be6000826200068b565b600181019050620006a8565b5050565b601f8211156200071957620006e3816200058d565b620006ee84620005a2565b81016020851015620006fe578190505b620007166200070d85620005a2565b830182620006a7565b50505b505050565b600082821c905092915050565b60006200073e600019846008026200071e565b1980831691505092915050565b60006200075983836200072b565b9150826002028217905092915050565b6200077482620004ef565b67ffffffffffffffff81111562000790576200078f620004fa565b5b6200079c825462000558565b620007a9828285620006ce565b600060209050601f831160018114620007e15760008415620007cc578287015190505b620007d885826200074b565b86555062000848565b601f198416620007f1866200058d565b60005b828110156200081b57848901518255600182019150602085019450602081019050620007f4565b868310156200083b578489015162000837601f8916826200072b565b8355505b6001600288020188555050505b505050505050565b600080fd5b600073ffffffffffffffffffffffffffffffffffffffff82169050919050565b6000620008828262000855565b9050919050565b620008948162000875565b8114620008a057600080fd5b50565b600081519050620008b48162000889565b92915050565b600060208284031215620008d357620008d262000850565b5b6000620008e384828501620008a3565b91505092915050565b614e9880620008fc6000396000f3fe608060405234801561001057600080fd5b506004361061018e5760003560e01c80636b6817c0116100de578063ab4f232911610097578063c87b56dd11610071578063c87b56dd146104a4578063e985e9c5146104d4578063f033f41014610504578063f324072f146105345761018e565b8063ab4f232914610425578063b88d4fde14610458578063c3c5a547146104745761018e565b80636b6817c01461036757806370a08231146103835780637f7190f6146103b357806395d89b41146103cf578063a2236616146103ed578063a22cb465146104095761018e565b80631f7b6d321161014b5780633141172c116101255780633141172c146102cf57806336bbe85b146102eb57806342842e0e1461031b5780636352211e146103375761018e565b80631f7b6d321461027957806323b872dd14610297578063267af302146102b35761018e565b806301ffc9a714610193578063022cb271146101c357806306fdde03146101df578063081812fc146101fd578063095ea7b31461022d5780630e00512614610249575b600080fd5b6101ad60048036038101906101a89190613862565b610550565b6040516101ba91906138aa565b60405180910390f35b6101dd60048036038101906101d89190613923565b610632565b005b6101e7610909565b6040516101f491906139e0565b60405180910390f35b61021760048036038101906102129190613a38565b61099b565b6040516102249190613a74565b60405180910390f35b61024760048036038101906102429190613a8f565b6109b7565b005b610263600480360381019061025e9190613c04565b6109cd565b60405161027091906139e0565b60405180910390f35b610281610aee565b60405161028e9190613c5c565b60405180910390f35b6102b160048036038101906102ac9190613c77565b610af4565b005b6102cd60048036038101906102c89190613d80565b610bf6565b005b6102e960048036038101906102e49190613923565b610d63565b005b61030560048036038101906103009190613c04565b61107b565b6040516103129190613e6b565b60405180910390f35b61033560048036038101906103309190613c77565b6111e8565b005b610351600480360381019061034c9190613a38565b611208565b60405161035e9190613a74565b60405180910390f35b610381600480360381019061037c9190613e86565b61121a565b005b61039d60048036038101906103989190613923565b611631565b6040516103aa9190613c5c565b60405180910390f35b6103cd60048036038101906103c89190613fd0565b6116eb565b005b6103d7611a09565b6040516103e491906139e0565b60405180910390f35b61040760048036038101906104029190613a8f565b611a9b565b005b610423600480360381019061041e9190614058565b611dd3565b005b61043f600480360381019061043a9190614098565b611de9565b60405161044f949392919061414f565b60405180910390f35b610472600480360381019061046d9190614235565b611e73565b005b61048e60048036038101906104899190613923565b611e90565b60405161049b91906138aa565b60405180910390f35b6104be60048036038101906104b99190613a38565b611f3a565b6040516104cb91906139e0565b60405180910390f35b6104ee60048036038101906104e99190614098565b611fa3565b6040516104fb91906138aa565b60405180910390f35b61051e60048036038101906105199190613fd0565b612037565b60405161052b91906139e0565b60405180910390f35b61054e60048036038101906105499190613c04565b6122ba565b005b60007f80ac58cd000000000000000000000000000000000000000000000000000000007bffffffffffffffffffffffffffffffffffffffffffffffffffffffff1916827bffffffffffffffffffffffffffffffffffffffffffffffffffffffff1916148061061b57507f5b5e139f000000000000000000000000000000000000000000000000000000007bffffffffffffffffffffffffffffffffffffffffffffffffffffffff1916827bffffffffffffffffffffffffffffffffffffffffffffffffffffffff1916145b8061062b575061062a82612422565b5b9050919050565b60006003811115610646576106456140d8565b5b600a60003373ffffffffffffffffffffffffffffffffffffffff1673ffffffffffffffffffffffffffffffffffffffff16815260200190815260200160002060008373ffffffffffffffffffffffffffffffffffffffff1673ffffffffffffffffffffffffffffffffffffffff16815260200190815260200160002060010160149054906101000a900460ff1660038111156106e5576106e46140d8565b5b14610725576040517f08c379a000000000000000000000000000000000000000000000000000000000815260040161071c90614304565b60405180910390fd5b60405180608001604052803373ffffffffffffffffffffffffffffffffffffffff1681526020018273ffffffffffffffffffffffffffffffffffffffff1681526020016001600381111561077c5761077b6140d8565b5b81526020016000815250600a60003373ffffffffffffffffffffffffffffffffffffffff1673ffffffffffffffffffffffffffffffffffffffff16815260200190815260200160002060008373ffffffffffffffffffffffffffffffffffffffff1673ffffffffffffffffffffffffffffffffffffffff16815260200190815260200160002060008201518160000160006101000a81548173ffffffffffffffffffffffffffffffffffffffff021916908373ffffffffffffffffffffffffffffffffffffffff16021790555060208201518160010160006101000a81548173ffffffffffffffffffffffffffffffffffffffff021916908373ffffffffffffffffffffffffffffffffffffffff16021790555060408201518160010160146101000a81548160ff021916908360038111156108bb576108ba6140d8565b5b0217905550606082015181600201559050507f40c7749b16fdfb0d550f20273a7767875059d647af94f5a9610c63ad73dcc79f33826040516108fe929190614324565b60405180910390a150565b6060600080546109189061437c565b80601f01602080910402602001604051908101604052809291908181526020018280546109449061437c565b80156109915780601f1061096657610100808354040283529160200191610991565b820191906000526020600020905b81548152906001019060200180831161097457829003601f168201915b5050505050905090565b60006109a68261248c565b506109b082612514565b9050919050565b6109c982826109c4612551565b612559565b5050565b606060006009836040516109e191906143e9565b908152602001604051809103902060009054906101000a900473ffffffffffffffffffffffffffffffffffffffff169050600073ffffffffffffffffffffffffffffffffffffffff168173ffffffffffffffffffffffffffffffffffffffff1603610a84576040518060400160405280601681526020017f75736572206973206e6f74207265676973746572656400000000000000000000815250915050610ae9565b8073ffffffffffffffffffffffffffffffffffffffff163373ffffffffffffffffffffffffffffffffffffffff1614610ad857604051806060016040528060268152602001614e3d60269139915050610ae9565b610ae18161256b565b602001519150505b919050565b600b5481565b600073ffffffffffffffffffffffffffffffffffffffff168273ffffffffffffffffffffffffffffffffffffffff1603610b665760006040517f64a0ae92000000000000000000000000000000000000000000000000000000008152600401610b5d9190613a74565b60405180910390fd5b6000610b7a8383610b75612551565b612ae1565b90508373ffffffffffffffffffffffffffffffffffffffff168173ffffffffffffffffffffffffffffffffffffffff1614610bf0578382826040517f64283d7b000000000000000000000000000000000000000000000000000000008152600401610be793929190614400565b60405180910390fd5b50505050565b600660009054906101000a900473ffffffffffffffffffffffffffffffffffffffff1673ffffffffffffffffffffffffffffffffffffffff163373ffffffffffffffffffffffffffffffffffffffff1614610c5057600080fd5b6003801115610c94576040517f08c379a0000000000000000000000000000000000000000000000000000000008152600401610c8b90614483565b60405180910390fd5b60005b6003811015610d5e57818160038110610cb357610cb26144a3565b5b6020020151600860008573ffffffffffffffffffffffffffffffffffffffff1673ffffffffffffffffffffffffffffffffffffffff1681526020019081526020016000206007018260038110610d0c57610d0b6144a3565b5b0160006101000a81548173ffffffffffffffffffffffffffffffffffffffff021916908373ffffffffffffffffffffffffffffffffffffffff1602179055508080610d5690614501565b915050610c97565b505050565b338073ffffffffffffffffffffffffffffffffffffffff163373ffffffffffffffffffffffffffffffffffffffff1614610dd2576040517f08c379a0000000000000000000000000000000000000000000000000000000008152600401610dc9906145bb565b60405180910390fd5b600073ffffffffffffffffffffffffffffffffffffffff16600860008373ffffffffffffffffffffffffffffffffffffffff1673ffffffffffffffffffffffffffffffffffffffff16815260200190815260200160002060020160009054906101000a900473ffffffffffffffffffffffffffffffffffffffff1673ffffffffffffffffffffffffffffffffffffffff1603610ea3576040517f08c379a0000000000000000000000000000000000000000000000000000000008152600401610e9a9061464d565b60405180910390fd5b60016003811115610eb757610eb66140d8565b5b600a60008473ffffffffffffffffffffffffffffffffffffffff1673ffffffffffffffffffffffffffffffffffffffff16815260200190815260200160002060003373ffffffffffffffffffffffffffffffffffffffff1673ffffffffffffffffffffffffffffffffffffffff16815260200190815260200160002060010160149054906101000a900460ff166003811115610f5657610f556140d8565b5b14610f96576040517f08c379a0000000000000000000000000000000000000000000000000000000008152600401610f8d906146b9565b60405180910390fd5b6003600a60008473ffffffffffffffffffffffffffffffffffffffff1673ffffffffffffffffffffffffffffffffffffffff16815260200190815260200160002060003373ffffffffffffffffffffffffffffffffffffffff1673ffffffffffffffffffffffffffffffffffffffff16815260200190815260200160002060010160146101000a81548160ff02191690836003811115611039576110386140d8565b5b02179055507f6586985f73a63d005b52bd5a5791732c40ec70b8fc067ab89f5c402185f0c6ea338360405161106f929190614324565b60405180910390a15050565b6110836136d9565b600060098360405161109591906143e9565b908152602001604051809103902060009054906101000a900473ffffffffffffffffffffffffffffffffffffffff16905060006110d18261256b565b90506040516020016110e290614725565b60405160208183030381529060405280519060200120816020015160405160200161110d91906143e9565b60405160208183030381529060405280519060200120036111d95760006040518060600160405280600073ffffffffffffffffffffffffffffffffffffffff1673ffffffffffffffffffffffffffffffffffffffff168152602001600073ffffffffffffffffffffffffffffffffffffffff1673ffffffffffffffffffffffffffffffffffffffff168152602001600073ffffffffffffffffffffffffffffffffffffffff1673ffffffffffffffffffffffffffffffffffffffff1681525090508093505050506111e3565b8060e00151925050505b919050565b61120383838360405180602001604052806000815250611e73565b505050565b60006112138261248c565b9050919050565b600660009054906101000a900473ffffffffffffffffffffffffffffffffffffffff1673ffffffffffffffffffffffffffffffffffffffff163373ffffffffffffffffffffffffffffffffffffffff161461127457600080fd5b60006040518061010001604052808981526020018881526020018773ffffffffffffffffffffffffffffffffffffffff1681526020018681526020018581526020018481526020018381526020016040518060600160405280600073ffffffffffffffffffffffffffffffffffffffff1673ffffffffffffffffffffffffffffffffffffffff168152602001600073ffffffffffffffffffffffffffffffffffffffff1673ffffffffffffffffffffffffffffffffffffffff168152602001600073ffffffffffffffffffffffffffffffffffffffff1673ffffffffffffffffffffffffffffffffffffffff1681525081525090506000600b549050600b600081548092919061138390614501565b919050555060078290806001815401808255809150506001900390600052602060002090600a020160009091909190915060008201518160000190816113c991906148e6565b5060208201518160010190816113df91906148e6565b5060408201518160020160006101000a81548173ffffffffffffffffffffffffffffffffffffffff021916908373ffffffffffffffffffffffffffffffffffffffff160217905550606082015181600301908161143c91906148e6565b50608082015181600401908161145291906148e6565b5060a082015181600501908161146891906148e6565b5060c082015181600601908161147e91906148e6565b5060e0820151816007019060036114969291906136fb565b50505081600860008973ffffffffffffffffffffffffffffffffffffffff1673ffffffffffffffffffffffffffffffffffffffff16815260200190815260200160002060008201518160000190816114ee91906148e6565b50602082015181600101908161150491906148e6565b5060408201518160020160006101000a81548173ffffffffffffffffffffffffffffffffffffffff021916908373ffffffffffffffffffffffffffffffffffffffff160217905550606082015181600301908161156191906148e6565b50608082015181600401908161157791906148e6565b5060a082015181600501908161158d91906148e6565b5060c08201518160060190816115a391906148e6565b5060e0820151816007019060036115bb9291906136fb565b50905050866009846040516115d091906143e9565b908152602001604051809103902060006101000a81548173ffffffffffffffffffffffffffffffffffffffff021916908373ffffffffffffffffffffffffffffffffffffffff1602179055506116268782612cfb565b505050505050505050565b60008073ffffffffffffffffffffffffffffffffffffffff168273ffffffffffffffffffffffffffffffffffffffff16036116a45760006040517f89c62b6400000000000000000000000000000000000000000000000000000000815260040161169b9190613a74565b60405180910390fd5b600360008373ffffffffffffffffffffffffffffffffffffffff1673ffffffffffffffffffffffffffffffffffffffff168152602001908152602001600020549050919050565b600060078054905011611733576040517f08c379a000000000000000000000000000000000000000000000000000000000815260040161172a90614a04565b60405180910390fd5b60405160200161174290614a4a565b60405160208183030381529060405280519060200120600860008373ffffffffffffffffffffffffffffffffffffffff1673ffffffffffffffffffffffffffffffffffffffff1681526020019081526020016000206001016040516020016117aa9190614ae2565b6040516020818303038152906040528051906020012003611800576040517f08c379a00000000000000000000000000000000000000000000000000000000081526004016117f790614b45565b60405180910390fd5b60026003811115611814576118136140d8565b5b600a60003373ffffffffffffffffffffffffffffffffffffffff1673ffffffffffffffffffffffffffffffffffffffff16815260200190815260200160002060008373ffffffffffffffffffffffffffffffffffffffff1673ffffffffffffffffffffffffffffffffffffffff16815260200190815260200160002060010160149054906101000a900460ff1660038111156118b3576118b26140d8565b5b146118f3576040517f08c379a00000000000000000000000000000000000000000000000000000000081526004016118ea90614bb1565b60405180910390fd5b600a60003373ffffffffffffffffffffffffffffffffffffffff1673ffffffffffffffffffffffffffffffffffffffff16815260200190815260200160002060008273ffffffffffffffffffffffffffffffffffffffff1673ffffffffffffffffffffffffffffffffffffffff168152602001908152602001600020600201544211156119b5576040517f08c379a00000000000000000000000000000000000000000000000000000000081526004016119ac90614c1d565b60405180910390fd5b81600860008373ffffffffffffffffffffffffffffffffffffffff1673ffffffffffffffffffffffffffffffffffffffff1681526020019081526020016000206001019081611a0491906148e6565b505050565b606060018054611a189061437c565b80601f0160208091040260200160405190810160405280929190818152602001828054611a449061437c565b8015611a915780601f10611a6657610100808354040283529160200191611a91565b820191906000526020600020905b815481529060010190602001808311611a7457829003601f168201915b5050505050905090565b60016003811115611aaf57611aae6140d8565b5b600a60008473ffffffffffffffffffffffffffffffffffffffff1673ffffffffffffffffffffffffffffffffffffffff16815260200190815260200160002060003373ffffffffffffffffffffffffffffffffffffffff1673ffffffffffffffffffffffffffffffffffffffff16815260200190815260200160002060010160149054906101000a900460ff166003811115611b4e57611b4d6140d8565b5b14611b8e576040517f08c379a0000000000000000000000000000000000000000000000000000000008152600401611b85906146b9565b60405180910390fd5b600073ffffffffffffffffffffffffffffffffffffffff16600860003373ffffffffffffffffffffffffffffffffffffffff1673ffffffffffffffffffffffffffffffffffffffff16815260200190815260200160002060020160009054906101000a900473ffffffffffffffffffffffffffffffffffffffff1673ffffffffffffffffffffffffffffffffffffffff1603611c5f576040517f08c379a0000000000000000000000000000000000000000000000000000000008152600401611c5690614c89565b60405180910390fd5b6002600a60008473ffffffffffffffffffffffffffffffffffffffff1673ffffffffffffffffffffffffffffffffffffffff16815260200190815260200160002060003373ffffffffffffffffffffffffffffffffffffffff1673ffffffffffffffffffffffffffffffffffffffff16815260200190815260200160002060010160146101000a81548160ff02191690836003811115611d0257611d016140d8565b5b02179055508042611d139190614ca9565b600a60008473ffffffffffffffffffffffffffffffffffffffff1673ffffffffffffffffffffffffffffffffffffffff16815260200190815260200160002060003373ffffffffffffffffffffffffffffffffffffffff1673ffffffffffffffffffffffffffffffffffffffff168152602001908152602001600020600201819055507fe6334627d2d1b816244f24397d90a02beea6f06a64333958f2fca9a73f84266d3383604051611dc7929190614324565b60405180910390a15050565b611de5611dde612551565b8383612df4565b5050565b600a602052816000526040600020602052806000526040600020600091509150508060000160009054906101000a900473ffffffffffffffffffffffffffffffffffffffff16908060010160009054906101000a900473ffffffffffffffffffffffffffffffffffffffff16908060010160149054906101000a900460ff16908060020154905084565b611e7e848484610af4565b611e8a84848484612f63565b50505050565b60008073ffffffffffffffffffffffffffffffffffffffff16600860008473ffffffffffffffffffffffffffffffffffffffff1673ffffffffffffffffffffffffffffffffffffffff16815260200190815260200160002060020160009054906101000a900473ffffffffffffffffffffffffffffffffffffffff1673ffffffffffffffffffffffffffffffffffffffff1603611f305760009050611f35565b600190505b919050565b6060611f458261248c565b506000611f5061311a565b90506000815111611f705760405180602001604052806000815250611f9b565b80611f7a84613131565b604051602001611f8b929190614cdd565b6040516020818303038152906040525b915050919050565b6000600560008473ffffffffffffffffffffffffffffffffffffffff1673ffffffffffffffffffffffffffffffffffffffff16815260200190815260200160002060008373ffffffffffffffffffffffffffffffffffffffff1673ffffffffffffffffffffffffffffffffffffffff16815260200190815260200160002060009054906101000a900460ff16905092915050565b60606002600381111561204d5761204c6140d8565b5b600a60003373ffffffffffffffffffffffffffffffffffffffff1673ffffffffffffffffffffffffffffffffffffffff16815260200190815260200160002060008473ffffffffffffffffffffffffffffffffffffffff1673ffffffffffffffffffffffffffffffffffffffff16815260200190815260200160002060010160149054906101000a900460ff1660038111156120ec576120eb6140d8565b5b1461212c576040517f08c379a000000000000000000000000000000000000000000000000000000000815260040161212390614bb1565b60405180910390fd5b600a60003373ffffffffffffffffffffffffffffffffffffffff1673ffffffffffffffffffffffffffffffffffffffff16815260200190815260200160002060008373ffffffffffffffffffffffffffffffffffffffff1673ffffffffffffffffffffffffffffffffffffffff168152602001908152602001600020600201544211156121ee576040517f08c379a00000000000000000000000000000000000000000000000000000000081526004016121e590614c1d565b60405180910390fd5b600060098460405161220091906143e9565b908152602001604051809103902060009054906101000a900473ffffffffffffffffffffffffffffffffffffffff169050600073ffffffffffffffffffffffffffffffffffffffff168173ffffffffffffffffffffffffffffffffffffffff16036122a3576040518060400160405280601681526020017f75736572206973206e6f742072656769737465726564000000000000000000008152509150506122b4565b6122ac8161256b565b602001519150505b92915050565b600060078054905011612302576040517f08c379a00000000000000000000000000000000000000000000000000000000081526004016122f990614a04565b60405180910390fd5b60405160200161231190614a4a565b60405160208183030381529060405280519060200120600860003373ffffffffffffffffffffffffffffffffffffffff1673ffffffffffffffffffffffffffffffffffffffff1681526020019081526020016000206001016040516020016123799190614ae2565b60405160208183030381529060405280519060200120036123cf576040517f08c379a00000000000000000000000000000000000000000000000000000000081526004016123c690614b45565b60405180910390fd5b80600860003373ffffffffffffffffffffffffffffffffffffffff1673ffffffffffffffffffffffffffffffffffffffff168152602001908152602001600020600101908161241e91906148e6565b5050565b60007f01ffc9a7000000000000000000000000000000000000000000000000000000007bffffffffffffffffffffffffffffffffffffffffffffffffffffffff1916827bffffffffffffffffffffffffffffffffffffffffffffffffffffffff1916149050919050565b600080612498836131ff565b9050600073ffffffffffffffffffffffffffffffffffffffff168173ffffffffffffffffffffffffffffffffffffffff160361250b57826040517f7e2732890000000000000000000000000000000000000000000000000000000081526004016125029190613c5c565b60405180910390fd5b80915050919050565b60006004600083815260200190815260200160002060009054906101000a900473ffffffffffffffffffffffffffffffffffffffff169050919050565b600033905090565b612566838383600161323c565b505050565b612573613778565b60006007805490501161258557600080fd5b60405160200161259490614a4a565b60405160208183030381529060405280519060200120600860008473ffffffffffffffffffffffffffffffffffffffff1673ffffffffffffffffffffffffffffffffffffffff1681526020019081526020016000206001016040516020016125fc9190614ae2565b6040516020818303038152906040528051906020012003612652576040517f08c379a000000000000000000000000000000000000000000000000000000000815260040161264990614b45565b60405180910390fd5b600860008373ffffffffffffffffffffffffffffffffffffffff1673ffffffffffffffffffffffffffffffffffffffff168152602001908152602001600020604051806101000160405290816000820180546126ad9061437c565b80601f01602080910402602001604051908101604052809291908181526020018280546126d99061437c565b80156127265780601f106126fb57610100808354040283529160200191612726565b820191906000526020600020905b81548152906001019060200180831161270957829003601f168201915b5050505050815260200160018201805461273f9061437c565b80601f016020809104026020016040519081016040528092919081815260200182805461276b9061437c565b80156127b85780601f1061278d576101008083540402835291602001916127b8565b820191906000526020600020905b81548152906001019060200180831161279b57829003601f168201915b505050505081526020016002820160009054906101000a900473ffffffffffffffffffffffffffffffffffffffff1673ffffffffffffffffffffffffffffffffffffffff1673ffffffffffffffffffffffffffffffffffffffff1681526020016003820180546128279061437c565b80601f01602080910402602001604051908101604052809291908181526020018280546128539061437c565b80156128a05780601f10612875576101008083540402835291602001916128a0565b820191906000526020600020905b81548152906001019060200180831161288357829003601f168201915b505050505081526020016004820180546128b99061437c565b80601f01602080910402602001604051908101604052809291908181526020018280546128e59061437c565b80156129325780601f1061290757610100808354040283529160200191612932565b820191906000526020600020905b81548152906001019060200180831161291557829003601f168201915b5050505050815260200160058201805461294b9061437c565b80601f01602080910402602001604051908101604052809291908181526020018280546129779061437c565b80156129c45780601f10612999576101008083540402835291602001916129c4565b820191906000526020600020905b8154815290600101906020018083116129a757829003601f168201915b505050505081526020016006820180546129dd9061437c565b80601f0160208091040260200160405190810160405280929190818152602001828054612a099061437c565b8015612a565780601f10612a2b57610100808354040283529160200191612a56565b820191906000526020600020905b815481529060010190602001808311612a3957829003601f168201915b5050505050815260200160078201600380602002604051908101604052809291908260038015612ad1576020028201915b8160009054906101000a900473ffffffffffffffffffffffffffffffffffffffff1673ffffffffffffffffffffffffffffffffffffffff1681526020019060010190808311612a87575b5050505050815250509050919050565b600080612aed846131ff565b9050600073ffffffffffffffffffffffffffffffffffffffff168373ffffffffffffffffffffffffffffffffffffffff1614612b2f57612b2e818486613401565b5b600073ffffffffffffffffffffffffffffffffffffffff168173ffffffffffffffffffffffffffffffffffffffff1614612bc057612b7160008560008061323c565b6001600360008373ffffffffffffffffffffffffffffffffffffffff1673ffffffffffffffffffffffffffffffffffffffff168152602001908152602001600020600082825403925050819055505b600073ffffffffffffffffffffffffffffffffffffffff168573ffffffffffffffffffffffffffffffffffffffff1614612c43576001600360008773ffffffffffffffffffffffffffffffffffffffff1673ffffffffffffffffffffffffffffffffffffffff168152602001908152602001600020600082825401925050819055505b846002600086815260200190815260200160002060006101000a81548173ffffffffffffffffffffffffffffffffffffffff021916908373ffffffffffffffffffffffffffffffffffffffff160217905550838573ffffffffffffffffffffffffffffffffffffffff168273ffffffffffffffffffffffffffffffffffffffff167fddf252ad1be2c89b69c2b068fc378daa952ba7f163c4a11628f55a4df523b3ef60405160405180910390a4809150509392505050565b600073ffffffffffffffffffffffffffffffffffffffff168273ffffffffffffffffffffffffffffffffffffffff1603612d6d5760006040517f64a0ae92000000000000000000000000000000000000000000000000000000008152600401612d649190613a74565b60405180910390fd5b6000612d7b83836000612ae1565b9050600073ffffffffffffffffffffffffffffffffffffffff168173ffffffffffffffffffffffffffffffffffffffff1614612def5760006040517f73c6ac6e000000000000000000000000000000000000000000000000000000008152600401612de69190613a74565b60405180910390fd5b505050565b600073ffffffffffffffffffffffffffffffffffffffff168273ffffffffffffffffffffffffffffffffffffffff1603612e6557816040517f5b08ba18000000000000000000000000000000000000000000000000000000008152600401612e5c9190613a74565b60405180910390fd5b80600560008573ffffffffffffffffffffffffffffffffffffffff1673ffffffffffffffffffffffffffffffffffffffff16815260200190815260200160002060008473ffffffffffffffffffffffffffffffffffffffff1673ffffffffffffffffffffffffffffffffffffffff16815260200190815260200160002060006101000a81548160ff0219169083151502179055508173ffffffffffffffffffffffffffffffffffffffff168373ffffffffffffffffffffffffffffffffffffffff167f17307eab39ab6107e8899845ad3d59bd9653f200f220920489ca2b5937696c3183604051612f5691906138aa565b60405180910390a3505050565b60008373ffffffffffffffffffffffffffffffffffffffff163b1115613114578273ffffffffffffffffffffffffffffffffffffffff1663150b7a02612fa7612551565b8685856040518563ffffffff1660e01b8152600401612fc99493929190614d56565b6020604051808303816000875af192505050801561300557506040513d601f19601f820116820180604052508101906130029190614db7565b60015b613089573d8060008114613035576040519150601f19603f3d011682016040523d82523d6000602084013e61303a565b606091505b50600081510361308157836040517f64a0ae920000000000000000000000000000000000000000000000000000000081526004016130789190613a74565b60405180910390fd5b805181602001fd5b63150b7a0260e01b7bffffffffffffffffffffffffffffffffffffffffffffffffffffffff1916817bffffffffffffffffffffffffffffffffffffffffffffffffffffffff19161461311257836040517f64a0ae920000000000000000000000000000000000000000000000000000000081526004016131099190613a74565b60405180910390fd5b505b50505050565b606060405180602001604052806000815250905090565b606060006001613140846134c5565b01905060008167ffffffffffffffff81111561315f5761315e613ad9565b5b6040519080825280601f01601f1916602001820160405280156131915781602001600182028036833780820191505090505b509050600082602001820190505b6001156131f4578080600190039150507f3031323334353637383961626364656600000000000000000000000000000000600a86061a8153600a85816131e8576131e7614de4565b5b0494506000850361319f575b819350505050919050565b60006002600083815260200190815260200160002060009054906101000a900473ffffffffffffffffffffffffffffffffffffffff169050919050565b80806132755750600073ffffffffffffffffffffffffffffffffffffffff168273ffffffffffffffffffffffffffffffffffffffff1614155b156133a95760006132858461248c565b9050600073ffffffffffffffffffffffffffffffffffffffff168373ffffffffffffffffffffffffffffffffffffffff16141580156132f057508273ffffffffffffffffffffffffffffffffffffffff168173ffffffffffffffffffffffffffffffffffffffff1614155b801561330357506133018184611fa3565b155b1561334557826040517fa9fbf51f00000000000000000000000000000000000000000000000000000000815260040161333c9190613a74565b60405180910390fd5b81156133a757838573ffffffffffffffffffffffffffffffffffffffff168273ffffffffffffffffffffffffffffffffffffffff167f8c5be1e5ebec7d5bd14f71427d1e84f3dd0314c0f7b2291e5b200ac8c7c3b92560405160405180910390a45b505b836004600085815260200190815260200160002060006101000a81548173ffffffffffffffffffffffffffffffffffffffff021916908373ffffffffffffffffffffffffffffffffffffffff16021790555050505050565b61340c838383613618565b6134c057600073ffffffffffffffffffffffffffffffffffffffff168373ffffffffffffffffffffffffffffffffffffffff160361348157806040517f7e2732890000000000000000000000000000000000000000000000000000000081526004016134789190613c5c565b60405180910390fd5b81816040517f177e802f0000000000000000000000000000000000000000000000000000000081526004016134b7929190614e13565b60405180910390fd5b505050565b600080600090507a184f03e93ff9f4daa797ed6e38ed64bf6a1f0100000000000000008310613523577a184f03e93ff9f4daa797ed6e38ed64bf6a1f010000000000000000838161351957613518614de4565b5b0492506040810190505b6d04ee2d6d415b85acef81000000008310613560576d04ee2d6d415b85acef8100000000838161355657613555614de4565b5b0492506020810190505b662386f26fc10000831061358f57662386f26fc10000838161358557613584614de4565b5b0492506010810190505b6305f5e10083106135b8576305f5e10083816135ae576135ad614de4565b5b0492506008810190505b61271083106135dd5761271083816135d3576135d2614de4565b5b0492506004810190505b6064831061360057606483816135f6576135f5614de4565b5b0492506002810190505b600a831061360f576001810190505b80915050919050565b60008073ffffffffffffffffffffffffffffffffffffffff168373ffffffffffffffffffffffffffffffffffffffff16141580156136d057508273ffffffffffffffffffffffffffffffffffffffff168473ffffffffffffffffffffffffffffffffffffffff16148061369157506136908484611fa3565b5b806136cf57508273ffffffffffffffffffffffffffffffffffffffff166136b783612514565b73ffffffffffffffffffffffffffffffffffffffff16145b5b90509392505050565b6040518060600160405280600390602082028036833780820191505090505090565b8260038101928215613767579160200282015b828111156137665782518260006101000a81548173ffffffffffffffffffffffffffffffffffffffff021916908373ffffffffffffffffffffffffffffffffffffffff1602179055509160200191906001019061370e565b5b50905061377491906137d9565b5090565b6040518061010001604052806060815260200160608152602001600073ffffffffffffffffffffffffffffffffffffffff168152602001606081526020016060815260200160608152602001606081526020016137d36136d9565b81525090565b5b808211156137f25760008160009055506001016137da565b5090565b6000604051905090565b600080fd5b600080fd5b60007fffffffff0000000000000000000000000000000000000000000000000000000082169050919050565b61383f8161380a565b811461384a57600080fd5b50565b60008135905061385c81613836565b92915050565b60006020828403121561387857613877613800565b5b60006138868482850161384d565b91505092915050565b60008115159050919050565b6138a48161388f565b82525050565b60006020820190506138bf600083018461389b565b92915050565b600073ffffffffffffffffffffffffffffffffffffffff82169050919050565b60006138f0826138c5565b9050919050565b613900816138e5565b811461390b57600080fd5b50565b60008135905061391d816138f7565b92915050565b60006020828403121561393957613938613800565b5b60006139478482850161390e565b91505092915050565b600081519050919050565b600082825260208201905092915050565b60005b8381101561398a57808201518184015260208101905061396f565b60008484015250505050565b6000601f19601f8301169050919050565b60006139b282613950565b6139bc818561395b565b93506139cc81856020860161396c565b6139d581613996565b840191505092915050565b600060208201905081810360008301526139fa81846139a7565b905092915050565b6000819050919050565b613a1581613a02565b8114613a2057600080fd5b50565b600081359050613a3281613a0c565b92915050565b600060208284031215613a4e57613a4d613800565b5b6000613a5c84828501613a23565b91505092915050565b613a6e816138e5565b82525050565b6000602082019050613a896000830184613a65565b92915050565b60008060408385031215613aa657613aa5613800565b5b6000613ab48582860161390e565b9250506020613ac585828601613a23565b9150509250929050565b600080fd5b600080fd5b7f4e487b7100000000000000000000000000000000000000000000000000000000600052604160045260246000fd5b613b1182613996565b810181811067ffffffffffffffff82111715613b3057613b2f613ad9565b5b80604052505050565b6000613b436137f6565b9050613b4f8282613b08565b919050565b600067ffffffffffffffff821115613b6f57613b6e613ad9565b5b613b7882613996565b9050602081019050919050565b82818337600083830152505050565b6000613ba7613ba284613b54565b613b39565b905082815260208101848484011115613bc357613bc2613ad4565b5b613bce848285613b85565b509392505050565b600082601f830112613beb57613bea613acf565b5b8135613bfb848260208601613b94565b91505092915050565b600060208284031215613c1a57613c19613800565b5b600082013567ffffffffffffffff811115613c3857613c37613805565b5b613c4484828501613bd6565b91505092915050565b613c5681613a02565b82525050565b6000602082019050613c716000830184613c4d565b92915050565b600080600060608486031215613c9057613c8f613800565b5b6000613c9e8682870161390e565b9350506020613caf8682870161390e565b9250506040613cc086828701613a23565b9150509250925092565b600067ffffffffffffffff821115613ce557613ce4613ad9565b5b602082029050919050565b600080fd5b6000613d08613d0384613cca565b613b39565b90508060208402830185811115613d2257613d21613cf0565b5b835b81811015613d4b5780613d37888261390e565b845260208401935050602081019050613d24565b5050509392505050565b600082601f830112613d6a57613d69613acf565b5b6003613d77848285613cf5565b91505092915050565b60008060808385031215613d9757613d96613800565b5b6000613da58582860161390e565b9250506020613db685828601613d55565b9150509250929050565b600060039050919050565b600081905092915050565b6000819050919050565b613de9816138e5565b82525050565b6000613dfb8383613de0565b60208301905092915050565b6000602082019050919050565b613e1d81613dc0565b613e278184613dcb565b9250613e3282613dd6565b8060005b83811015613e63578151613e4a8782613def565b9650613e5583613e07565b925050600181019050613e36565b505050505050565b6000606082019050613e806000830184613e14565b92915050565b600080600080600080600060e0888a031215613ea557613ea4613800565b5b600088013567ffffffffffffffff811115613ec357613ec2613805565b5b613ecf8a828b01613bd6565b975050602088013567ffffffffffffffff811115613ef057613eef613805565b5b613efc8a828b01613bd6565b9650506040613f0d8a828b0161390e565b955050606088013567ffffffffffffffff811115613f2e57613f2d613805565b5b613f3a8a828b01613bd6565b945050608088013567ffffffffffffffff811115613f5b57613f5a613805565b5b613f678a828b01613bd6565b93505060a088013567ffffffffffffffff811115613f8857613f87613805565b5b613f948a828b01613bd6565b92505060c088013567ffffffffffffffff811115613fb557613fb4613805565b5b613fc18a828b01613bd6565b91505092959891949750929550565b60008060408385031215613fe757613fe6613800565b5b600083013567ffffffffffffffff81111561400557614004613805565b5b61401185828601613bd6565b92505060206140228582860161390e565b9150509250929050565b6140358161388f565b811461404057600080fd5b50565b6000813590506140528161402c565b92915050565b6000806040838503121561406f5761406e613800565b5b600061407d8582860161390e565b925050602061408e85828601614043565b9150509250929050565b600080604083850312156140af576140ae613800565b5b60006140bd8582860161390e565b92505060206140ce8582860161390e565b9150509250929050565b7f4e487b7100000000000000000000000000000000000000000000000000000000600052602160045260246000fd5b60048110614118576141176140d8565b5b50565b600081905061412982614107565b919050565b60006141398261411b565b9050919050565b6141498161412e565b82525050565b60006080820190506141646000830187613a65565b6141716020830186613a65565b61417e6040830185614140565b61418b6060830184613c4d565b95945050505050565b600067ffffffffffffffff8211156141af576141ae613ad9565b5b6141b882613996565b9050602081019050919050565b60006141d86141d384614194565b613b39565b9050828152602081018484840111156141f4576141f3613ad4565b5b6141ff848285613b85565b509392505050565b600082601f83011261421c5761421b613acf565b5b813561422c8482602086016141c5565b91505092915050565b6000806000806080858703121561424f5761424e613800565b5b600061425d8782880161390e565b945050602061426e8782880161390e565b935050604061427f87828801613a23565b925050606085013567ffffffffffffffff8111156142a05761429f613805565b5b6142ac87828801614207565b91505092959194509250565b7f416363657373207265717565737420616c726561647920657869737473000000600082015250565b60006142ee601d8361395b565b91506142f9826142b8565b602082019050919050565b6000602082019050818103600083015261431d816142e1565b9050919050565b60006040820190506143396000830185613a65565b6143466020830184613a65565b9392505050565b7f4e487b7100000000000000000000000000000000000000000000000000000000600052602260045260246000fd5b6000600282049050600182168061439457607f821691505b6020821081036143a7576143a661434d565b5b50919050565b600081905092915050565b60006143c382613950565b6143cd81856143ad565b93506143dd81856020860161396c565b80840191505092915050565b60006143f582846143b8565b915081905092915050565b60006060820190506144156000830186613a65565b6144226020830185613c4d565b61442f6040830184613a65565b949350505050565b7f546f6f206d616e7920656d657267656e637920636f6e74616374730000000000600082015250565b600061446d601b8361395b565b915061447882614437565b602082019050919050565b6000602082019050818103600083015261449c81614460565b9050919050565b7f4e487b7100000000000000000000000000000000000000000000000000000000600052603260045260246000fd5b7f4e487b7100000000000000000000000000000000000000000000000000000000600052601160045260246000fd5b600061450c82613a02565b91507fffffffffffffffffffffffffffffffffffffffffffffffffffffffffffffffff820361453e5761453d6144d2565b5b600182019050919050565b7f4f6e6c79207468652070617469656e742063616e2063616c6c2074686973206660008201527f756e6374696f6e00000000000000000000000000000000000000000000000000602082015250565b60006145a560278361395b565b91506145b082614549565b604082019050919050565b600060208201905081810360008301526145d481614598565b9050919050565b7f75736572206973206e6f7420612070617469656e74206f7220646f65736e742060008201527f686176652061206d65646963616c206361726400000000000000000000000000602082015250565b600061463760338361395b565b9150614642826145db565b604082019050919050565b600060208201905081810360008301526146668161462a565b9050919050565b7f4e6f2070656e64696e6720616363657373207265717565737400000000000000600082015250565b60006146a360198361395b565b91506146ae8261466d565b602082019050919050565b600060208201905081810360008301526146d281614696565b9050919050565b7f64756d6d79000000000000000000000000000000000000000000000000000000600082015250565b600061470f6005836143ad565b915061471a826146d9565b600582019050919050565b600061473082614702565b9150819050919050565b60008190508160005260206000209050919050565b60006020601f8301049050919050565b600082821b905092915050565b60006008830261479c7fffffffffffffffffffffffffffffffffffffffffffffffffffffffffffffffff8261475f565b6147a6868361475f565b95508019841693508086168417925050509392505050565b6000819050919050565b60006147e36147de6147d984613a02565b6147be565b613a02565b9050919050565b6000819050919050565b6147fd836147c8565b614811614809826147ea565b84845461476c565b825550505050565b600090565b614826614819565b6148318184846147f4565b505050565b5b818110156148555761484a60008261481e565b600181019050614837565b5050565b601f82111561489a5761486b8161473a565b6148748461474f565b81016020851015614883578190505b61489761488f8561474f565b830182614836565b50505b505050565b600082821c905092915050565b60006148bd6000198460080261489f565b1980831691505092915050565b60006148d683836148ac565b9150826002028217905092915050565b6148ef82613950565b67ffffffffffffffff81111561490857614907613ad9565b5b614912825461437c565b61491d828285614859565b600060209050601f831160018114614950576000841561493e578287015190505b61494885826148ca565b8655506149b0565b601f19841661495e8661473a565b60005b8281101561498657848901518255600182019150602085019450602081019050614961565b868310156149a3578489015161499f601f8916826148ac565b8355505b6001600288020188555050505b505050505050565b7f7468657265206973206e6f207265676973746572656420757365727300000000600082015250565b60006149ee601c8361395b565b91506149f9826149b8565b602082019050919050565b60006020820190508181036000830152614a1d816149e1565b9050919050565b50565b6000614a346000836143ad565b9150614a3f82614a24565b600082019050919050565b6000614a5582614a27565b9150819050919050565b60008154614a6c8161437c565b614a7681866143ad565b94506001821660008114614a915760018114614aa657614ad9565b60ff1983168652811515820286019350614ad9565b614aaf8561473a565b60005b83811015614ad157815481890152600182019150602081019050614ab2565b838801955050505b50505092915050565b6000614aee8284614a5f565b915081905092915050565b7f5573657220686173206e6f206865616c74682063617264000000000000000000600082015250565b6000614b2f60178361395b565b9150614b3a82614af9565b602082019050919050565b60006020820190508181036000830152614b5e81614b22565b9050919050565b7f416363657373206e6f7420617070726f76656400000000000000000000000000600082015250565b6000614b9b60138361395b565b9150614ba682614b65565b602082019050919050565b60006020820190508181036000830152614bca81614b8e565b9050919050565b7f4163636573732068617320657870697265640000000000000000000000000000600082015250565b6000614c0760128361395b565b9150614c1282614bd1565b602082019050919050565b60006020820190508181036000830152614c3681614bfa565b9050919050565b7f7573657220686173206e6f206d65646963616c207265636f7264730000000000600082015250565b6000614c73601b8361395b565b9150614c7e82614c3d565b602082019050919050565b60006020820190508181036000830152614ca281614c66565b9050919050565b6000614cb482613a02565b9150614cbf83613a02565b9250828201905080821115614cd757614cd66144d2565b5b92915050565b6000614ce982856143b8565b9150614cf582846143b8565b91508190509392505050565b600081519050919050565b600082825260208201905092915050565b6000614d2882614d01565b614d328185614d0c565b9350614d4281856020860161396c565b614d4b81613996565b840191505092915050565b6000608082019050614d6b6000830187613a65565b614d786020830186613a65565b614d856040830185613c4d565b8181036060830152614d978184614d1d565b905095945050505050565b600081519050614db181613836565b92915050565b600060208284031215614dcd57614dcc613800565b5b6000614ddb84828501614da2565b91505092915050565b7f4e487b7100000000000000000000000000000000000000000000000000000000600052601260045260246000fd5b6000604082019050614e286000830185613a65565b614e356020830184613c4d565b939250505056fe7265636f726473206f6e6c792061636365737369626c65206279207468652070617469656e74a26469706673582212200d80351af7dc68b601dc7e35dafef06a2cb35ac0fc66ba12cfc559f4f085cc8b64736f6c63430008140033",
  "linkReferences": {},
  "deployedLinkReferences": {}
}