{
  "_format": "hh-sol-artifact-1",
  "contractName": "HealthCard",
  "sourceName": "contracts/EHealthCard.sol",
  "abi": [
    {
      "inputs": [
        {
          "internalType": "address",
          "name": "_owner",
          "type": "address"
        }
      ],
      "stateMutability": "nonpayable",
      "type": "constructor"
    },
    {
      "inputs": [
        {
          "internalType": "address",
          "name": "sender",
          "type": "address"
        },
        {
          "internalType": "uint256",
          "name": "tokenId",
          "type": "uint256"
        },
        {
          "internalType": "address",
          "name": "owner",
          "type": "address"
        }
      ],
      "name": "ERC721IncorrectOwner",
      "type": "error"
    },
    {
      "inputs": [
        {
          "internalType": "address",
          "name": "operator",
          "type": "address"
        },
        {
          "internalType": "uint256",
          "name": "tokenId",
          "type": "uint256"
        }
      ],
      "name": "ERC721InsufficientApproval",
      "type": "error"
    },
    {
      "inputs": [
        {
          "internalType": "address",
          "name": "approver",
          "type": "address"
        }
      ],
      "name": "ERC721InvalidApprover",
      "type": "error"
    },
    {
      "inputs": [
        {
          "internalType": "address",
          "name": "operator",
          "type": "address"
        }
      ],
      "name": "ERC721InvalidOperator",
      "type": "error"
    },
    {
      "inputs": [
        {
          "internalType": "address",
          "name": "owner",
          "type": "address"
        }
      ],
      "name": "ERC721InvalidOwner",
      "type": "error"
    },
    {
      "inputs": [
        {
          "internalType": "address",
          "name": "receiver",
          "type": "address"
        }
      ],
      "name": "ERC721InvalidReceiver",
      "type": "error"
    },
    {
      "inputs": [
        {
          "internalType": "address",
          "name": "sender",
          "type": "address"
        }
      ],
      "name": "ERC721InvalidSender",
      "type": "error"
    },
    {
      "inputs": [
        {
          "internalType": "uint256",
          "name": "tokenId",
          "type": "uint256"
        }
      ],
      "name": "ERC721NonexistentToken",
      "type": "error"
    },
    {
      "anonymous": false,
      "inputs": [
        {
          "indexed": false,
          "internalType": "address",
          "name": "patient",
          "type": "address"
        },
        {
          "indexed": false,
          "internalType": "address",
          "name": "provider",
          "type": "address"
        }
      ],
      "name": "AccessApproved",
      "type": "event"
    },
    {
      "anonymous": false,
      "inputs": [
        {
          "indexed": false,
          "internalType": "address",
          "name": "patient",
          "type": "address"
        },
        {
          "indexed": false,
          "internalType": "address",
          "name": "provider",
          "type": "address"
        }
      ],
      "name": "AccessRejected",
      "type": "event"
    },
    {
      "anonymous": false,
      "inputs": [
        {
          "indexed": false,
          "internalType": "address",
          "name": "patient",
          "type": "address"
        },
        {
          "indexed": false,
          "internalType": "address",
          "name": "provider",
          "type": "address"
        }
      ],
      "name": "AccessRequested",
      "type": "event"
    },
    {
      "anonymous": false,
      "inputs": [
        {
          "indexed": true,
          "internalType": "address",
          "name": "owner",
          "type": "address"
        },
        {
          "indexed": true,
          "internalType": "address",
          "name": "approved",
          "type": "address"
        },
        {
          "indexed": true,
          "internalType": "uint256",
          "name": "tokenId",
          "type": "uint256"
        }
      ],
      "name": "Approval",
      "type": "event"
    },
    {
      "anonymous": false,
      "inputs": [
        {
          "indexed": true,
          "internalType": "address",
          "name": "owner",
          "type": "address"
        },
        {
          "indexed": true,
          "internalType": "address",
          "name": "operator",
          "type": "address"
        },
        {
          "indexed": false,
          "internalType": "bool",
          "name": "approved",
          "type": "bool"
        }
      ],
      "name": "ApprovalForAll",
      "type": "event"
    },
    {
      "anonymous": false,
      "inputs": [
        {
          "indexed": true,
          "internalType": "address",
          "name": "from",
          "type": "address"
        },
        {
          "indexed": true,
          "internalType": "address",
          "name": "to",
          "type": "address"
        },
        {
          "indexed": true,
          "internalType": "uint256",
          "name": "tokenId",
          "type": "uint256"
        }
      ],
      "name": "Transfer",
      "type": "event"
    },
    {
      "inputs": [
        {
          "internalType": "address",
          "name": "",
          "type": "address"
        },
        {
          "internalType": "address",
          "name": "",
          "type": "address"
        }
      ],
      "name": "accessRequests",
      "outputs": [
        {
          "internalType": "address",
          "name": "hpprovider",
          "type": "address"
        },
        {
          "internalType": "address",
          "name": "patient",
          "type": "address"
        },
        {
          "internalType": "enum HealthCard.AccessStatus",
          "name": "status",
          "type": "uint8"
        },
        {
          "internalType": "uint256",
          "name": "expiryTime",
          "type": "uint256"
        }
      ],
      "stateMutability": "view",
      "type": "function"
    },
    {
      "inputs": [
        {
          "internalType": "address",
          "name": "to",
          "type": "address"
        },
        {
          "internalType": "uint256",
          "name": "tokenId",
          "type": "uint256"
        }
      ],
      "name": "approve",
      "outputs": [],
      "stateMutability": "nonpayable",
      "type": "function"
    },
    {
      "inputs": [
        {
          "internalType": "address",
          "name": "hprovider",
          "type": "address"
        },
        {
          "internalType": "uint256",
          "name": "duration",
          "type": "uint256"
        }
      ],
      "name": "approveAccess",
      "outputs": [],
      "stateMutability": "nonpayable",
      "type": "function"
    },
    {
      "inputs": [
        {
          "internalType": "address",
          "name": "owner",
          "type": "address"
        }
      ],
      "name": "balanceOf",
      "outputs": [
        {
          "internalType": "uint256",
          "name": "",
          "type": "uint256"
        }
      ],
      "stateMutability": "view",
      "type": "function"
    },
    {
      "inputs": [
        {
          "internalType": "string",
          "name": "_link",
          "type": "string"
        }
      ],
      "name": "changeStorageLink",
      "outputs": [],
      "stateMutability": "nonpayable",
      "type": "function"
    },
    {
      "inputs": [
        {
          "internalType": "uint256",
          "name": "tokenId",
          "type": "uint256"
        }
      ],
      "name": "getApproved",
      "outputs": [
        {
          "internalType": "address",
          "name": "",
          "type": "address"
        }
      ],
      "stateMutability": "view",
      "type": "function"
    },
    {
      "inputs": [
        {
          "internalType": "string",
          "name": "idNumber",
          "type": "string"
        }
      ],
      "name": "getEmergencyContacts",
      "outputs": [
        {
          "internalType": "address[3]",
          "name": "contacts",
          "type": "address[3]"
        }
      ],
      "stateMutability": "view",
      "type": "function"
    },
    {
      "inputs": [
        {
          "internalType": "string",
          "name": "_id",
          "type": "string"
        },
        {
          "internalType": "address",
          "name": "patient",
          "type": "address"
        }
      ],
      "name": "getStorageLinkForHP",
      "outputs": [
        {
          "internalType": "string",
          "name": "",
          "type": "string"
        }
      ],
      "stateMutability": "view",
      "type": "function"
    },
    {
      "inputs": [
        {
          "internalType": "string",
          "name": "_id",
          "type": "string"
        }
      ],
      "name": "getStorageLinkPatient",
      "outputs": [
        {
          "internalType": "string",
          "name": "",
          "type": "string"
        }
      ],
      "stateMutability": "view",
      "type": "function"
    },
    {
      "inputs": [
        {
          "internalType": "string",
          "name": "_id",
          "type": "string"
        }
      ],
      "name": "getStorageLinkProvider",
      "outputs": [
        {
          "internalType": "string",
          "name": "",
          "type": "string"
        }
      ],
      "stateMutability": "view",
      "type": "function"
    },
    {
      "inputs": [
        {
          "internalType": "address",
          "name": "owner",
          "type": "address"
        },
        {
          "internalType": "address",
          "name": "operator",
          "type": "address"
        }
      ],
      "name": "isApprovedForAll",
      "outputs": [
        {
          "internalType": "bool",
          "name": "",
          "type": "bool"
        }
      ],
      "stateMutability": "view",
      "type": "function"
    },
    {
      "inputs": [
        {
          "internalType": "address",
          "name": "userAddress",
          "type": "address"
        }
      ],
      "name": "isRegistered",
      "outputs": [
        {
          "internalType": "bool",
          "name": "",
          "type": "bool"
        }
      ],
      "stateMutability": "view",
      "type": "function"
    },
    {
      "inputs": [],
      "name": "length",
      "outputs": [
        {
          "internalType": "uint256",
          "name": "",
          "type": "uint256"
        }
      ],
      "stateMutability": "view",
      "type": "function"
    },
    {
      "inputs": [
        {
          "internalType": "string",
          "name": "_id",
          "type": "string"
        },
        {
          "internalType": "string",
          "name": "_link",
          "type": "string"
        },
        {
          "internalType": "address",
          "name": "_walletAddress",
          "type": "address"
        },
        {
          "internalType": "string",
          "name": "_dateOfBirth",
          "type": "string"
        },
        {
          "internalType": "string",
          "name": "_gender",
          "type": "string"
        },
        {
          "internalType": "string",
          "name": "_bloodType",
          "type": "string"
        },
        {
          "internalType": "string",
          "name": "_IdNumber",
          "type": "string"
        }
      ],
      "name": "mintHealthCard",
      "outputs": [],
      "stateMutability": "nonpayable",
      "type": "function"
    },
    {
      "inputs": [],
      "name": "name",
      "outputs": [
        {
          "internalType": "string",
          "name": "",
          "type": "string"
        }
      ],
      "stateMutability": "view",
      "type": "function"
    },
    {
      "inputs": [
        {
          "internalType": "uint256",
          "name": "tokenId",
          "type": "uint256"
        }
      ],
      "name": "ownerOf",
      "outputs": [
        {
          "internalType": "address",
          "name": "",
          "type": "address"
        }
      ],
      "stateMutability": "view",
      "type": "function"
    },
    {
      "inputs": [
        {
          "internalType": "address",
          "name": "hprovider",
          "type": "address"
        }
      ],
      "name": "rejectAccess",
      "outputs": [],
      "stateMutability": "nonpayable",
      "type": "function"
    },
    {
      "inputs": [
        {
          "internalType": "address",
          "name": "patient",
          "type": "address"
        }
      ],
      "name": "requestAccess",
      "outputs": [],
      "stateMutability": "nonpayable",
      "type": "function"
    },
    {
      "inputs": [
        {
          "internalType": "address",
          "name": "from",
          "type": "address"
        },
        {
          "internalType": "address",
          "name": "to",
          "type": "address"
        },
        {
          "internalType": "uint256",
          "name": "tokenId",
          "type": "uint256"
        }
      ],
      "name": "safeTransferFrom",
      "outputs": [],
      "stateMutability": "nonpayable",
      "type": "function"
    },
    {
      "inputs": [
        {
          "internalType": "address",
          "name": "from",
          "type": "address"
        },
        {
          "internalType": "address",
          "name": "to",
          "type": "address"
        },
        {
          "internalType": "uint256",
          "name": "tokenId",
          "type": "uint256"
        },
        {
          "internalType": "bytes",
          "name": "data",
          "type": "bytes"
        }
      ],
      "name": "safeTransferFrom",
      "outputs": [],
      "stateMutability": "nonpayable",
      "type": "function"
    },
    {
      "inputs": [
        {
          "internalType": "address",
          "name": "operator",
          "type": "address"
        },
        {
          "internalType": "bool",
          "name": "approved",
          "type": "bool"
        }
      ],
      "name": "setApprovalForAll",
      "outputs": [],
      "stateMutability": "nonpayable",
      "type": "function"
    },
    {
      "inputs": [
        {
          "internalType": "address",
          "name": "_address",
          "type": "address"
        },
        {
          "internalType": "address[3]",
          "name": "econtacts",
          "type": "address[3]"
        }
      ],
      "name": "setEmergencyContacts",
      "outputs": [],
      "stateMutability": "nonpayable",
      "type": "function"
    },
    {
      "inputs": [
        {
          "internalType": "bytes4",
          "name": "interfaceId",
          "type": "bytes4"
        }
      ],
      "name": "supportsInterface",
      "outputs": [
        {
          "internalType": "bool",
          "name": "",
          "type": "bool"
        }
      ],
      "stateMutability": "view",
      "type": "function"
    },
    {
      "inputs": [],
      "name": "symbol",
      "outputs": [
        {
          "internalType": "string",
          "name": "",
          "type": "string"
        }
      ],
      "stateMutability": "view",
      "type": "function"
    },
    {
      "inputs": [
        {
          "internalType": "uint256",
          "name": "tokenId",
          "type": "uint256"
        }
      ],
      "name": "tokenURI",
      "outputs": [
        {
          "internalType": "string",
          "name": "",
          "type": "string"
        }
      ],
      "stateMutability": "view",
      "type": "function"
    },
    {
      "inputs": [
        {
          "internalType": "address",
          "name": "from",
          "type": "address"
        },
        {
          "internalType": "address",
          "name": "to",
          "type": "address"
        },
        {
          "internalType": "uint256",
          "name": "tokenId",
          "type": "uint256"
        }
      ],
      "name": "transferFrom",
      "outputs": [],
      "stateMutability": "nonpayable",
      "type": "function"
    }
  ],
  "bytecode": "0x60806040526000600b556040518061010001604052806040518060400160405280600581526020017f64756d6d7900000000000000000000000000000000000000000000000000000081525081526020016040518060400160405280600581526020017f64756d6d7900000000000000000000000000000000000000000000000000000081525081526020017320cb94e4e6b287b9f9a4af6c1b2356468ba35be373ffffffffffffffffffffffffffffffffffffffff1681526020016040518060400160405280600581526020017f64756d6d7900000000000000000000000000000000000000000000000000000081525081526020016040518060400160405280600581526020017f64756d6d7900000000000000000000000000000000000000000000000000000081525081526020016040518060400160405280600581526020017f64756d6d7900000000000000000000000000000000000000000000000000000081525081526020016040518060400160405280600581526020017f64756d6d7900000000000000000000000000000000000000000000000000000081525081526020016040518060600160405280600073ffffffffffffffffffffffffffffffffffffffff1673ffffffffffffffffffffffffffffffffffffffff168152602001600073ffffffffffffffffffffffffffffffffffffffff1673ffffffffffffffffffffffffffffffffffffffff168152602001600073ffffffffffffffffffffffffffffffffffffffff1673ffffffffffffffffffffffffffffffffffffffff16815250815250600c600082015181600001908162000265919062000769565b5060208201518160010190816200027d919062000769565b5060408201518160020160006101000a81548173ffffffffffffffffffffffffffffffffffffffff021916908373ffffffffffffffffffffffffffffffffffffffff1602179055506060820151816003019081620002dc919062000769565b506080820151816004019081620002f4919062000769565b5060a08201518160050190816200030c919062000769565b5060c082015181600601908162000324919062000769565b5060e0820151816007019060036200033e9291906200044e565b5050503480156200034e57600080fd5b5060405162005513380380620055138339818101604052810190620003749190620008ba565b6040518060400160405280600b81526020017f454865616c7468436172640000000000000000000000000000000000000000008152506040518060400160405280600381526020017f45484300000000000000000000000000000000000000000000000000000000008152508160009081620003f1919062000769565b50806001908162000403919062000769565b50505080600660006101000a81548173ffffffffffffffffffffffffffffffffffffffff021916908373ffffffffffffffffffffffffffffffffffffffff16021790555050620008ec565b8260038101928215620004bd579160200282015b82811115620004bc5782518260006101000a81548173ffffffffffffffffffffffffffffffffffffffff021916908373ffffffffffffffffffffffffffffffffffffffff1602179055509160200191906001019062000462565b5b509050620004cc9190620004d0565b5090565b5b80821115620004eb576000816000905550600101620004d1565b5090565b600081519050919050565b7f4e487b7100000000000000000000000000000000000000000000000000000000600052604160045260246000fd5b7f4e487b7100000000000000000000000000000000000000000000000000000000600052602260045260246000fd5b600060028204905060018216806200057157607f821691505b60208210810362000587576200058662000529565b5b50919050565b60008190508160005260206000209050919050565b60006020601f8301049050919050565b600082821b905092915050565b600060088302620005f17fffffffffffffffffffffffffffffffffffffffffffffffffffffffffffffffff82620005b2565b620005fd8683620005b2565b95508019841693508086168417925050509392505050565b6000819050919050565b6000819050919050565b60006200064a620006446200063e8462000615565b6200061f565b62000615565b9050919050565b6000819050919050565b620006668362000629565b6200067e620006758262000651565b848454620005bf565b825550505050565b600090565b6200069562000686565b620006a28184846200065b565b505050565b5b81811015620006ca57620006be6000826200068b565b600181019050620006a8565b5050565b601f8211156200071957620006e3816200058d565b620006ee84620005a2565b81016020851015620006fe578190505b620007166200070d85620005a2565b830182620006a7565b50505b505050565b600082821c905092915050565b60006200073e600019846008026200071e565b1980831691505092915050565b60006200075983836200072b565b9150826002028217905092915050565b6200077482620004ef565b67ffffffffffffffff81111562000790576200078f620004fa565b5b6200079c825462000558565b620007a9828285620006ce565b600060209050601f831160018114620007e15760008415620007cc578287015190505b620007d885826200074b565b86555062000848565b601f198416620007f1866200058d565b60005b828110156200081b57848901518255600182019150602085019450602081019050620007f4565b868310156200083b578489015162000837601f8916826200072b565b8355505b6001600288020188555050505b505050505050565b600080fd5b600073ffffffffffffffffffffffffffffffffffffffff82169050919050565b6000620008828262000855565b9050919050565b620008948162000875565b8114620008a057600080fd5b50565b600081519050620008b48162000889565b92915050565b600060208284031215620008d357620008d262000850565b5b6000620008e384828501620008a3565b91505092915050565b614c1780620008fc6000396000f3fe608060405234801561001057600080fd5b506004361061018e5760003560e01c80636352211e116100de578063ab4f232911610097578063c87b56dd11610071578063c87b56dd146104b8578063e985e9c5146104e8578063f033f41014610518578063f324072f146105485761018e565b8063ab4f232914610439578063b88d4fde1461046c578063c3c5a547146104885761018e565b80636352211e146103675780636b6817c01461039757806370a08231146103b357806395d89b41146103e3578063a223661614610401578063a22cb4651461041d5761018e565b80631ad6dacf1161014b578063267af30211610125578063267af302146102e35780633141172c146102ff57806336bbe85b1461031b57806342842e0e1461034b5761018e565b80631ad6dacf146102795780631f7b6d32146102a957806323b872dd146102c75761018e565b806301ffc9a714610193578063022cb271146101c357806306fdde03146101df578063081812fc146101fd578063095ea7b31461022d5780630e00512614610249575b600080fd5b6101ad60048036038101906101a891906135e1565b610564565b6040516101ba9190613629565b60405180910390f35b6101dd60048036038101906101d891906136a2565b610646565b005b6101e761091d565b6040516101f4919061375f565b60405180910390f35b610217600480360381019061021291906137b7565b6109af565b60405161022491906137f3565b60405180910390f35b6102476004803603810190610242919061380e565b6109cb565b005b610263600480360381019061025e9190613983565b6109e1565b604051610270919061375f565b60405180910390f35b610293600480360381019061028e9190613983565b610b02565b6040516102a0919061375f565b60405180910390f35b6102b1610c23565b6040516102be91906139db565b60405180910390f35b6102e160048036038101906102dc91906139f6565b610c29565b005b6102fd60048036038101906102f89190613aff565b610d2b565b005b610319600480360381019061031491906136a2565b610e98565b005b61033560048036038101906103309190613983565b61113b565b6040516103429190613bea565b60405180910390f35b610365600480360381019061036091906139f6565b6112a8565b005b610381600480360381019061037c91906137b7565b6112c8565b60405161038e91906137f3565b60405180910390f35b6103b160048036038101906103ac9190613c05565b6112da565b005b6103cd60048036038101906103c891906136a2565b6116f1565b6040516103da91906139db565b60405180910390f35b6103eb6117ab565b6040516103f8919061375f565b60405180910390f35b61041b6004803603810190610416919061380e565b61183d565b005b61043760048036038101906104329190613d7b565b611bc6565b005b610453600480360381019061044e9190613dbb565b611bdc565b6040516104639493929190613e72565b60405180910390f35b61048660048036038101906104819190613f58565b611c66565b005b6104a2600480360381019061049d91906136a2565b611c83565b6040516104af9190613629565b60405180910390f35b6104d260048036038101906104cd91906137b7565b611d2d565b6040516104df919061375f565b60405180910390f35b61050260048036038101906104fd9190613dbb565b611d96565b60405161050f9190613629565b60405180910390f35b610532600480360381019061052d9190613fdb565b611e2a565b60405161053f919061375f565b60405180910390f35b610562600480360381019061055d9190613983565b612039565b005b60007f80ac58cd000000000000000000000000000000000000000000000000000000007bffffffffffffffffffffffffffffffffffffffffffffffffffffffff1916827bffffffffffffffffffffffffffffffffffffffffffffffffffffffff1916148061062f57507f5b5e139f000000000000000000000000000000000000000000000000000000007bffffffffffffffffffffffffffffffffffffffffffffffffffffffff1916827bffffffffffffffffffffffffffffffffffffffffffffffffffffffff1916145b8061063f575061063e826121a1565b5b9050919050565b6000600381111561065a57610659613dfb565b5b600a60003373ffffffffffffffffffffffffffffffffffffffff1673ffffffffffffffffffffffffffffffffffffffff16815260200190815260200160002060008373ffffffffffffffffffffffffffffffffffffffff1673ffffffffffffffffffffffffffffffffffffffff16815260200190815260200160002060010160149054906101000a900460ff1660038111156106f9576106f8613dfb565b5b14610739576040517f08c379a000000000000000000000000000000000000000000000000000000000815260040161073090614083565b60405180910390fd5b60405180608001604052803373ffffffffffffffffffffffffffffffffffffffff1681526020018273ffffffffffffffffffffffffffffffffffffffff168152602001600160038111156107905761078f613dfb565b5b81526020016000815250600a60003373ffffffffffffffffffffffffffffffffffffffff1673ffffffffffffffffffffffffffffffffffffffff16815260200190815260200160002060008373ffffffffffffffffffffffffffffffffffffffff1673ffffffffffffffffffffffffffffffffffffffff16815260200190815260200160002060008201518160000160006101000a81548173ffffffffffffffffffffffffffffffffffffffff021916908373ffffffffffffffffffffffffffffffffffffffff16021790555060208201518160010160006101000a81548173ffffffffffffffffffffffffffffffffffffffff021916908373ffffffffffffffffffffffffffffffffffffffff16021790555060408201518160010160146101000a81548160ff021916908360038111156108cf576108ce613dfb565b5b0217905550606082015181600201559050507f40c7749b16fdfb0d550f20273a7767875059d647af94f5a9610c63ad73dcc79f33826040516109129291906140a3565b60405180910390a150565b60606000805461092c906140fb565b80601f0160208091040260200160405190810160405280929190818152602001828054610958906140fb565b80156109a55780601f1061097a576101008083540402835291602001916109a5565b820191906000526020600020905b81548152906001019060200180831161098857829003601f168201915b5050505050905090565b60006109ba8261220b565b506109c482612293565b9050919050565b6109dd82826109d86122d0565b6122d8565b5050565b606060006009836040516109f59190614168565b908152602001604051809103902060009054906101000a900473ffffffffffffffffffffffffffffffffffffffff169050600073ffffffffffffffffffffffffffffffffffffffff168173ffffffffffffffffffffffffffffffffffffffff1603610a98576040518060400160405280601681526020017f75736572206973206e6f74207265676973746572656400000000000000000000815250915050610afd565b8073ffffffffffffffffffffffffffffffffffffffff163373ffffffffffffffffffffffffffffffffffffffff1614610aec57604051806060016040528060268152602001614bbc60269139915050610afd565b610af5816122ea565b602001519150505b919050565b60606000600983604051610b169190614168565b908152602001604051809103902060009054906101000a900473ffffffffffffffffffffffffffffffffffffffff169050600073ffffffffffffffffffffffffffffffffffffffff168173ffffffffffffffffffffffffffffffffffffffff1603610bb9576040518060400160405280601681526020017f75736572206973206e6f74207265676973746572656400000000000000000000815250915050610c1e565b8073ffffffffffffffffffffffffffffffffffffffff163373ffffffffffffffffffffffffffffffffffffffff1614610c0d57604051806060016040528060268152602001614bbc60269139915050610c1e565b610c16816122ea565b602001519150505b919050565b600b5481565b600073ffffffffffffffffffffffffffffffffffffffff168273ffffffffffffffffffffffffffffffffffffffff1603610c9b5760006040517f64a0ae92000000000000000000000000000000000000000000000000000000008152600401610c9291906137f3565b60405180910390fd5b6000610caf8383610caa6122d0565b612860565b90508373ffffffffffffffffffffffffffffffffffffffff168173ffffffffffffffffffffffffffffffffffffffff1614610d25578382826040517f64283d7b000000000000000000000000000000000000000000000000000000008152600401610d1c9392919061417f565b60405180910390fd5b50505050565b600660009054906101000a900473ffffffffffffffffffffffffffffffffffffffff1673ffffffffffffffffffffffffffffffffffffffff163373ffffffffffffffffffffffffffffffffffffffff1614610d8557600080fd5b6003801115610dc9576040517f08c379a0000000000000000000000000000000000000000000000000000000008152600401610dc090614202565b60405180910390fd5b60005b6003811015610e9357818160038110610de857610de7614222565b5b6020020151600860008573ffffffffffffffffffffffffffffffffffffffff1673ffffffffffffffffffffffffffffffffffffffff1681526020019081526020016000206007018260038110610e4157610e40614222565b5b0160006101000a81548173ffffffffffffffffffffffffffffffffffffffff021916908373ffffffffffffffffffffffffffffffffffffffff1602179055508080610e8b90614280565b915050610dcc565b505050565b338073ffffffffffffffffffffffffffffffffffffffff163373ffffffffffffffffffffffffffffffffffffffff1614610f07576040517f08c379a0000000000000000000000000000000000000000000000000000000008152600401610efe9061433a565b60405180910390fd5b600073ffffffffffffffffffffffffffffffffffffffff16600860008373ffffffffffffffffffffffffffffffffffffffff1673ffffffffffffffffffffffffffffffffffffffff16815260200190815260200160002060020160009054906101000a900473ffffffffffffffffffffffffffffffffffffffff1673ffffffffffffffffffffffffffffffffffffffff1603610fd8576040517f08c379a0000000000000000000000000000000000000000000000000000000008152600401610fcf906143cc565b60405180910390fd5b6000600a60008473ffffffffffffffffffffffffffffffffffffffff1673ffffffffffffffffffffffffffffffffffffffff16815260200190815260200160002060003373ffffffffffffffffffffffffffffffffffffffff1673ffffffffffffffffffffffffffffffffffffffff16815260200190815260200160002090506001600381111561106c5761106b613dfb565b5b8160010160149054906101000a900460ff1660038111156110905761108f613dfb565b5b146110d0576040517f08c379a00000000000000000000000000000000000000000000000000000000081526004016110c790614438565b60405180910390fd5b60038160010160146101000a81548160ff021916908360038111156110f8576110f7613dfb565b5b02179055507f6586985f73a63d005b52bd5a5791732c40ec70b8fc067ab89f5c402185f0c6ea338460405161112e9291906140a3565b60405180910390a1505050565b611143613458565b60006009836040516111559190614168565b908152602001604051809103902060009054906101000a900473ffffffffffffffffffffffffffffffffffffffff1690506000611191826122ea565b90506040516020016111a2906144a4565b6040516020818303038152906040528051906020012081602001516040516020016111cd9190614168565b60405160208183030381529060405280519060200120036112995760006040518060600160405280600073ffffffffffffffffffffffffffffffffffffffff1673ffffffffffffffffffffffffffffffffffffffff168152602001600073ffffffffffffffffffffffffffffffffffffffff1673ffffffffffffffffffffffffffffffffffffffff168152602001600073ffffffffffffffffffffffffffffffffffffffff1673ffffffffffffffffffffffffffffffffffffffff1681525090508093505050506112a3565b8060e00151925050505b919050565b6112c383838360405180602001604052806000815250611c66565b505050565b60006112d38261220b565b9050919050565b600660009054906101000a900473ffffffffffffffffffffffffffffffffffffffff1673ffffffffffffffffffffffffffffffffffffffff163373ffffffffffffffffffffffffffffffffffffffff161461133457600080fd5b60006040518061010001604052808981526020018881526020018773ffffffffffffffffffffffffffffffffffffffff1681526020018681526020018581526020018481526020018381526020016040518060600160405280600073ffffffffffffffffffffffffffffffffffffffff1673ffffffffffffffffffffffffffffffffffffffff168152602001600073ffffffffffffffffffffffffffffffffffffffff1673ffffffffffffffffffffffffffffffffffffffff168152602001600073ffffffffffffffffffffffffffffffffffffffff1673ffffffffffffffffffffffffffffffffffffffff1681525081525090506000600b549050600b600081548092919061144390614280565b919050555060078290806001815401808255809150506001900390600052602060002090600a020160009091909190915060008201518160000190816114899190614665565b50602082015181600101908161149f9190614665565b5060408201518160020160006101000a81548173ffffffffffffffffffffffffffffffffffffffff021916908373ffffffffffffffffffffffffffffffffffffffff16021790555060608201518160030190816114fc9190614665565b5060808201518160040190816115129190614665565b5060a08201518160050190816115289190614665565b5060c082015181600601908161153e9190614665565b5060e08201518160070190600361155692919061347a565b50505081600860008973ffffffffffffffffffffffffffffffffffffffff1673ffffffffffffffffffffffffffffffffffffffff16815260200190815260200160002060008201518160000190816115ae9190614665565b5060208201518160010190816115c49190614665565b5060408201518160020160006101000a81548173ffffffffffffffffffffffffffffffffffffffff021916908373ffffffffffffffffffffffffffffffffffffffff16021790555060608201518160030190816116219190614665565b5060808201518160040190816116379190614665565b5060a082015181600501908161164d9190614665565b5060c08201518160060190816116639190614665565b5060e08201518160070190600361167b92919061347a565b50905050866009846040516116909190614168565b908152602001604051809103902060006101000a81548173ffffffffffffffffffffffffffffffffffffffff021916908373ffffffffffffffffffffffffffffffffffffffff1602179055506116e68782612a7a565b505050505050505050565b60008073ffffffffffffffffffffffffffffffffffffffff168273ffffffffffffffffffffffffffffffffffffffff16036117645760006040517f89c62b6400000000000000000000000000000000000000000000000000000000815260040161175b91906137f3565b60405180910390fd5b600360008373ffffffffffffffffffffffffffffffffffffffff1673ffffffffffffffffffffffffffffffffffffffff168152602001908152602001600020549050919050565b6060600180546117ba906140fb565b80601f01602080910402602001604051908101604052809291908181526020018280546117e6906140fb565b80156118335780601f1061180857610100808354040283529160200191611833565b820191906000526020600020905b81548152906001019060200180831161181657829003601f168201915b5050505050905090565b338073ffffffffffffffffffffffffffffffffffffffff163373ffffffffffffffffffffffffffffffffffffffff16146118ac576040517f08c379a00000000000000000000000000000000000000000000000000000000081526004016118a39061433a565b60405180910390fd5b600073ffffffffffffffffffffffffffffffffffffffff16600860008373ffffffffffffffffffffffffffffffffffffffff1673ffffffffffffffffffffffffffffffffffffffff16815260200190815260200160002060020160009054906101000a900473ffffffffffffffffffffffffffffffffffffffff1673ffffffffffffffffffffffffffffffffffffffff160361197d576040517f08c379a0000000000000000000000000000000000000000000000000000000008152600401611974906143cc565b60405180910390fd5b6000600a60008573ffffffffffffffffffffffffffffffffffffffff1673ffffffffffffffffffffffffffffffffffffffff16815260200190815260200160002060003373ffffffffffffffffffffffffffffffffffffffff1673ffffffffffffffffffffffffffffffffffffffff168152602001908152602001600020905060016003811115611a1157611a10613dfb565b5b8160010160149054906101000a900460ff166003811115611a3557611a34613dfb565b5b14611a75576040517f08c379a0000000000000000000000000000000000000000000000000000000008152600401611a6c90614438565b60405180910390fd5b600073ffffffffffffffffffffffffffffffffffffffff16600860003373ffffffffffffffffffffffffffffffffffffffff1673ffffffffffffffffffffffffffffffffffffffff16815260200190815260200160002060020160009054906101000a900473ffffffffffffffffffffffffffffffffffffffff1673ffffffffffffffffffffffffffffffffffffffff1603611b46576040517f08c379a0000000000000000000000000000000000000000000000000000000008152600401611b3d90614783565b60405180910390fd5b60028160010160146101000a81548160ff02191690836003811115611b6e57611b6d613dfb565b5b02179055508242611b7f91906147a3565b81600201819055507fe6334627d2d1b816244f24397d90a02beea6f06a64333958f2fca9a73f84266d3385604051611bb89291906140a3565b60405180910390a150505050565b611bd8611bd16122d0565b8383612b73565b5050565b600a602052816000526040600020602052806000526040600020600091509150508060000160009054906101000a900473ffffffffffffffffffffffffffffffffffffffff16908060010160009054906101000a900473ffffffffffffffffffffffffffffffffffffffff16908060010160149054906101000a900460ff16908060020154905084565b611c71848484610c29565b611c7d84848484612ce2565b50505050565b60008073ffffffffffffffffffffffffffffffffffffffff16600860008473ffffffffffffffffffffffffffffffffffffffff1673ffffffffffffffffffffffffffffffffffffffff16815260200190815260200160002060020160009054906101000a900473ffffffffffffffffffffffffffffffffffffffff1673ffffffffffffffffffffffffffffffffffffffff1603611d235760009050611d28565b600190505b919050565b6060611d388261220b565b506000611d43612e99565b90506000815111611d635760405180602001604052806000815250611d8e565b80611d6d84612eb0565b604051602001611d7e9291906147d7565b6040516020818303038152906040525b915050919050565b6000600560008473ffffffffffffffffffffffffffffffffffffffff1673ffffffffffffffffffffffffffffffffffffffff16815260200190815260200160002060008373ffffffffffffffffffffffffffffffffffffffff1673ffffffffffffffffffffffffffffffffffffffff16815260200190815260200160002060009054906101000a900460ff16905092915050565b60606000600a60008473ffffffffffffffffffffffffffffffffffffffff1673ffffffffffffffffffffffffffffffffffffffff16815260200190815260200160002060003373ffffffffffffffffffffffffffffffffffffffff1673ffffffffffffffffffffffffffffffffffffffff168152602001908152602001600020905060026003811115611ec057611ebf613dfb565b5b8160010160149054906101000a900460ff166003811115611ee457611ee3613dfb565b5b14611f24576040517f08c379a0000000000000000000000000000000000000000000000000000000008152600401611f1b90614847565b60405180910390fd5b8060020154421115611f6b576040517f08c379a0000000000000000000000000000000000000000000000000000000008152600401611f62906148b3565b60405180910390fd5b6000600985604051611f7d9190614168565b908152602001604051809103902060009054906101000a900473ffffffffffffffffffffffffffffffffffffffff169050600073ffffffffffffffffffffffffffffffffffffffff168173ffffffffffffffffffffffffffffffffffffffff1603612021576040518060400160405280601681526020017f75736572206973206e6f7420726567697374657265640000000000000000000081525092505050612033565b61202a816122ea565b60200151925050505b92915050565b600060078054905011612081576040517f08c379a00000000000000000000000000000000000000000000000000000000081526004016120789061491f565b60405180910390fd5b60405160200161209090614965565b60405160208183030381529060405280519060200120600860003373ffffffffffffffffffffffffffffffffffffffff1673ffffffffffffffffffffffffffffffffffffffff1681526020019081526020016000206001016040516020016120f891906149fd565b604051602081830303815290604052805190602001200361214e576040517f08c379a000000000000000000000000000000000000000000000000000000000815260040161214590614a60565b60405180910390fd5b80600860003373ffffffffffffffffffffffffffffffffffffffff1673ffffffffffffffffffffffffffffffffffffffff168152602001908152602001600020600101908161219d9190614665565b5050565b60007f01ffc9a7000000000000000000000000000000000000000000000000000000007bffffffffffffffffffffffffffffffffffffffffffffffffffffffff1916827bffffffffffffffffffffffffffffffffffffffffffffffffffffffff1916149050919050565b60008061221783612f7e565b9050600073ffffffffffffffffffffffffffffffffffffffff168173ffffffffffffffffffffffffffffffffffffffff160361228a57826040517f7e27328900000000000000000000000000000000000000000000000000000000815260040161228191906139db565b60405180910390fd5b80915050919050565b60006004600083815260200190815260200160002060009054906101000a900473ffffffffffffffffffffffffffffffffffffffff169050919050565b600033905090565b6122e58383836001612fbb565b505050565b6122f26134f7565b60006007805490501161230457600080fd5b60405160200161231390614965565b60405160208183030381529060405280519060200120600860008473ffffffffffffffffffffffffffffffffffffffff1673ffffffffffffffffffffffffffffffffffffffff16815260200190815260200160002060010160405160200161237b91906149fd565b60405160208183030381529060405280519060200120036123d1576040517f08c379a00000000000000000000000000000000000000000000000000000000081526004016123c890614a60565b60405180910390fd5b600860008373ffffffffffffffffffffffffffffffffffffffff1673ffffffffffffffffffffffffffffffffffffffff1681526020019081526020016000206040518061010001604052908160008201805461242c906140fb565b80601f0160208091040260200160405190810160405280929190818152602001828054612458906140fb565b80156124a55780601f1061247a576101008083540402835291602001916124a5565b820191906000526020600020905b81548152906001019060200180831161248857829003601f168201915b505050505081526020016001820180546124be906140fb565b80601f01602080910402602001604051908101604052809291908181526020018280546124ea906140fb565b80156125375780601f1061250c57610100808354040283529160200191612537565b820191906000526020600020905b81548152906001019060200180831161251a57829003601f168201915b505050505081526020016002820160009054906101000a900473ffffffffffffffffffffffffffffffffffffffff1673ffffffffffffffffffffffffffffffffffffffff1673ffffffffffffffffffffffffffffffffffffffff1681526020016003820180546125a6906140fb565b80601f01602080910402602001604051908101604052809291908181526020018280546125d2906140fb565b801561261f5780601f106125f45761010080835404028352916020019161261f565b820191906000526020600020905b81548152906001019060200180831161260257829003601f168201915b50505050508152602001600482018054612638906140fb565b80601f0160208091040260200160405190810160405280929190818152602001828054612664906140fb565b80156126b15780601f10612686576101008083540402835291602001916126b1565b820191906000526020600020905b81548152906001019060200180831161269457829003601f168201915b505050505081526020016005820180546126ca906140fb565b80601f01602080910402602001604051908101604052809291908181526020018280546126f6906140fb565b80156127435780601f1061271857610100808354040283529160200191612743565b820191906000526020600020905b81548152906001019060200180831161272657829003601f168201915b5050505050815260200160068201805461275c906140fb565b80601f0160208091040260200160405190810160405280929190818152602001828054612788906140fb565b80156127d55780601f106127aa576101008083540402835291602001916127d5565b820191906000526020600020905b8154815290600101906020018083116127b857829003601f168201915b5050505050815260200160078201600380602002604051908101604052809291908260038015612850576020028201915b8160009054906101000a900473ffffffffffffffffffffffffffffffffffffffff1673ffffffffffffffffffffffffffffffffffffffff1681526020019060010190808311612806575b5050505050815250509050919050565b60008061286c84612f7e565b9050600073ffffffffffffffffffffffffffffffffffffffff168373ffffffffffffffffffffffffffffffffffffffff16146128ae576128ad818486613180565b5b600073ffffffffffffffffffffffffffffffffffffffff168173ffffffffffffffffffffffffffffffffffffffff161461293f576128f0600085600080612fbb565b6001600360008373ffffffffffffffffffffffffffffffffffffffff1673ffffffffffffffffffffffffffffffffffffffff168152602001908152602001600020600082825403925050819055505b600073ffffffffffffffffffffffffffffffffffffffff168573ffffffffffffffffffffffffffffffffffffffff16146129c2576001600360008773ffffffffffffffffffffffffffffffffffffffff1673ffffffffffffffffffffffffffffffffffffffff168152602001908152602001600020600082825401925050819055505b846002600086815260200190815260200160002060006101000a81548173ffffffffffffffffffffffffffffffffffffffff021916908373ffffffffffffffffffffffffffffffffffffffff160217905550838573ffffffffffffffffffffffffffffffffffffffff168273ffffffffffffffffffffffffffffffffffffffff167fddf252ad1be2c89b69c2b068fc378daa952ba7f163c4a11628f55a4df523b3ef60405160405180910390a4809150509392505050565b600073ffffffffffffffffffffffffffffffffffffffff168273ffffffffffffffffffffffffffffffffffffffff1603612aec5760006040517f64a0ae92000000000000000000000000000000000000000000000000000000008152600401612ae391906137f3565b60405180910390fd5b6000612afa83836000612860565b9050600073ffffffffffffffffffffffffffffffffffffffff168173ffffffffffffffffffffffffffffffffffffffff1614612b6e5760006040517f73c6ac6e000000000000000000000000000000000000000000000000000000008152600401612b6591906137f3565b60405180910390fd5b505050565b600073ffffffffffffffffffffffffffffffffffffffff168273ffffffffffffffffffffffffffffffffffffffff1603612be457816040517f5b08ba18000000000000000000000000000000000000000000000000000000008152600401612bdb91906137f3565b60405180910390fd5b80600560008573ffffffffffffffffffffffffffffffffffffffff1673ffffffffffffffffffffffffffffffffffffffff16815260200190815260200160002060008473ffffffffffffffffffffffffffffffffffffffff1673ffffffffffffffffffffffffffffffffffffffff16815260200190815260200160002060006101000a81548160ff0219169083151502179055508173ffffffffffffffffffffffffffffffffffffffff168373ffffffffffffffffffffffffffffffffffffffff167f17307eab39ab6107e8899845ad3d59bd9653f200f220920489ca2b5937696c3183604051612cd59190613629565b60405180910390a3505050565b60008373ffffffffffffffffffffffffffffffffffffffff163b1115612e93578273ffffffffffffffffffffffffffffffffffffffff1663150b7a02612d266122d0565b8685856040518563ffffffff1660e01b8152600401612d489493929190614ad5565b6020604051808303816000875af1925050508015612d8457506040513d601f19601f82011682018060405250810190612d819190614b36565b60015b612e08573d8060008114612db4576040519150601f19603f3d011682016040523d82523d6000602084013e612db9565b606091505b506000815103612e0057836040517f64a0ae92000000000000000000000000000000000000000000000000000000008152600401612df791906137f3565b60405180910390fd5b805181602001fd5b63150b7a0260e01b7bffffffffffffffffffffffffffffffffffffffffffffffffffffffff1916817bffffffffffffffffffffffffffffffffffffffffffffffffffffffff191614612e9157836040517f64a0ae92000000000000000000000000000000000000000000000000000000008152600401612e8891906137f3565b60405180910390fd5b505b50505050565b606060405180602001604052806000815250905090565b606060006001612ebf84613244565b01905060008167ffffffffffffffff811115612ede57612edd613858565b5b6040519080825280601f01601f191660200182016040528015612f105781602001600182028036833780820191505090505b509050600082602001820190505b600115612f73578080600190039150507f3031323334353637383961626364656600000000000000000000000000000000600a86061a8153600a8581612f6757612f66614b63565b5b04945060008503612f1e575b819350505050919050565b60006002600083815260200190815260200160002060009054906101000a900473ffffffffffffffffffffffffffffffffffffffff169050919050565b8080612ff45750600073ffffffffffffffffffffffffffffffffffffffff168273ffffffffffffffffffffffffffffffffffffffff1614155b156131285760006130048461220b565b9050600073ffffffffffffffffffffffffffffffffffffffff168373ffffffffffffffffffffffffffffffffffffffff161415801561306f57508273ffffffffffffffffffffffffffffffffffffffff168173ffffffffffffffffffffffffffffffffffffffff1614155b801561308257506130808184611d96565b155b156130c457826040517fa9fbf51f0000000000000000000000000000000000000000000000000000000081526004016130bb91906137f3565b60405180910390fd5b811561312657838573ffffffffffffffffffffffffffffffffffffffff168273ffffffffffffffffffffffffffffffffffffffff167f8c5be1e5ebec7d5bd14f71427d1e84f3dd0314c0f7b2291e5b200ac8c7c3b92560405160405180910390a45b505b836004600085815260200190815260200160002060006101000a81548173ffffffffffffffffffffffffffffffffffffffff021916908373ffffffffffffffffffffffffffffffffffffffff16021790555050505050565b61318b838383613397565b61323f57600073ffffffffffffffffffffffffffffffffffffffff168373ffffffffffffffffffffffffffffffffffffffff160361320057806040517f7e2732890000000000000000000000000000000000000000000000000000000081526004016131f791906139db565b60405180910390fd5b81816040517f177e802f000000000000000000000000000000000000000000000000000000008152600401613236929190614b92565b60405180910390fd5b505050565b600080600090507a184f03e93ff9f4daa797ed6e38ed64bf6a1f01000000000000000083106132a2577a184f03e93ff9f4daa797ed6e38ed64bf6a1f010000000000000000838161329857613297614b63565b5b0492506040810190505b6d04ee2d6d415b85acef810000000083106132df576d04ee2d6d415b85acef810000000083816132d5576132d4614b63565b5b0492506020810190505b662386f26fc10000831061330e57662386f26fc10000838161330457613303614b63565b5b0492506010810190505b6305f5e1008310613337576305f5e100838161332d5761332c614b63565b5b0492506008810190505b612710831061335c57612710838161335257613351614b63565b5b0492506004810190505b6064831061337f576064838161337557613374614b63565b5b0492506002810190505b600a831061338e576001810190505b80915050919050565b60008073ffffffffffffffffffffffffffffffffffffffff168373ffffffffffffffffffffffffffffffffffffffff161415801561344f57508273ffffffffffffffffffffffffffffffffffffffff168473ffffffffffffffffffffffffffffffffffffffff161480613410575061340f8484611d96565b5b8061344e57508273ffffffffffffffffffffffffffffffffffffffff1661343683612293565b73ffffffffffffffffffffffffffffffffffffffff16145b5b90509392505050565b6040518060600160405280600390602082028036833780820191505090505090565b82600381019282156134e6579160200282015b828111156134e55782518260006101000a81548173ffffffffffffffffffffffffffffffffffffffff021916908373ffffffffffffffffffffffffffffffffffffffff1602179055509160200191906001019061348d565b5b5090506134f39190613558565b5090565b6040518061010001604052806060815260200160608152602001600073ffffffffffffffffffffffffffffffffffffffff16815260200160608152602001606081526020016060815260200160608152602001613552613458565b81525090565b5b80821115613571576000816000905550600101613559565b5090565b6000604051905090565b600080fd5b600080fd5b60007fffffffff0000000000000000000000000000000000000000000000000000000082169050919050565b6135be81613589565b81146135c957600080fd5b50565b6000813590506135db816135b5565b92915050565b6000602082840312156135f7576135f661357f565b5b6000613605848285016135cc565b91505092915050565b60008115159050919050565b6136238161360e565b82525050565b600060208201905061363e600083018461361a565b92915050565b600073ffffffffffffffffffffffffffffffffffffffff82169050919050565b600061366f82613644565b9050919050565b61367f81613664565b811461368a57600080fd5b50565b60008135905061369c81613676565b92915050565b6000602082840312156136b8576136b761357f565b5b60006136c68482850161368d565b91505092915050565b600081519050919050565b600082825260208201905092915050565b60005b838110156137095780820151818401526020810190506136ee565b60008484015250505050565b6000601f19601f8301169050919050565b6000613731826136cf565b61373b81856136da565b935061374b8185602086016136eb565b61375481613715565b840191505092915050565b600060208201905081810360008301526137798184613726565b905092915050565b6000819050919050565b61379481613781565b811461379f57600080fd5b50565b6000813590506137b18161378b565b92915050565b6000602082840312156137cd576137cc61357f565b5b60006137db848285016137a2565b91505092915050565b6137ed81613664565b82525050565b600060208201905061380860008301846137e4565b92915050565b600080604083850312156138255761382461357f565b5b60006138338582860161368d565b9250506020613844858286016137a2565b9150509250929050565b600080fd5b600080fd5b7f4e487b7100000000000000000000000000000000000000000000000000000000600052604160045260246000fd5b61389082613715565b810181811067ffffffffffffffff821117156138af576138ae613858565b5b80604052505050565b60006138c2613575565b90506138ce8282613887565b919050565b600067ffffffffffffffff8211156138ee576138ed613858565b5b6138f782613715565b9050602081019050919050565b82818337600083830152505050565b6000613926613921846138d3565b6138b8565b90508281526020810184848401111561394257613941613853565b5b61394d848285613904565b509392505050565b600082601f83011261396a5761396961384e565b5b813561397a848260208601613913565b91505092915050565b6000602082840312156139995761399861357f565b5b600082013567ffffffffffffffff8111156139b7576139b6613584565b5b6139c384828501613955565b91505092915050565b6139d581613781565b82525050565b60006020820190506139f060008301846139cc565b92915050565b600080600060608486031215613a0f57613a0e61357f565b5b6000613a1d8682870161368d565b9350506020613a2e8682870161368d565b9250506040613a3f868287016137a2565b9150509250925092565b600067ffffffffffffffff821115613a6457613a63613858565b5b602082029050919050565b600080fd5b6000613a87613a8284613a49565b6138b8565b90508060208402830185811115613aa157613aa0613a6f565b5b835b81811015613aca5780613ab6888261368d565b845260208401935050602081019050613aa3565b5050509392505050565b600082601f830112613ae957613ae861384e565b5b6003613af6848285613a74565b91505092915050565b60008060808385031215613b1657613b1561357f565b5b6000613b248582860161368d565b9250506020613b3585828601613ad4565b9150509250929050565b600060039050919050565b600081905092915050565b6000819050919050565b613b6881613664565b82525050565b6000613b7a8383613b5f565b60208301905092915050565b6000602082019050919050565b613b9c81613b3f565b613ba68184613b4a565b9250613bb182613b55565b8060005b83811015613be2578151613bc98782613b6e565b9650613bd483613b86565b925050600181019050613bb5565b505050505050565b6000606082019050613bff6000830184613b93565b92915050565b600080600080600080600060e0888a031215613c2457613c2361357f565b5b600088013567ffffffffffffffff811115613c4257613c41613584565b5b613c4e8a828b01613955565b975050602088013567ffffffffffffffff811115613c6f57613c6e613584565b5b613c7b8a828b01613955565b9650506040613c8c8a828b0161368d565b955050606088013567ffffffffffffffff811115613cad57613cac613584565b5b613cb98a828b01613955565b945050608088013567ffffffffffffffff811115613cda57613cd9613584565b5b613ce68a828b01613955565b93505060a088013567ffffffffffffffff811115613d0757613d06613584565b5b613d138a828b01613955565b92505060c088013567ffffffffffffffff811115613d3457613d33613584565b5b613d408a828b01613955565b91505092959891949750929550565b613d588161360e565b8114613d6357600080fd5b50565b600081359050613d7581613d4f565b92915050565b60008060408385031215613d9257613d9161357f565b5b6000613da08582860161368d565b9250506020613db185828601613d66565b9150509250929050565b60008060408385031215613dd257613dd161357f565b5b6000613de08582860161368d565b9250506020613df18582860161368d565b9150509250929050565b7f4e487b7100000000000000000000000000000000000000000000000000000000600052602160045260246000fd5b60048110613e3b57613e3a613dfb565b5b50565b6000819050613e4c82613e2a565b919050565b6000613e5c82613e3e565b9050919050565b613e6c81613e51565b82525050565b6000608082019050613e8760008301876137e4565b613e9460208301866137e4565b613ea16040830185613e63565b613eae60608301846139cc565b95945050505050565b600067ffffffffffffffff821115613ed257613ed1613858565b5b613edb82613715565b9050602081019050919050565b6000613efb613ef684613eb7565b6138b8565b905082815260208101848484011115613f1757613f16613853565b5b613f22848285613904565b509392505050565b600082601f830112613f3f57613f3e61384e565b5b8135613f4f848260208601613ee8565b91505092915050565b60008060008060808587031215613f7257613f7161357f565b5b6000613f808782880161368d565b9450506020613f918782880161368d565b9350506040613fa2878288016137a2565b925050606085013567ffffffffffffffff811115613fc357613fc2613584565b5b613fcf87828801613f2a565b91505092959194509250565b60008060408385031215613ff257613ff161357f565b5b600083013567ffffffffffffffff8111156140105761400f613584565b5b61401c85828601613955565b925050602061402d8582860161368d565b9150509250929050565b7f416363657373207265717565737420616c726561647920657869737473000000600082015250565b600061406d601d836136da565b915061407882614037565b602082019050919050565b6000602082019050818103600083015261409c81614060565b9050919050565b60006040820190506140b860008301856137e4565b6140c560208301846137e4565b9392505050565b7f4e487b7100000000000000000000000000000000000000000000000000000000600052602260045260246000fd5b6000600282049050600182168061411357607f821691505b602082108103614126576141256140cc565b5b50919050565b600081905092915050565b6000614142826136cf565b61414c818561412c565b935061415c8185602086016136eb565b80840191505092915050565b60006141748284614137565b915081905092915050565b600060608201905061419460008301866137e4565b6141a160208301856139cc565b6141ae60408301846137e4565b949350505050565b7f546f6f206d616e7920656d657267656e637920636f6e74616374730000000000600082015250565b60006141ec601b836136da565b91506141f7826141b6565b602082019050919050565b6000602082019050818103600083015261421b816141df565b9050919050565b7f4e487b7100000000000000000000000000000000000000000000000000000000600052603260045260246000fd5b7f4e487b7100000000000000000000000000000000000000000000000000000000600052601160045260246000fd5b600061428b82613781565b91507fffffffffffffffffffffffffffffffffffffffffffffffffffffffffffffffff82036142bd576142bc614251565b5b600182019050919050565b7f4f6e6c79207468652070617469656e742063616e2063616c6c2074686973206660008201527f756e6374696f6e00000000000000000000000000000000000000000000000000602082015250565b60006143246027836136da565b915061432f826142c8565b604082019050919050565b6000602082019050818103600083015261435381614317565b9050919050565b7f75736572206973206e6f7420612070617469656e74206f7220646f65736e742060008201527f686176652061206d65646963616c206361726400000000000000000000000000602082015250565b60006143b66033836136da565b91506143c18261435a565b604082019050919050565b600060208201905081810360008301526143e5816143a9565b9050919050565b7f4e6f2070656e64696e6720616363657373207265717565737400000000000000600082015250565b60006144226019836136da565b915061442d826143ec565b602082019050919050565b6000602082019050818103600083015261445181614415565b9050919050565b7f64756d6d79000000000000000000000000000000000000000000000000000000600082015250565b600061448e60058361412c565b915061449982614458565b600582019050919050565b60006144af82614481565b9150819050919050565b60008190508160005260206000209050919050565b60006020601f8301049050919050565b600082821b905092915050565b60006008830261451b7fffffffffffffffffffffffffffffffffffffffffffffffffffffffffffffffff826144de565b61452586836144de565b95508019841693508086168417925050509392505050565b6000819050919050565b600061456261455d61455884613781565b61453d565b613781565b9050919050565b6000819050919050565b61457c83614547565b61459061458882614569565b8484546144eb565b825550505050565b600090565b6145a5614598565b6145b0818484614573565b505050565b5b818110156145d4576145c960008261459d565b6001810190506145b6565b5050565b601f821115614619576145ea816144b9565b6145f3846144ce565b81016020851015614602578190505b61461661460e856144ce565b8301826145b5565b50505b505050565b600082821c905092915050565b600061463c6000198460080261461e565b1980831691505092915050565b6000614655838361462b565b9150826002028217905092915050565b61466e826136cf565b67ffffffffffffffff81111561468757614686613858565b5b61469182546140fb565b61469c8282856145d8565b600060209050601f8311600181146146cf57600084156146bd578287015190505b6146c78582614649565b86555061472f565b601f1984166146dd866144b9565b60005b82811015614705578489015182556001820191506020850194506020810190506146e0565b86831015614722578489015161471e601f89168261462b565b8355505b6001600288020188555050505b505050505050565b7f7573657220686173206e6f206d65646963616c207265636f7264730000000000600082015250565b600061476d601b836136da565b915061477882614737565b602082019050919050565b6000602082019050818103600083015261479c81614760565b9050919050565b60006147ae82613781565b91506147b983613781565b92508282019050808211156147d1576147d0614251565b5b92915050565b60006147e38285614137565b91506147ef8284614137565b91508190509392505050565b7f416363657373206e6f7420617070726f76656400000000000000000000000000600082015250565b60006148316013836136da565b915061483c826147fb565b602082019050919050565b6000602082019050818103600083015261486081614824565b9050919050565b7f4163636573732068617320657870697265640000000000000000000000000000600082015250565b600061489d6012836136da565b91506148a882614867565b602082019050919050565b600060208201905081810360008301526148cc81614890565b9050919050565b7f7468657265206973206e6f207265676973746572656420757365727300000000600082015250565b6000614909601c836136da565b9150614914826148d3565b602082019050919050565b60006020820190508181036000830152614938816148fc565b9050919050565b50565b600061494f60008361412c565b915061495a8261493f565b600082019050919050565b600061497082614942565b9150819050919050565b60008154614987816140fb565b614991818661412c565b945060018216600081146149ac57600181146149c1576149f4565b60ff19831686528115158202860193506149f4565b6149ca856144b9565b60005b838110156149ec578154818901526001820191506020810190506149cd565b838801955050505b50505092915050565b6000614a09828461497a565b915081905092915050565b7f5573657220686173206e6f206865616c74682063617264000000000000000000600082015250565b6000614a4a6017836136da565b9150614a5582614a14565b602082019050919050565b60006020820190508181036000830152614a7981614a3d565b9050919050565b600081519050919050565b600082825260208201905092915050565b6000614aa782614a80565b614ab18185614a8b565b9350614ac18185602086016136eb565b614aca81613715565b840191505092915050565b6000608082019050614aea60008301876137e4565b614af760208301866137e4565b614b0460408301856139cc565b8181036060830152614b168184614a9c565b905095945050505050565b600081519050614b30816135b5565b92915050565b600060208284031215614b4c57614b4b61357f565b5b6000614b5a84828501614b21565b91505092915050565b7f4e487b7100000000000000000000000000000000000000000000000000000000600052601260045260246000fd5b6000604082019050614ba760008301856137e4565b614bb460208301846139cc565b939250505056fe7265636f726473206f6e6c792061636365737369626c65206279207468652070617469656e74a26469706673582212202a1d3b58fed63495dba8a5a7d1bca96cf279193d8304d34bcd09d6aba71cdfb064736f6c63430008140033",
  "linkReferences": {},
  "deployedLinkReferences": {}
}